{
  "_format": "hh-sol-artifact-1",
  "contractName": "Crash",
  "sourceName": "contracts/Crash.sol",
  "abi": [
    {
      "inputs": [],
      "stateMutability": "nonpayable",
      "type": "constructor"
    },
    {
      "inputs": [
        {
          "internalType": "address",
          "name": "owner",
          "type": "address"
        }
      ],
      "name": "OwnableInvalidOwner",
      "type": "error"
    },
    {
      "inputs": [
        {
          "internalType": "address",
          "name": "account",
          "type": "address"
        }
      ],
      "name": "OwnableUnauthorizedAccount",
      "type": "error"
    },
    {
      "anonymous": false,
      "inputs": [
        {
          "indexed": true,
          "internalType": "uint256",
          "name": "betId",
          "type": "uint256"
        },
        {
          "indexed": true,
          "internalType": "address",
          "name": "player",
          "type": "address"
        },
        {
          "indexed": false,
          "internalType": "uint256",
          "name": "amount",
          "type": "uint256"
        },
        {
          "indexed": false,
          "internalType": "uint256",
          "name": "choice",
          "type": "uint256"
        },
        {
          "indexed": false,
          "internalType": "address",
          "name": "token",
          "type": "address"
        }
      ],
      "name": "BetPlaced",
      "type": "event"
    },
    {
      "anonymous": false,
      "inputs": [
        {
          "indexed": true,
          "internalType": "uint256",
          "name": "betId",
          "type": "uint256"
        },
        {
          "indexed": true,
          "internalType": "address",
          "name": "player",
          "type": "address"
        },
        {
          "indexed": false,
          "internalType": "uint256",
          "name": "amount",
          "type": "uint256"
        },
        {
          "indexed": false,
          "internalType": "address",
          "name": "token",
          "type": "address"
        }
      ],
      "name": "BetRefunded",
      "type": "event"
    },
    {
      "anonymous": false,
      "inputs": [
        {
          "indexed": true,
          "internalType": "uint256",
          "name": "betId",
          "type": "uint256"
        },
        {
          "indexed": true,
          "internalType": "address",
          "name": "player",
          "type": "address"
        },
        {
          "indexed": false,
          "internalType": "uint256",
          "name": "amount",
          "type": "uint256"
        },
        {
          "indexed": false,
          "internalType": "uint256",
          "name": "choice",
          "type": "uint256"
        },
        {
          "indexed": false,
          "internalType": "uint256",
          "name": "outcome",
          "type": "uint256"
        },
        {
          "indexed": false,
          "internalType": "uint256",
          "name": "winAmount",
          "type": "uint256"
        },
        {
          "indexed": false,
          "internalType": "address",
          "name": "token",
          "type": "address"
        }
      ],
      "name": "BetSettled",
      "type": "event"
    },
    {
      "anonymous": false,
      "inputs": [
        {
          "indexed": true,
          "internalType": "address",
          "name": "previousOwner",
          "type": "address"
        },
        {
          "indexed": true,
          "internalType": "address",
          "name": "newOwner",
          "type": "address"
        }
      ],
      "name": "OwnershipTransferred",
      "type": "event"
    },
    {
      "inputs": [
        {
          "internalType": "uint256",
          "name": "betId",
          "type": "uint256"
        },
        {
          "internalType": "uint256",
          "name": "seed",
          "type": "uint256"
        }
      ],
      "name": "_settleBet",
      "outputs": [
        {
          "internalType": "uint256",
          "name": "",
          "type": "uint256"
        },
        {
          "internalType": "uint256",
          "name": "",
          "type": "uint256"
        },
        {
          "internalType": "uint256",
          "name": "",
          "type": "uint256"
        }
      ],
      "stateMutability": "nonpayable",
      "type": "function"
    },
    {
      "inputs": [
        {
          "internalType": "bytes32",
          "name": "",
          "type": "bytes32"
        },
        {
          "internalType": "uint256",
          "name": "",
          "type": "uint256"
        }
      ],
      "name": "betMap",
      "outputs": [
        {
          "internalType": "uint256",
          "name": "",
          "type": "uint256"
        }
      ],
      "stateMutability": "view",
      "type": "function"
    },
    {
      "inputs": [
        {
          "internalType": "uint256",
          "name": "",
          "type": "uint256"
        }
      ],
      "name": "bets",
      "outputs": [
        {
          "internalType": "uint40",
          "name": "choice",
          "type": "uint40"
        },
        {
          "internalType": "uint40",
          "name": "outcome",
          "type": "uint40"
        },
        {
          "internalType": "uint176",
          "name": "placeBlockNumber",
          "type": "uint176"
        },
        {
          "internalType": "uint128",
          "name": "amount",
          "type": "uint128"
        },
        {
          "internalType": "uint128",
          "name": "winAmount",
          "type": "uint128"
        },
        {
          "internalType": "address",
          "name": "player",
          "type": "address"
        },
        {
          "internalType": "address",
          "name": "token",
          "type": "address"
        },
        {
          "internalType": "bool",
          "name": "isSettled",
          "type": "bool"
        }
      ],
      "stateMutability": "view",
      "type": "function"
    },
    {
      "inputs": [],
      "name": "betsLength",
      "outputs": [
        {
          "internalType": "uint256",
          "name": "",
          "type": "uint256"
        }
      ],
      "stateMutability": "view",
      "type": "function"
    },
    {
      "inputs": [
        {
          "internalType": "address",
          "name": "",
          "type": "address"
        }
      ],
      "name": "callers",
      "outputs": [
        {
          "internalType": "bool",
          "name": "",
          "type": "bool"
        }
      ],
      "stateMutability": "view",
      "type": "function"
    },
    {
      "inputs": [],
      "name": "explosionRate",
      "outputs": [
        {
          "internalType": "uint256",
          "name": "",
          "type": "uint256"
        }
      ],
      "stateMutability": "view",
      "type": "function"
    },
    {
      "inputs": [],
      "name": "gameIsLive",
      "outputs": [
        {
          "internalType": "bool",
          "name": "",
          "type": "bool"
        }
      ],
      "stateMutability": "view",
      "type": "function"
    },
    {
      "inputs": [],
      "name": "getAverangeMultiplier",
      "outputs": [
        {
          "internalType": "uint256",
          "name": "",
          "type": "uint256"
        }
      ],
      "stateMutability": "view",
      "type": "function"
    },
    {
      "inputs": [
        {
          "internalType": "address",
          "name": "player",
          "type": "address"
        }
      ],
      "name": "getPlayerBets",
      "outputs": [
        {
          "internalType": "uint256[]",
          "name": "",
          "type": "uint256[]"
        }
      ],
      "stateMutability": "view",
      "type": "function"
    },
    {
      "inputs": [
        {
          "internalType": "address",
          "name": "player",
          "type": "address"
        }
      ],
      "name": "getPlayerInfo",
      "outputs": [
        {
          "internalType": "uint256",
          "name": "",
          "type": "uint256"
        },
        {
          "internalType": "uint256",
          "name": "",
          "type": "uint256"
        },
        {
          "internalType": "uint256",
          "name": "",
          "type": "uint256"
        }
      ],
      "stateMutability": "view",
      "type": "function"
    },
    {
      "inputs": [
        {
          "internalType": "uint256[]",
          "name": "betIds",
          "type": "uint256[]"
        },
        {
          "internalType": "bool",
          "name": "fullList",
          "type": "bool"
        }
      ],
      "name": "getSeveralBets",
      "outputs": [
        {
          "components": [
            {
              "internalType": "uint40",
              "name": "choice",
              "type": "uint40"
            },
            {
              "internalType": "uint40",
              "name": "outcome",
              "type": "uint40"
            },
            {
              "internalType": "uint176",
              "name": "placeBlockNumber",
              "type": "uint176"
            },
            {
              "internalType": "uint128",
              "name": "amount",
              "type": "uint128"
            },
            {
              "internalType": "uint128",
              "name": "winAmount",
              "type": "uint128"
            },
            {
              "internalType": "address",
              "name": "player",
              "type": "address"
            },
            {
              "internalType": "address",
              "name": "token",
              "type": "address"
            },
            {
              "internalType": "bool",
              "name": "isSettled",
              "type": "bool"
            }
          ],
          "internalType": "struct Manager.Bet[]",
          "name": "",
          "type": "tuple[]"
        }
      ],
      "stateMutability": "view",
      "type": "function"
    },
    {
      "inputs": [],
      "name": "maxMultiplier",
      "outputs": [
        {
          "internalType": "uint256",
          "name": "",
          "type": "uint256"
        }
      ],
      "stateMutability": "view",
      "type": "function"
    },
    {
      "inputs": [],
      "name": "minMultiplier",
      "outputs": [
        {
          "internalType": "uint256",
          "name": "",
          "type": "uint256"
        }
      ],
      "stateMutability": "view",
      "type": "function"
    },
    {
      "inputs": [],
      "name": "owner",
      "outputs": [
        {
          "internalType": "address",
          "name": "",
          "type": "address"
        }
      ],
      "stateMutability": "view",
      "type": "function"
    },
    {
      "inputs": [
        {
          "internalType": "address",
          "name": "",
          "type": "address"
        }
      ],
      "name": "pendingIdsPerPlayer",
      "outputs": [
        {
          "internalType": "uint256",
          "name": "",
          "type": "uint256"
        }
      ],
      "stateMutability": "view",
      "type": "function"
    },
    {
      "inputs": [],
      "name": "permit2",
      "outputs": [
        {
          "internalType": "contract ISignatureTransfer",
          "name": "",
          "type": "address"
        }
      ],
      "stateMutability": "view",
      "type": "function"
    },
    {
      "inputs": [
        {
          "internalType": "uint256",
          "name": "multiplierChoice",
          "type": "uint256"
        },
        {
          "components": [
            {
              "components": [
                {
                  "internalType": "address",
                  "name": "token",
                  "type": "address"
                },
                {
                  "internalType": "uint256",
                  "name": "amount",
                  "type": "uint256"
                }
              ],
              "internalType": "struct ISignatureTransfer.TokenPermissions",
              "name": "permitted",
              "type": "tuple"
            },
            {
              "internalType": "uint256",
              "name": "nonce",
              "type": "uint256"
            },
            {
              "internalType": "uint256",
              "name": "deadline",
              "type": "uint256"
            }
          ],
          "internalType": "struct ISignatureTransfer.PermitTransferFrom",
          "name": "permit",
          "type": "tuple"
        },
        {
          "components": [
            {
              "internalType": "address",
              "name": "to",
              "type": "address"
            },
            {
              "internalType": "uint256",
              "name": "requestedAmount",
              "type": "uint256"
            }
          ],
          "internalType": "struct ISignatureTransfer.SignatureTransferDetails",
          "name": "transferDetails",
          "type": "tuple"
        },
        {
          "internalType": "bytes",
          "name": "signature",
          "type": "bytes"
        }
      ],
      "name": "placeBet",
      "outputs": [],
      "stateMutability": "nonpayable",
      "type": "function"
    },
    {
      "inputs": [
        {
          "internalType": "uint256",
          "name": "multiplier",
          "type": "uint256"
        }
      ],
      "name": "playFree",
      "outputs": [
        {
          "internalType": "uint256",
          "name": "",
          "type": "uint256"
        },
        {
          "internalType": "bool",
          "name": "",
          "type": "bool"
        }
      ],
      "stateMutability": "view",
      "type": "function"
    },
    {
      "inputs": [
        {
          "internalType": "address",
          "name": "",
          "type": "address"
        }
      ],
      "name": "playerInfo",
      "outputs": [
        {
          "internalType": "uint32",
          "name": "totalBets",
          "type": "uint32"
        },
        {
          "internalType": "uint256",
          "name": "totalValue",
          "type": "uint256"
        },
        {
          "internalType": "uint256",
          "name": "points",
          "type": "uint256"
        }
      ],
      "stateMutability": "view",
      "type": "function"
    },
    {
      "inputs": [
        {
          "internalType": "uint256",
          "name": "betId",
          "type": "uint256"
        }
      ],
      "name": "refundBet",
      "outputs": [],
      "stateMutability": "nonpayable",
      "type": "function"
    },
    {
      "inputs": [],
      "name": "renounceOwnership",
      "outputs": [],
      "stateMutability": "nonpayable",
      "type": "function"
    },
    {
      "inputs": [
        {
          "internalType": "uint256",
          "name": "_explosionRate",
          "type": "uint256"
        }
      ],
      "name": "setExplosionRate",
      "outputs": [],
      "stateMutability": "nonpayable",
      "type": "function"
    },
    {
      "inputs": [
        {
          "internalType": "address",
          "name": "token",
          "type": "address"
        },
        {
          "internalType": "uint256",
          "name": "_houseEdgeBP",
          "type": "uint256"
        }
      ],
      "name": "setHouseEdgeBP",
      "outputs": [],
      "stateMutability": "nonpayable",
      "type": "function"
    },
    {
      "inputs": [
        {
          "internalType": "address",
          "name": "token",
          "type": "address"
        },
        {
          "internalType": "uint128",
          "name": "_maxBetAmount",
          "type": "uint128"
        }
      ],
      "name": "setMaxBetAmount",
      "outputs": [],
      "stateMutability": "nonpayable",
      "type": "function"
    },
    {
      "inputs": [
        {
          "internalType": "uint256",
          "name": "_maxMultiplier",
          "type": "uint256"
        }
      ],
      "name": "setMaxMultiplier",
      "outputs": [],
      "stateMutability": "nonpayable",
      "type": "function"
    },
    {
      "inputs": [
        {
          "internalType": "address",
          "name": "token",
          "type": "address"
        },
        {
          "internalType": "uint128",
          "name": "_minBetAmount",
          "type": "uint128"
        }
      ],
      "name": "setMinBetAmount",
      "outputs": [],
      "stateMutability": "nonpayable",
      "type": "function"
    },
    {
      "inputs": [
        {
          "internalType": "uint256",
          "name": "_minMultiplier",
          "type": "uint256"
        }
      ],
      "name": "setMinMultiplier",
      "outputs": [],
      "stateMutability": "nonpayable",
      "type": "function"
    },
    {
      "inputs": [
        {
          "internalType": "address",
          "name": "",
          "type": "address"
        }
      ],
      "name": "supportedTokenInfo",
      "outputs": [
        {
          "internalType": "uint128",
          "name": "minBetAmount",
          "type": "uint128"
        },
        {
          "internalType": "uint128",
          "name": "maxBetAmount",
          "type": "uint128"
        },
        {
          "internalType": "uint256",
          "name": "houseEdgeBP",
          "type": "uint256"
        }
      ],
      "stateMutability": "view",
      "type": "function"
    },
    {
      "inputs": [],
      "name": "toggleGameIsLive",
      "outputs": [],
      "stateMutability": "nonpayable",
      "type": "function"
    },
    {
      "inputs": [
        {
          "internalType": "address",
          "name": "newOwner",
          "type": "address"
        }
      ],
      "name": "transferOwnership",
      "outputs": [],
      "stateMutability": "nonpayable",
      "type": "function"
    },
    {
      "inputs": [
        {
          "internalType": "address",
          "name": "beneficiary",
          "type": "address"
        },
        {
          "internalType": "uint256",
          "name": "withdrawAmount",
          "type": "uint256"
        },
        {
          "internalType": "address",
          "name": "token",
          "type": "address"
        }
      ],
      "name": "withdrawCustomTokenFunds",
      "outputs": [],
      "stateMutability": "nonpayable",
      "type": "function"
    }
  ],
  "bytecode": "0x6080604052606460015561271060025560016006556e22d473030f116ddee9f6b43ac78ba3600760006101000a81548173ffffffffffffffffffffffffffffffffffffffff021916908373ffffffffffffffffffffffffffffffffffffffff16021790555034801561007057600080fd5b503333600073ffffffffffffffffffffffffffffffffffffffff168173ffffffffffffffffffffffffffffffffffffffff16036100e55760006040517f1e4fbdf70000000000000000000000000000000000000000000000000000000081526004016100dc9190610258565b60405180910390fd5b6100f48161015360201b60201c565b50506001600a60003373ffffffffffffffffffffffffffffffffffffffff1673ffffffffffffffffffffffffffffffffffffffff16815260200190815260200160002060006101000a81548160ff021916908315150217905550610273565b60008060009054906101000a900473ffffffffffffffffffffffffffffffffffffffff169050816000806101000a81548173ffffffffffffffffffffffffffffffffffffffff021916908373ffffffffffffffffffffffffffffffffffffffff1602179055508173ffffffffffffffffffffffffffffffffffffffff168173ffffffffffffffffffffffffffffffffffffffff167f8be0079c531659141344cd1fd0a4f28419497f9722a3daafe3b4186f6b6457e060405160405180910390a35050565b600073ffffffffffffffffffffffffffffffffffffffff82169050919050565b600061024282610217565b9050919050565b61025281610237565b82525050565b600060208201905061026d6000830184610249565b92915050565b6146b6806102826000396000f3fe608060405234801561001057600080fd5b50600436106101e55760003560e01c80639f2428fe1161010f578063bbd2e01e116100a2578063e713814311610071578063e71381431461058a578063eaf07c8c146105bc578063efcb3b21146105ec578063f2fde38b1461060a576101e5565b8063bbd2e01e14610502578063c09338a814610520578063d414d0c214610550578063e1fdb4b41461056e576101e5565b8063a24e0d87116100de578063a24e0d8714610490578063a7af380c146104ae578063b14c8009146104ca578063b7dc5752146104e6576101e5565b80639f2428fe146104325780639fd751c71461044e578063a045a6fc1461046a578063a147722714610474576101e5565b80635708e09f11610187578063715018a611610156578063715018a6146103bc5780637bbf4a3f146103c657806381c8ec1b146103f65780638da5cb5b14610414576101e5565b80635708e09f146102f9578063572613981461032a578063593284011461035a578063621999be1461038c576101e5565b806309076344116101c3578063090763441461025657806312261ee71461027257806322af00fa146102905780634b114691146102c7576101e5565b806301526a43146101ea5780630187aea0146102065780630267957614610224575b600080fd5b61020460048036038101906101ff9190612e62565b610626565b005b61020e610638565b60405161021b9190612e9e565b60405180910390f35b61023e60048036038101906102399190612eb9565b61063e565b60405161024d93929190612ef9565b60405180910390f35b610270600480360381019061026b9190612f8e565b610927565b005b61027a6109d0565b604051610287919061302d565b60405180910390f35b6102aa60048036038101906102a59190612e62565b6109f6565b6040516102be9897969594939291906130ee565b60405180910390f35b6102e160048036038101906102dc919061316c565b610b17565b6040516102f0939291906131b8565b60405180910390f35b610313600480360381019061030e9190612e62565b610b51565b6040516103219291906131ef565b60405180910390f35b610344600480360381019061033f919061316c565b610c21565b6040516103519190612e9e565b60405180910390f35b610374600480360381019061036f919061316c565b610c39565b60405161038393929190612ef9565b60405180910390f35b6103a660048036038101906103a1919061324e565b610d2d565b6040516103b39190612e9e565b60405180910390f35b6103c4610d5e565b005b6103e060048036038101906103db919061316c565b610d72565b6040516103ed919061328e565b60405180910390f35b6103fe610d92565b60405161040b9190612e9e565b60405180910390f35b61041c610d98565b60405161042991906132a9565b60405180910390f35b61044c60048036038101906104479190613492565b610dc1565b005b61046860048036038101906104639190612e62565b61164d565b005b61047261165f565b005b61048e60048036038101906104899190613547565b611693565b005b6104986117dc565b6040516104a59190612e9e565b60405180910390f35b6104c860048036038101906104c39190613547565b6117e2565b005b6104e460048036038101906104df9190613587565b61192b565b005b61050060048036038101906104fb9190612e62565b611a73565b005b61050a611a85565b6040516105179190612e9e565b60405180910390f35b61053a600480360381019061053591906136c9565b611a92565b60405161054791906138c2565b60405180910390f35b610558611ffc565b604051610565919061328e565b60405180910390f35b61058860048036038101906105839190612e62565b61200f565b005b6105a4600480360381019061059f919061316c565b61242e565b6040516105b3939291906138e4565b60405180910390f35b6105d660048036038101906105d1919061316c565b612490565b6040516105e391906139d9565b60405180910390f35b6105f461252a565b6040516106019190612e9e565b60405180910390f35b610624600480360381019061061f919061316c565b6125aa565b005b61062e612630565b8060028190555050565b60025481565b6000806000600a60003373ffffffffffffffffffffffffffffffffffffffff1673ffffffffffffffffffffffffffffffffffffffff16815260200190815260200160002060009054906101000a900460ff166106cf576040517f08c379a00000000000000000000000000000000000000000000000000000000081526004016106c690613a58565b60405180910390fd5b6000600386815481106106e5576106e4613a78565b5b9060005260206000209060040201905060008160010160009054906101000a90046fffffffffffffffffffffffffffffffff166fffffffffffffffffffffffffffffffff16148061074b5750600115158160030160149054906101000a900460ff161515145b1561076157600080600093509350935050610920565b600085424484600001600a9054906101000a900475ffffffffffffffffffffffffffffffffffffffffffff1675ffffffffffffffffffffffffffffffffffffffffffff16406040516020016107b99493929190613ab6565b6040516020818303038152906040528051906020012060001c905060006064826107e39190613b2a565b90506006548111610829576107f883896126b7565b8260000160009054906101000a900464ffffffffff166000808264ffffffffff169250955095509550505050610920565b60006001805460025461083c9190613b8a565b6108469190613bbe565b836108519190613b2a565b9050600060646002546108649190613bf2565b90506000826064836108769190613c23565b6108809190613b8a565b836002548461088f9190613c23565b6108999190613b8a565b6108a39190613bf2565b9050600860008154809291906108b890613c65565b91905055508560010160009054906101000a90046fffffffffffffffffffffffffffffffff166fffffffffffffffffffffffffffffffff16600960008282546109019190613bbe565b92505081905550610913868c83612878565b9850985098505050505050505b9250925092565b61092f612630565b60001515600060149054906101000a900460ff16151514610985576040517f08c379a000000000000000000000000000000000000000000000000000000000815260040161097c90613cf9565b60405180910390fd5b80600460008473ffffffffffffffffffffffffffffffffffffffff1673ffffffffffffffffffffffffffffffffffffffff168152602001908152602001600020600101819055505050565b600760009054906101000a900473ffffffffffffffffffffffffffffffffffffffff1681565b60038181548110610a0657600080fd5b90600052602060002090600402016000915090508060000160009054906101000a900464ffffffffff16908060000160059054906101000a900464ffffffffff169080600001600a9054906101000a900475ffffffffffffffffffffffffffffffffffffffffffff16908060010160009054906101000a90046fffffffffffffffffffffffffffffffff16908060010160109054906101000a90046fffffffffffffffffffffffffffffffff16908060020160009054906101000a900473ffffffffffffffffffffffffffffffffffffffff16908060030160009054906101000a900473ffffffffffffffffffffffffffffffffffffffff16908060030160149054906101000a900460ff16905088565b600c6020528060005260406000206000915090508060000160009054906101000a900463ffffffff16908060010154908060020154905083565b60008060004244600143610b659190613b8a565b40604051602001610b7893929190613d19565b6040516020818303038152906040528051906020012060001c9050600060018054600254610ba69190613b8a565b610bb09190613bbe565b82610bbb9190613b2a565b905060006064600254610bce9190613bf2565b9050600082606483610be09190613c23565b610bea9190613b8a565b8360025484610bf99190613c23565b610c039190613b8a565b610c0d9190613bf2565b905080818811159550955050505050915091565b600b6020528060005260406000206000915090505481565b6000806000600c60008573ffffffffffffffffffffffffffffffffffffffff1673ffffffffffffffffffffffffffffffffffffffff16815260200190815260200160002060000160009054906101000a900463ffffffff16600c60008673ffffffffffffffffffffffffffffffffffffffff1673ffffffffffffffffffffffffffffffffffffffff16815260200190815260200160002060010154600c60008773ffffffffffffffffffffffffffffffffffffffff1673ffffffffffffffffffffffffffffffffffffffff168152602001908152602001600020600201548263ffffffff1692509250925092509193909250565b60056020528160005260406000208181548110610d4957600080fd5b90600052602060002001600091509150505481565b610d66612630565b610d706000612bec565b565b600a6020528060005260406000206000915054906101000a900460ff1681565b60065481565b60008060009054906101000a900473ffffffffffffffffffffffffffffffffffffffff16905090565b60008460000151600001519050600085600001516020015190506000339050600060149054906101000a900460ff16610e2f576040517f08c379a0000000000000000000000000000000000000000000000000000000008152600401610e2690613d9c565b60405180910390fd5b87600154108015610e4257506002548811155b610e81576040517f08c379a0000000000000000000000000000000000000000000000000000000008152600401610e7890613e08565b60405180910390fd5b600073ffffffffffffffffffffffffffffffffffffffff168373ffffffffffffffffffffffffffffffffffffffff1603610ef0576040517f08c379a0000000000000000000000000000000000000000000000000000000008152600401610ee790613e74565b60405180910390fd5b600460008473ffffffffffffffffffffffffffffffffffffffff1673ffffffffffffffffffffffffffffffffffffffff16815260200190815260200160002060000160009054906101000a90046fffffffffffffffffffffffffffffffff166fffffffffffffffffffffffffffffffff168210158015610fe05750600460008473ffffffffffffffffffffffffffffffffffffffff1673ffffffffffffffffffffffffffffffffffffffff16815260200190815260200160002060000160109054906101000a90046fffffffffffffffffffffffffffffffff166fffffffffffffffffffffffffffffffff168211155b61101f576040517f08c379a000000000000000000000000000000000000000000000000000000000815260040161101690613ee0565b60405180910390fd5b6000600b60008373ffffffffffffffffffffffffffffffffffffffff1673ffffffffffffffffffffffffffffffffffffffff16815260200190815260200160002054146110a1576040517f08c379a000000000000000000000000000000000000000000000000000000000815260040161109890613f4c565b60405180910390fd5b600760009054906101000a900473ffffffffffffffffffffffffffffffffffffffff1673ffffffffffffffffffffffffffffffffffffffff166330f28b7a88883389896040518663ffffffff1660e01b8152600401611104959493929190614097565b600060405180830381600087803b15801561111e57600080fd5b505af1158015611132573d6000803e3d6000fd5b505050506000600160038054905061114a9190613bbe565b9050600c60008373ffffffffffffffffffffffffffffffffffffffff1673ffffffffffffffffffffffffffffffffffffffff168152602001908152602001600020600001600081819054906101000a900463ffffffff16809291906111ae906140e6565b91906101000a81548163ffffffff021916908363ffffffff1602179055505082600c60008473ffffffffffffffffffffffffffffffffffffffff1673ffffffffffffffffffffffffffffffffffffffff168152602001908152602001600020600101600082825461121f9190613bbe565b9250508190555060018960016112359190613c23565b61123f9190613b8a565b600c60008473ffffffffffffffffffffffffffffffffffffffff1673ffffffffffffffffffffffffffffffffffffffff16815260200190815260200160002060020160008282546112909190613bbe565b92505081905550600c60008373ffffffffffffffffffffffffffffffffffffffff1673ffffffffffffffffffffffffffffffffffffffff16815260200190815260200160002060030181908060018154018082558091505060019003906000526020600020016000909190919091505580600b60008473ffffffffffffffffffffffffffffffffffffffff1673ffffffffffffffffffffffffffffffffffffffff168152602001908152602001600020819055508173ffffffffffffffffffffffffffffffffffffffff16817f0c8bcdba2d7eab17e989c0f1127e932c79e9d78a8420f1be088be84be6d76fe8858c8860405161138f93929190614112565b60405180910390a360036040518061010001604052808b64ffffffffff168152602001600064ffffffffff1681526020014375ffffffffffffffffffffffffffffffffffffffffffff168152602001856fffffffffffffffffffffffffffffffff16815260200160006fffffffffffffffffffffffffffffffff1681526020018473ffffffffffffffffffffffffffffffffffffffff1681526020018673ffffffffffffffffffffffffffffffffffffffff16815260200160001515815250908060018154018082558091505060019003906000526020600020906004020160009091909190915060008201518160000160006101000a81548164ffffffffff021916908364ffffffffff16021790555060208201518160000160056101000a81548164ffffffffff021916908364ffffffffff160217905550604082015181600001600a6101000a81548175ffffffffffffffffffffffffffffffffffffffffffff021916908375ffffffffffffffffffffffffffffffffffffffffffff16021790555060608201518160010160006101000a8154816fffffffffffffffffffffffffffffffff02191690836fffffffffffffffffffffffffffffffff16021790555060808201518160010160106101000a8154816fffffffffffffffffffffffffffffffff02191690836fffffffffffffffffffffffffffffffff16021790555060a08201518160020160006101000a81548173ffffffffffffffffffffffffffffffffffffffff021916908373ffffffffffffffffffffffffffffffffffffffff16021790555060c08201518160030160006101000a81548173ffffffffffffffffffffffffffffffffffffffff021916908373ffffffffffffffffffffffffffffffffffffffff16021790555060e08201518160030160146101000a81548160ff0219169083151502179055505050505050505050505050565b611655612630565b8060018190555050565b611667612630565b600060149054906101000a900460ff1615600060146101000a81548160ff021916908315150217905550565b61169b612630565b600460008373ffffffffffffffffffffffffffffffffffffffff1673ffffffffffffffffffffffffffffffffffffffff16815260200190815260200160002060000160009054906101000a90046fffffffffffffffffffffffffffffffff166fffffffffffffffffffffffffffffffff16816fffffffffffffffffffffffffffffffff161161175f576040517f08c379a0000000000000000000000000000000000000000000000000000000008152600401611756906141bb565b60405180910390fd5b80600460008473ffffffffffffffffffffffffffffffffffffffff1673ffffffffffffffffffffffffffffffffffffffff16815260200190815260200160002060000160106101000a8154816fffffffffffffffffffffffffffffffff02191690836fffffffffffffffffffffffffffffffff1602179055505050565b60015481565b6117ea612630565b600460008373ffffffffffffffffffffffffffffffffffffffff1673ffffffffffffffffffffffffffffffffffffffff16815260200190815260200160002060000160109054906101000a90046fffffffffffffffffffffffffffffffff166fffffffffffffffffffffffffffffffff16816fffffffffffffffffffffffffffffffff16106118ae576040517f08c379a00000000000000000000000000000000000000000000000000000000081526004016118a59061424d565b60405180910390fd5b80600460008473ffffffffffffffffffffffffffffffffffffffff1673ffffffffffffffffffffffffffffffffffffffff16815260200190815260200160002060000160006101000a8154816fffffffffffffffffffffffffffffffff02191690836fffffffffffffffffffffffffffffffff1602179055505050565b611933612630565b8073ffffffffffffffffffffffffffffffffffffffff166370a08231306040518263ffffffff1660e01b815260040161196c91906132a9565b602060405180830381865afa158015611989573d6000803e3d6000fd5b505050506040513d601f19601f820116820180604052508101906119ad9190614282565b8211156119ef576040517f08c379a00000000000000000000000000000000000000000000000000000000081526004016119e6906142fb565b60405180910390fd5b8073ffffffffffffffffffffffffffffffffffffffff1663a9059cbb84846040518363ffffffff1660e01b8152600401611a2a92919061431b565b6020604051808303816000875af1158015611a49573d6000803e3d6000fd5b505050506040513d601f19601f82011682018060405250810190611a6d9190614359565b50505050565b611a7b612630565b8060068190555050565b6000600380549050905090565b60608115611d03576003805480602002602001604051908101604052809291908181526020016000905b82821015611cf85783829060005260206000209060040201604051806101000160405290816000820160009054906101000a900464ffffffffff1664ffffffffff1664ffffffffff1681526020016000820160059054906101000a900464ffffffffff1664ffffffffff1664ffffffffff16815260200160008201600a9054906101000a900475ffffffffffffffffffffffffffffffffffffffffffff1675ffffffffffffffffffffffffffffffffffffffffffff1675ffffffffffffffffffffffffffffffffffffffffffff1681526020016001820160009054906101000a90046fffffffffffffffffffffffffffffffff166fffffffffffffffffffffffffffffffff166fffffffffffffffffffffffffffffffff1681526020016001820160109054906101000a90046fffffffffffffffffffffffffffffffff166fffffffffffffffffffffffffffffffff166fffffffffffffffffffffffffffffffff1681526020016002820160009054906101000a900473ffffffffffffffffffffffffffffffffffffffff1673ffffffffffffffffffffffffffffffffffffffff1673ffffffffffffffffffffffffffffffffffffffff1681526020016003820160009054906101000a900473ffffffffffffffffffffffffffffffffffffffff1673ffffffffffffffffffffffffffffffffffffffff1673ffffffffffffffffffffffffffffffffffffffff1681526020016003820160149054906101000a900460ff16151515158152505081526020019060010190611abc565b505050509050611ff6565b60008351905060008167ffffffffffffffff811115611d2557611d246132da565b5b604051908082528060200260200182016040528015611d5e57816020015b611d4b612d5b565b815260200190600190039081611d435790505b50905060005b8551811015611fef5760006003878381518110611d8457611d83613a78565b5b602002602001015181548110611d9d57611d9c613a78565b5b9060005260206000209060040201905080604051806101000160405290816000820160009054906101000a900464ffffffffff1664ffffffffff1664ffffffffff1681526020016000820160059054906101000a900464ffffffffff1664ffffffffff1664ffffffffff16815260200160008201600a9054906101000a900475ffffffffffffffffffffffffffffffffffffffffffff1675ffffffffffffffffffffffffffffffffffffffffffff1675ffffffffffffffffffffffffffffffffffffffffffff1681526020016001820160009054906101000a90046fffffffffffffffffffffffffffffffff166fffffffffffffffffffffffffffffffff166fffffffffffffffffffffffffffffffff1681526020016001820160109054906101000a90046fffffffffffffffffffffffffffffffff166fffffffffffffffffffffffffffffffff166fffffffffffffffffffffffffffffffff1681526020016002820160009054906101000a900473ffffffffffffffffffffffffffffffffffffffff1673ffffffffffffffffffffffffffffffffffffffff1673ffffffffffffffffffffffffffffffffffffffff1681526020016003820160009054906101000a900473ffffffffffffffffffffffffffffffffffffffff1673ffffffffffffffffffffffffffffffffffffffff1673ffffffffffffffffffffffffffffffffffffffff1681526020016003820160149054906101000a900460ff161515151581525050838381518110611fd657611fd5613a78565b5b6020026020010181905250508080600101915050611d64565b5080925050505b92915050565b600060149054906101000a900460ff1681565b612017612630565b600060149054906101000a900460ff16612066576040517f08c379a000000000000000000000000000000000000000000000000000000000815260040161205d90613d9c565b60405180910390fd5b60006003828154811061207c5761207b613a78565b5b9060005260206000209060040201905060008160010160009054906101000a90046fffffffffffffffffffffffffffffffff166fffffffffffffffffffffffffffffffff16905060008111612106576040517f08c379a00000000000000000000000000000000000000000000000000000000081526004016120fd906143d2565b60405180910390fd5b600015158260030160149054906101000a900460ff1615151461215e576040517f08c379a00000000000000000000000000000000000000000000000000000000081526004016121559061443e565b60405180910390fd5b61546082600001600a9054906101000a900475ffffffffffffffffffffffffffffffffffffffffffff16612192919061445e565b75ffffffffffffffffffffffffffffffffffffffffffff1643116121eb576040517f08c379a00000000000000000000000000000000000000000000000000000000081526004016121e2906144f4565b60405180910390fd5b60008260030160009054906101000a900473ffffffffffffffffffffffffffffffffffffffff169050600061223d838560000160009054906101000a900464ffffffffff1664ffffffffff1684612cb0565b9050600061224b8484612ce1565b905060018560030160146101000a81548160ff021916908315150217905550808560010160106101000a8154816fffffffffffffffffffffffffffffffff02191690836fffffffffffffffffffffffffffffffff1602179055508273ffffffffffffffffffffffffffffffffffffffff1663a9059cbb8660020160009054906101000a900473ffffffffffffffffffffffffffffffffffffffff16836040518363ffffffff1660e01b815260040161230492919061431b565b6020604051808303816000875af1158015612323573d6000803e3d6000fd5b505050506040513d601f19601f820116820180604052508101906123479190614359565b506000600b60008760020160009054906101000a900473ffffffffffffffffffffffffffffffffffffffff1673ffffffffffffffffffffffffffffffffffffffff1673ffffffffffffffffffffffffffffffffffffffff168152602001908152602001600020819055508460020160009054906101000a900473ffffffffffffffffffffffffffffffffffffffff1673ffffffffffffffffffffffffffffffffffffffff16867fb27522330a91a6a320aeeac4733cad91c61b5384667c37acb1855ace8dc34e50838660405161241e929190614514565b60405180910390a3505050505050565b60046020528060005260406000206000915090508060000160009054906101000a90046fffffffffffffffffffffffffffffffff16908060000160109054906101000a90046fffffffffffffffffffffffffffffffff16908060010154905083565b6060600c60008373ffffffffffffffffffffffffffffffffffffffff1673ffffffffffffffffffffffffffffffffffffffff16815260200190815260200160002060030180548060200260200160405190810160405280929190818152602001828054801561251e57602002820191906000526020600020905b81548152602001906001019080831161250a575b50505050509050919050565b60008060005b600380549050811015612595576003818154811061255157612550613a78565b5b906000526020600020906004020160000160009054906101000a900464ffffffffff1664ffffffffff16826125869190613bbe565b91508080600101915050612530565b50600854816125a49190613bf2565b91505090565b6125b2612630565b600073ffffffffffffffffffffffffffffffffffffffff168173ffffffffffffffffffffffffffffffffffffffff16036126245760006040517f1e4fbdf700000000000000000000000000000000000000000000000000000000815260040161261b91906132a9565b60405180910390fd5b61262d81612bec565b50565b612638612d53565b73ffffffffffffffffffffffffffffffffffffffff16612656610d98565b73ffffffffffffffffffffffffffffffffffffffff16146126b557612679612d53565b6040517f118cdaa70000000000000000000000000000000000000000000000000000000081526004016126ac91906132a9565b60405180910390fd5b565b6000600b60008460020160009054906101000a900473ffffffffffffffffffffffffffffffffffffffff1673ffffffffffffffffffffffffffffffffffffffff1673ffffffffffffffffffffffffffffffffffffffff1681526020019081526020016000208190555060018260030160146101000a81548160ff02191690831515021790555060008260010160106101000a8154816fffffffffffffffffffffffffffffffff02191690836fffffffffffffffffffffffffffffffff16021790555060008260000160056101000a81548164ffffffffff021916908364ffffffffff1602179055508160020160009054906101000a900473ffffffffffffffffffffffffffffffffffffffff1673ffffffffffffffffffffffffffffffffffffffff16817ff99272e1d36cae740970460b7b47c8a54e11634eef2bd87a7ef96fc21c10185f8460010160009054906101000a90046fffffffffffffffffffffffffffffffff168560000160009054906101000a900464ffffffffff166000808860030160009054906101000a900473ffffffffffffffffffffffffffffffffffffffff1660405161286c9594939291906145da565b60405180910390a35050565b6000806000806128fb8760010160009054906101000a90046fffffffffffffffffffffffffffffffff166fffffffffffffffffffffffffffffffff168860000160009054906101000a900464ffffffffff1664ffffffffff168960030160009054906101000a900473ffffffffffffffffffffffffffffffffffffffff16612cb0565b90506000858860000160009054906101000a900464ffffffffff1664ffffffffff16111561292a57600061292c565b815b90506000600b60008a60020160009054906101000a900473ffffffffffffffffffffffffffffffffffffffff1673ffffffffffffffffffffffffffffffffffffffff1673ffffffffffffffffffffffffffffffffffffffff1681526020019081526020016000208190555060018860030160146101000a81548160ff021916908315150217905550808860010160106101000a8154816fffffffffffffffffffffffffffffffff02191690836fffffffffffffffffffffffffffffffff160217905550858860000160056101000a81548164ffffffffff021916908364ffffffffff1602179055506000811115612ae5578760030160009054906101000a900473ffffffffffffffffffffffffffffffffffffffff1673ffffffffffffffffffffffffffffffffffffffff1663a9059cbb8960020160009054906101000a900473ffffffffffffffffffffffffffffffffffffffff16846040518363ffffffff1660e01b8152600401612aa092919061431b565b6020604051808303816000875af1158015612abf573d6000803e3d6000fd5b505050506040513d601f19601f82011682018060405250810190612ae39190614359565b505b8760020160009054906101000a900473ffffffffffffffffffffffffffffffffffffffff1673ffffffffffffffffffffffffffffffffffffffff16877ff99272e1d36cae740970460b7b47c8a54e11634eef2bd87a7ef96fc21c10185f8a60010160009054906101000a90046fffffffffffffffffffffffffffffffff168b60000160009054906101000a900464ffffffffff168a868e60030160009054906101000a900473ffffffffffffffffffffffffffffffffffffffff16604051612bb195949392919061462d565b60405180910390a38760000160009054906101000a900464ffffffffff1686828264ffffffffff169250945094509450505093509350939050565b60008060009054906101000a900473ffffffffffffffffffffffffffffffffffffffff169050816000806101000a81548173ffffffffffffffffffffffffffffffffffffffff021916908373ffffffffffffffffffffffffffffffffffffffff1602179055508173ffffffffffffffffffffffffffffffffffffffff168173ffffffffffffffffffffffffffffffffffffffff167f8be0079c531659141344cd1fd0a4f28419497f9722a3daafe3b4186f6b6457e060405160405180910390a35050565b600080612cbd8584612ce1565b905060648482612ccd9190613c23565b612cd79190613bf2565b9150509392505050565b6000612710600460008473ffffffffffffffffffffffffffffffffffffffff1673ffffffffffffffffffffffffffffffffffffffff16815260200190815260200160002060010154612710612d369190613b8a565b84612d419190613c23565b612d4b9190613bf2565b905092915050565b600033905090565b604051806101000160405280600064ffffffffff168152602001600064ffffffffff168152602001600075ffffffffffffffffffffffffffffffffffffffffffff16815260200160006fffffffffffffffffffffffffffffffff16815260200160006fffffffffffffffffffffffffffffffff168152602001600073ffffffffffffffffffffffffffffffffffffffff168152602001600073ffffffffffffffffffffffffffffffffffffffff1681526020016000151581525090565b6000604051905090565b600080fd5b600080fd5b6000819050919050565b612e3f81612e2c565b8114612e4a57600080fd5b50565b600081359050612e5c81612e36565b92915050565b600060208284031215612e7857612e77612e22565b5b6000612e8684828501612e4d565b91505092915050565b612e9881612e2c565b82525050565b6000602082019050612eb36000830184612e8f565b92915050565b60008060408385031215612ed057612ecf612e22565b5b6000612ede85828601612e4d565b9250506020612eef85828601612e4d565b9150509250929050565b6000606082019050612f0e6000830186612e8f565b612f1b6020830185612e8f565b612f286040830184612e8f565b949350505050565b600073ffffffffffffffffffffffffffffffffffffffff82169050919050565b6000612f5b82612f30565b9050919050565b612f6b81612f50565b8114612f7657600080fd5b50565b600081359050612f8881612f62565b92915050565b60008060408385031215612fa557612fa4612e22565b5b6000612fb385828601612f79565b9250506020612fc485828601612e4d565b9150509250929050565b6000819050919050565b6000612ff3612fee612fe984612f30565b612fce565b612f30565b9050919050565b600061300582612fd8565b9050919050565b600061301782612ffa565b9050919050565b6130278161300c565b82525050565b6000602082019050613042600083018461301e565b92915050565b600064ffffffffff82169050919050565b61306281613048565b82525050565b600075ffffffffffffffffffffffffffffffffffffffffffff82169050919050565b61309381613068565b82525050565b60006fffffffffffffffffffffffffffffffff82169050919050565b6130be81613099565b82525050565b6130cd81612f50565b82525050565b60008115159050919050565b6130e8816130d3565b82525050565b600061010082019050613104600083018b613059565b613111602083018a613059565b61311e604083018961308a565b61312b60608301886130b5565b61313860808301876130b5565b61314560a08301866130c4565b61315260c08301856130c4565b61315f60e08301846130df565b9998505050505050505050565b60006020828403121561318257613181612e22565b5b600061319084828501612f79565b91505092915050565b600063ffffffff82169050919050565b6131b281613199565b82525050565b60006060820190506131cd60008301866131a9565b6131da6020830185612e8f565b6131e76040830184612e8f565b949350505050565b60006040820190506132046000830185612e8f565b61321160208301846130df565b9392505050565b6000819050919050565b61322b81613218565b811461323657600080fd5b50565b60008135905061324881613222565b92915050565b6000806040838503121561326557613264612e22565b5b600061327385828601613239565b925050602061328485828601612e4d565b9150509250929050565b60006020820190506132a360008301846130df565b92915050565b60006020820190506132be60008301846130c4565b92915050565b600080fd5b6000601f19601f8301169050919050565b7f4e487b7100000000000000000000000000000000000000000000000000000000600052604160045260246000fd5b613312826132c9565b810181811067ffffffffffffffff82111715613331576133306132da565b5b80604052505050565b6000613344612e18565b90506133508282613309565b919050565b60006040828403121561336b5761336a6132c4565b5b613375604061333a565b9050600061338584828501612f79565b600083015250602061339984828501612e4d565b60208301525092915050565b6000608082840312156133bb576133ba6132c4565b5b6133c5606061333a565b905060006133d584828501613355565b60008301525060406133e984828501612e4d565b60208301525060606133fd84828501612e4d565b60408301525092915050565b600080fd5b60006040828403121561342457613423613409565b5b81905092915050565b600080fd5b600080fd5b600080fd5b60008083601f8401126134525761345161342d565b5b8235905067ffffffffffffffff81111561346f5761346e613432565b5b60208301915083600182028301111561348b5761348a613437565b5b9250929050565b600080600080600061010086880312156134af576134ae612e22565b5b60006134bd88828901612e4d565b95505060206134ce888289016133a5565b94505060a06134df8882890161340e565b93505060e086013567ffffffffffffffff811115613500576134ff612e27565b5b61350c8882890161343c565b92509250509295509295909350565b61352481613099565b811461352f57600080fd5b50565b6000813590506135418161351b565b92915050565b6000806040838503121561355e5761355d612e22565b5b600061356c85828601612f79565b925050602061357d85828601613532565b9150509250929050565b6000806000606084860312156135a05761359f612e22565b5b60006135ae86828701612f79565b93505060206135bf86828701612e4d565b92505060406135d086828701612f79565b9150509250925092565b600067ffffffffffffffff8211156135f5576135f46132da565b5b602082029050602081019050919050565b6000613619613614846135da565b61333a565b9050808382526020820190506020840283018581111561363c5761363b613437565b5b835b8181101561366557806136518882612e4d565b84526020840193505060208101905061363e565b5050509392505050565b600082601f8301126136845761368361342d565b5b8135613694848260208601613606565b91505092915050565b6136a6816130d3565b81146136b157600080fd5b50565b6000813590506136c38161369d565b92915050565b600080604083850312156136e0576136df612e22565b5b600083013567ffffffffffffffff8111156136fe576136fd612e27565b5b61370a8582860161366f565b925050602061371b858286016136b4565b9150509250929050565b600081519050919050565b600082825260208201905092915050565b6000819050602082019050919050565b61375a81613048565b82525050565b61376981613068565b82525050565b61377881613099565b82525050565b61378781612f50565b82525050565b613796816130d3565b82525050565b610100820160008201516137b36000850182613751565b5060208201516137c66020850182613751565b5060408201516137d96040850182613760565b5060608201516137ec606085018261376f565b5060808201516137ff608085018261376f565b5060a082015161381260a085018261377e565b5060c082015161382560c085018261377e565b5060e082015161383860e085018261378d565b50505050565b600061384a838361379c565b6101008301905092915050565b6000602082019050919050565b600061386f82613725565b6138798185613730565b935061388483613741565b8060005b838110156138b557815161389c888261383e565b97506138a783613857565b925050600181019050613888565b5085935050505092915050565b600060208201905081810360008301526138dc8184613864565b905092915050565b60006060820190506138f960008301866130b5565b61390660208301856130b5565b6139136040830184612e8f565b949350505050565b600081519050919050565b600082825260208201905092915050565b6000819050602082019050919050565b61395081612e2c565b82525050565b60006139628383613947565b60208301905092915050565b6000602082019050919050565b60006139868261391b565b6139908185613926565b935061399b83613937565b8060005b838110156139cc5781516139b38882613956565b97506139be8361396e565b92505060018101905061399f565b5085935050505092915050565b600060208201905081810360008301526139f3818461397b565b905092915050565b600082825260208201905092915050565b7f43616c6c6572206973206e6f7420617574686f72697a65640000000000000000600082015250565b6000613a426018836139fb565b9150613a4d82613a0c565b602082019050919050565b60006020820190508181036000830152613a7181613a35565b9050919050565b7f4e487b7100000000000000000000000000000000000000000000000000000000600052603260045260246000fd5b613ab081613218565b82525050565b6000608082019050613acb6000830187612e8f565b613ad86020830186612e8f565b613ae56040830185612e8f565b613af26060830184613aa7565b95945050505050565b7f4e487b7100000000000000000000000000000000000000000000000000000000600052601260045260246000fd5b6000613b3582612e2c565b9150613b4083612e2c565b925082613b5057613b4f613afb565b5b828206905092915050565b7f4e487b7100000000000000000000000000000000000000000000000000000000600052601160045260246000fd5b6000613b9582612e2c565b9150613ba083612e2c565b9250828203905081811115613bb857613bb7613b5b565b5b92915050565b6000613bc982612e2c565b9150613bd483612e2c565b9250828201905080821115613bec57613beb613b5b565b5b92915050565b6000613bfd82612e2c565b9150613c0883612e2c565b925082613c1857613c17613afb565b5b828204905092915050565b6000613c2e82612e2c565b9150613c3983612e2c565b9250828202613c4781612e2c565b91508282048414831517613c5e57613c5d613b5b565b5b5092915050565b6000613c7082612e2c565b91507fffffffffffffffffffffffffffffffffffffffffffffffffffffffffffffffff8203613ca257613ca1613b5b565b5b600182019050919050565b7f4265747320696e2070656e64696e670000000000000000000000000000000000600082015250565b6000613ce3600f836139fb565b9150613cee82613cad565b602082019050919050565b60006020820190508181036000830152613d1281613cd6565b9050919050565b6000606082019050613d2e6000830186612e8f565b613d3b6020830185612e8f565b613d486040830184613aa7565b949350505050565b7f47616d65206973206e6f74206c69766500000000000000000000000000000000600082015250565b6000613d866010836139fb565b9150613d9182613d50565b602082019050919050565b60006020820190508181036000830152613db581613d79565b9050919050565b7f426574206d61736b206e6f7420696e2072616e67650000000000000000000000600082015250565b6000613df26015836139fb565b9150613dfd82613dbc565b602082019050919050565b60006020820190508181036000830152613e2181613de5565b9050919050565b7f546f6b656e20616464726573732063616e6e6f74206265203000000000000000600082015250565b6000613e5e6019836139fb565b9150613e6982613e28565b602082019050919050565b60006020820190508181036000830152613e8d81613e51565b9050919050565b7f42657420616d6f756e74206e6f742077697468696e2072616e67650000000000600082015250565b6000613eca601b836139fb565b9150613ed582613e94565b602082019050919050565b60006020820190508181036000830152613ef981613ebd565b9050919050565b7f596f75206861766520612070656e64696e672062657400000000000000000000600082015250565b6000613f366016836139fb565b9150613f4182613f00565b602082019050919050565b60006020820190508181036000830152613f6581613f29565b9050919050565b604082016000820151613f82600085018261377e565b506020820151613f956020850182613947565b50505050565b608082016000820151613fb16000850182613f6c565b506020820151613fc46040850182613947565b506040820151613fd76060850182613947565b50505050565b6000613fec6020840184612f79565b905092915050565b60006140036020840184612e4d565b905092915050565b6040820161401c6000830183613fdd565b614029600085018261377e565b506140376020830183613ff4565b6140446020850182613947565b50505050565b600082825260208201905092915050565b82818337600083830152505050565b6000614076838561404a565b935061408383858461405b565b61408c836132c9565b840190509392505050565b6000610100820190506140ad6000830188613f9b565b6140ba608083018761400b565b6140c760c08301866130c4565b81810360e08301526140da81848661406a565b90509695505050505050565b60006140f182613199565b915063ffffffff820361410757614106613b5b565b5b600182019050919050565b60006060820190506141276000830186612e8f565b6141346020830185612e8f565b61414160408301846130c4565b949350505050565b7f4d617820616d6f756e74206d7573742062652067726561746572207468616e2060008201527f6d696e20616d6f756e7400000000000000000000000000000000000000000000602082015250565b60006141a5602a836139fb565b91506141b082614149565b604082019050919050565b600060208201905081810360008301526141d481614198565b9050919050565b7f4d696e20616d6f756e74206d757374206265206c657373207468616e206d617860008201527f20616d6f756e7400000000000000000000000000000000000000000000000000602082015250565b60006142376027836139fb565b9150614242826141db565b604082019050919050565b600060208201905081810360008301526142668161422a565b9050919050565b60008151905061427c81612e36565b92915050565b60006020828403121561429857614297612e22565b5b60006142a68482850161426d565b91505092915050565b7f5769746864726177616c2065786365656473206c696d69740000000000000000600082015250565b60006142e56018836139fb565b91506142f0826142af565b602082019050919050565b60006020820190508181036000830152614314816142d8565b9050919050565b600060408201905061433060008301856130c4565b61433d6020830184612e8f565b9392505050565b6000815190506143538161369d565b92915050565b60006020828403121561436f5761436e612e22565b5b600061437d84828501614344565b91505092915050565b7f42657420646f6573206e6f742065786973740000000000000000000000000000600082015250565b60006143bc6012836139fb565b91506143c782614386565b602082019050919050565b600060208201905081810360008301526143eb816143af565b9050919050565b7f42657420697320736574746c656420616c726561647900000000000000000000600082015250565b60006144286016836139fb565b9150614433826143f2565b602082019050919050565b600060208201905081810360008301526144578161441b565b9050919050565b600061446982613068565b915061447483613068565b9250828201905075ffffffffffffffffffffffffffffffffffffffffffff8111156144a2576144a1613b5b565b5b92915050565b7f57616974206265666f72652072657175657374696e6720726566756e64000000600082015250565b60006144de601d836139fb565b91506144e9826144a8565b602082019050919050565b6000602082019050818103600083015261450d816144d1565b9050919050565b60006040820190506145296000830185612e8f565b61453660208301846130c4565b9392505050565b600061455861455361454e84613099565b612fce565b612e2c565b9050919050565b6145688161453d565b82525050565b600061458961458461457f84613048565b612fce565b612e2c565b9050919050565b6145998161456e565b82525050565b6000819050919050565b60006145c46145bf6145ba8461459f565b612fce565b612e2c565b9050919050565b6145d4816145a9565b82525050565b600060a0820190506145ef600083018861455f565b6145fc6020830187614590565b61460960408301866145cb565b61461660608301856145cb565b61462360808301846130c4565b9695505050505050565b600060a082019050614642600083018861455f565b61464f6020830187614590565b61465c6040830186612e8f565b6146696060830185612e8f565b61467660808301846130c4565b969550505050505056fea264697066735822122075360a53f00f334def296cbea1e49ae0deeab0b438e354d9c477c4d11bf741d064736f6c634300081c0033",
  "linkReferences": {},
  "deployedLinkReferences": {}
}