{
  "_format": "hh-sol-artifact-1",
  "contractName": "Flip",
  "sourceName": "contracts/Flip.sol",
  "abi": [
    {
      "inputs": [],
      "stateMutability": "nonpayable",
      "type": "constructor"
    },
    {
      "inputs": [
        {
          "internalType": "address",
          "name": "owner",
          "type": "address"
        }
      ],
      "name": "OwnableInvalidOwner",
      "type": "error"
    },
    {
      "inputs": [
        {
          "internalType": "address",
          "name": "account",
          "type": "address"
        }
      ],
      "name": "OwnableUnauthorizedAccount",
      "type": "error"
    },
    {
      "anonymous": false,
      "inputs": [
        {
          "indexed": true,
          "internalType": "uint256",
          "name": "betId",
          "type": "uint256"
        },
        {
          "indexed": true,
          "internalType": "address",
          "name": "player",
          "type": "address"
        },
        {
          "indexed": false,
          "internalType": "uint256",
          "name": "amount",
          "type": "uint256"
        },
        {
          "indexed": false,
          "internalType": "bool",
          "name": "choice",
          "type": "bool"
        },
        {
          "indexed": false,
          "internalType": "address",
          "name": "token",
          "type": "address"
        }
      ],
      "name": "BetPlaced",
      "type": "event"
    },
    {
      "anonymous": false,
      "inputs": [
        {
          "indexed": true,
          "internalType": "uint256",
          "name": "betId",
          "type": "uint256"
        },
        {
          "indexed": true,
          "internalType": "address",
          "name": "player",
          "type": "address"
        },
        {
          "indexed": false,
          "internalType": "uint256",
          "name": "amount",
          "type": "uint256"
        },
        {
          "indexed": false,
          "internalType": "address",
          "name": "token",
          "type": "address"
        }
      ],
      "name": "BetRefunded",
      "type": "event"
    },
    {
      "anonymous": false,
      "inputs": [
        {
          "indexed": true,
          "internalType": "uint256",
          "name": "betId",
          "type": "uint256"
        },
        {
          "indexed": true,
          "internalType": "address",
          "name": "player",
          "type": "address"
        },
        {
          "indexed": false,
          "internalType": "uint256",
          "name": "amount",
          "type": "uint256"
        },
        {
          "indexed": false,
          "internalType": "bool",
          "name": "choice",
          "type": "bool"
        },
        {
          "indexed": false,
          "internalType": "bool",
          "name": "outcome",
          "type": "bool"
        },
        {
          "indexed": false,
          "internalType": "uint256",
          "name": "winAmount",
          "type": "uint256"
        },
        {
          "indexed": false,
          "internalType": "address",
          "name": "token",
          "type": "address"
        }
      ],
      "name": "BetSettled",
      "type": "event"
    },
    {
      "anonymous": false,
      "inputs": [
        {
          "indexed": true,
          "internalType": "address",
          "name": "previousOwner",
          "type": "address"
        },
        {
          "indexed": true,
          "internalType": "address",
          "name": "newOwner",
          "type": "address"
        }
      ],
      "name": "OwnershipTransferred",
      "type": "event"
    },
    {
      "inputs": [
        {
          "internalType": "uint256",
          "name": "betId",
          "type": "uint256"
        },
        {
          "internalType": "uint256",
          "name": "seed",
          "type": "uint256"
        }
      ],
      "name": "_settleBet",
      "outputs": [],
      "stateMutability": "nonpayable",
      "type": "function"
    },
    {
      "inputs": [
        {
          "internalType": "bytes32",
          "name": "",
          "type": "bytes32"
        },
        {
          "internalType": "uint256",
          "name": "",
          "type": "uint256"
        }
      ],
      "name": "betMap",
      "outputs": [
        {
          "internalType": "uint256",
          "name": "",
          "type": "uint256"
        }
      ],
      "stateMutability": "view",
      "type": "function"
    },
    {
      "inputs": [
        {
          "internalType": "uint256",
          "name": "",
          "type": "uint256"
        }
      ],
      "name": "bets",
      "outputs": [
        {
          "internalType": "bool",
          "name": "choice",
          "type": "bool"
        },
        {
          "internalType": "bool",
          "name": "winResult",
          "type": "bool"
        },
        {
          "internalType": "uint176",
          "name": "placeBlockNumber",
          "type": "uint176"
        },
        {
          "internalType": "uint128",
          "name": "amount",
          "type": "uint128"
        },
        {
          "internalType": "uint128",
          "name": "winAmount",
          "type": "uint128"
        },
        {
          "internalType": "address",
          "name": "player",
          "type": "address"
        },
        {
          "internalType": "address",
          "name": "token",
          "type": "address"
        },
        {
          "internalType": "bool",
          "name": "isSettled",
          "type": "bool"
        }
      ],
      "stateMutability": "view",
      "type": "function"
    },
    {
      "inputs": [],
      "name": "betsLength",
      "outputs": [
        {
          "internalType": "uint256",
          "name": "",
          "type": "uint256"
        }
      ],
      "stateMutability": "view",
      "type": "function"
    },
    {
      "inputs": [
        {
          "internalType": "address",
          "name": "",
          "type": "address"
        }
      ],
      "name": "callers",
      "outputs": [
        {
          "internalType": "bool",
          "name": "",
          "type": "bool"
        }
      ],
      "stateMutability": "view",
      "type": "function"
    },
    {
      "inputs": [],
      "name": "explosionRate",
      "outputs": [
        {
          "internalType": "uint256",
          "name": "",
          "type": "uint256"
        }
      ],
      "stateMutability": "view",
      "type": "function"
    },
    {
      "inputs": [],
      "name": "gameIsLive",
      "outputs": [
        {
          "internalType": "bool",
          "name": "",
          "type": "bool"
        }
      ],
      "stateMutability": "view",
      "type": "function"
    },
    {
      "inputs": [
        {
          "internalType": "uint256",
          "name": "amount",
          "type": "uint256"
        },
        {
          "internalType": "bool",
          "name": "fullList",
          "type": "bool"
        }
      ],
      "name": "getLastBets",
      "outputs": [
        {
          "components": [
            {
              "internalType": "bool",
              "name": "choice",
              "type": "bool"
            },
            {
              "internalType": "bool",
              "name": "winResult",
              "type": "bool"
            },
            {
              "internalType": "uint176",
              "name": "placeBlockNumber",
              "type": "uint176"
            },
            {
              "internalType": "uint128",
              "name": "amount",
              "type": "uint128"
            },
            {
              "internalType": "uint128",
              "name": "winAmount",
              "type": "uint128"
            },
            {
              "internalType": "address",
              "name": "player",
              "type": "address"
            },
            {
              "internalType": "address",
              "name": "token",
              "type": "address"
            },
            {
              "internalType": "bool",
              "name": "isSettled",
              "type": "bool"
            }
          ],
          "internalType": "struct Manager.Bet[]",
          "name": "",
          "type": "tuple[]"
        }
      ],
      "stateMutability": "view",
      "type": "function"
    },
    {
      "inputs": [
        {
          "internalType": "address",
          "name": "player",
          "type": "address"
        }
      ],
      "name": "getPlayerBets",
      "outputs": [
        {
          "internalType": "uint256[]",
          "name": "",
          "type": "uint256[]"
        }
      ],
      "stateMutability": "view",
      "type": "function"
    },
    {
      "inputs": [
        {
          "internalType": "address",
          "name": "player",
          "type": "address"
        }
      ],
      "name": "getPlayerInfo",
      "outputs": [
        {
          "internalType": "uint256",
          "name": "",
          "type": "uint256"
        },
        {
          "internalType": "uint256",
          "name": "",
          "type": "uint256"
        },
        {
          "internalType": "uint256",
          "name": "",
          "type": "uint256"
        }
      ],
      "stateMutability": "view",
      "type": "function"
    },
    {
      "inputs": [],
      "name": "maxMultiplier",
      "outputs": [
        {
          "internalType": "uint256",
          "name": "",
          "type": "uint256"
        }
      ],
      "stateMutability": "view",
      "type": "function"
    },
    {
      "inputs": [],
      "name": "minMultiplier",
      "outputs": [
        {
          "internalType": "uint256",
          "name": "",
          "type": "uint256"
        }
      ],
      "stateMutability": "view",
      "type": "function"
    },
    {
      "inputs": [],
      "name": "owner",
      "outputs": [
        {
          "internalType": "address",
          "name": "",
          "type": "address"
        }
      ],
      "stateMutability": "view",
      "type": "function"
    },
    {
      "inputs": [
        {
          "internalType": "address",
          "name": "",
          "type": "address"
        }
      ],
      "name": "pendingIdsPerPlayer",
      "outputs": [
        {
          "internalType": "uint256",
          "name": "",
          "type": "uint256"
        }
      ],
      "stateMutability": "view",
      "type": "function"
    },
    {
      "inputs": [],
      "name": "permit2",
      "outputs": [
        {
          "internalType": "contract ISignatureTransfer",
          "name": "",
          "type": "address"
        }
      ],
      "stateMutability": "view",
      "type": "function"
    },
    {
      "inputs": [
        {
          "internalType": "bool",
          "name": "side",
          "type": "bool"
        },
        {
          "components": [
            {
              "components": [
                {
                  "internalType": "address",
                  "name": "token",
                  "type": "address"
                },
                {
                  "internalType": "uint256",
                  "name": "amount",
                  "type": "uint256"
                }
              ],
              "internalType": "struct ISignatureTransfer.TokenPermissions",
              "name": "permitted",
              "type": "tuple"
            },
            {
              "internalType": "uint256",
              "name": "nonce",
              "type": "uint256"
            },
            {
              "internalType": "uint256",
              "name": "deadline",
              "type": "uint256"
            }
          ],
          "internalType": "struct ISignatureTransfer.PermitTransferFrom",
          "name": "permit",
          "type": "tuple"
        },
        {
          "components": [
            {
              "internalType": "address",
              "name": "to",
              "type": "address"
            },
            {
              "internalType": "uint256",
              "name": "requestedAmount",
              "type": "uint256"
            }
          ],
          "internalType": "struct ISignatureTransfer.SignatureTransferDetails",
          "name": "transferDetails",
          "type": "tuple"
        },
        {
          "internalType": "bytes",
          "name": "signature",
          "type": "bytes"
        }
      ],
      "name": "placeBet",
      "outputs": [],
      "stateMutability": "nonpayable",
      "type": "function"
    },
    {
      "inputs": [
        {
          "internalType": "uint256",
          "name": "multiplier",
          "type": "uint256"
        }
      ],
      "name": "playFree",
      "outputs": [
        {
          "internalType": "uint256",
          "name": "",
          "type": "uint256"
        },
        {
          "internalType": "bool",
          "name": "",
          "type": "bool"
        }
      ],
      "stateMutability": "view",
      "type": "function"
    },
    {
      "inputs": [
        {
          "internalType": "address",
          "name": "",
          "type": "address"
        }
      ],
      "name": "playerInfo",
      "outputs": [
        {
          "internalType": "uint32",
          "name": "totalBets",
          "type": "uint32"
        },
        {
          "internalType": "uint32",
          "name": "totalGoals",
          "type": "uint32"
        },
        {
          "internalType": "uint256",
          "name": "totalValue",
          "type": "uint256"
        },
        {
          "internalType": "uint256",
          "name": "points",
          "type": "uint256"
        }
      ],
      "stateMutability": "view",
      "type": "function"
    },
    {
      "inputs": [
        {
          "internalType": "uint256",
          "name": "betId",
          "type": "uint256"
        }
      ],
      "name": "refundBet",
      "outputs": [],
      "stateMutability": "nonpayable",
      "type": "function"
    },
    {
      "inputs": [],
      "name": "renounceOwnership",
      "outputs": [],
      "stateMutability": "nonpayable",
      "type": "function"
    },
    {
      "inputs": [
        {
          "internalType": "uint256",
          "name": "_explosionRate",
          "type": "uint256"
        }
      ],
      "name": "setExplosionRate",
      "outputs": [],
      "stateMutability": "nonpayable",
      "type": "function"
    },
    {
      "inputs": [
        {
          "internalType": "address",
          "name": "token",
          "type": "address"
        },
        {
          "internalType": "uint256",
          "name": "_houseEdgeBP",
          "type": "uint256"
        }
      ],
      "name": "setHouseEdgeBP",
      "outputs": [],
      "stateMutability": "nonpayable",
      "type": "function"
    },
    {
      "inputs": [
        {
          "internalType": "address",
          "name": "token",
          "type": "address"
        },
        {
          "internalType": "uint128",
          "name": "_maxBetAmount",
          "type": "uint128"
        }
      ],
      "name": "setMaxBetAmount",
      "outputs": [],
      "stateMutability": "nonpayable",
      "type": "function"
    },
    {
      "inputs": [
        {
          "internalType": "uint256",
          "name": "_maxMultiplier",
          "type": "uint256"
        }
      ],
      "name": "setMaxMultiplier",
      "outputs": [],
      "stateMutability": "nonpayable",
      "type": "function"
    },
    {
      "inputs": [
        {
          "internalType": "address",
          "name": "token",
          "type": "address"
        },
        {
          "internalType": "uint128",
          "name": "_minBetAmount",
          "type": "uint128"
        }
      ],
      "name": "setMinBetAmount",
      "outputs": [],
      "stateMutability": "nonpayable",
      "type": "function"
    },
    {
      "inputs": [
        {
          "internalType": "uint256",
          "name": "_minMultiplier",
          "type": "uint256"
        }
      ],
      "name": "setMinMultiplier",
      "outputs": [],
      "stateMutability": "nonpayable",
      "type": "function"
    },
    {
      "inputs": [
        {
          "internalType": "address",
          "name": "",
          "type": "address"
        }
      ],
      "name": "supportedTokenInfo",
      "outputs": [
        {
          "internalType": "uint128",
          "name": "minBetAmount",
          "type": "uint128"
        },
        {
          "internalType": "uint128",
          "name": "maxBetAmount",
          "type": "uint128"
        },
        {
          "internalType": "uint256",
          "name": "houseEdgeBP",
          "type": "uint256"
        }
      ],
      "stateMutability": "view",
      "type": "function"
    },
    {
      "inputs": [],
      "name": "toggleGameIsLive",
      "outputs": [],
      "stateMutability": "nonpayable",
      "type": "function"
    },
    {
      "inputs": [
        {
          "internalType": "address",
          "name": "newOwner",
          "type": "address"
        }
      ],
      "name": "transferOwnership",
      "outputs": [],
      "stateMutability": "nonpayable",
      "type": "function"
    },
    {
      "inputs": [
        {
          "internalType": "address",
          "name": "beneficiary",
          "type": "address"
        },
        {
          "internalType": "uint256",
          "name": "withdrawAmount",
          "type": "uint256"
        },
        {
          "internalType": "address",
          "name": "token",
          "type": "address"
        }
      ],
      "name": "withdrawCustomTokenFunds",
      "outputs": [],
      "stateMutability": "nonpayable",
      "type": "function"
    }
  ],
  "bytecode": "0x6080604052606460015561271060025560016006556e22d473030f116ddee9f6b43ac78ba3600760006101000a81548173ffffffffffffffffffffffffffffffffffffffff021916908373ffffffffffffffffffffffffffffffffffffffff16021790555034801561007057600080fd5b503333600073ffffffffffffffffffffffffffffffffffffffff168173ffffffffffffffffffffffffffffffffffffffff16036100e55760006040517f1e4fbdf70000000000000000000000000000000000000000000000000000000081526004016100dc9190610258565b60405180910390fd5b6100f48161015360201b60201c565b50506001600b60003373ffffffffffffffffffffffffffffffffffffffff1673ffffffffffffffffffffffffffffffffffffffff16815260200190815260200160002060006101000a81548160ff021916908315150217905550610273565b60008060009054906101000a900473ffffffffffffffffffffffffffffffffffffffff169050816000806101000a81548173ffffffffffffffffffffffffffffffffffffffff021916908373ffffffffffffffffffffffffffffffffffffffff1602179055508173ffffffffffffffffffffffffffffffffffffffff168173ffffffffffffffffffffffffffffffffffffffff167f8be0079c531659141344cd1fd0a4f28419497f9722a3daafe3b4186f6b6457e060405160405180910390a35050565b600073ffffffffffffffffffffffffffffffffffffffff82169050919050565b600061024282610217565b9050919050565b61025281610237565b82525050565b600060208201905061026d6000830184610249565b92915050565b6143a4806102826000396000f3fe608060405234801561001057600080fd5b50600436106101da5760003560e01c80639fd751c711610104578063b7dc5752116100a2578063e713814311610071578063e71381431461053a578063eaf07c8c1461056c578063f2fde38b1461059c578063f3246bd2146105b8576101da565b8063b7dc5752146104c6578063bbd2e01e146104e2578063d414d0c214610500578063e1fdb4b41461051e576101da565b8063a24e0d87116100de578063a24e0d8714610454578063a7af380c14610472578063b14c80091461048e578063b40f0639146104aa576101da565b80639fd751c714610412578063a045a6fc1461042e578063a147722714610438576101da565b80635708e09f1161017c578063715018a61161014b578063715018a61461039c5780637bbf4a3f146103a657806381c8ec1b146103d65780638da5cb5b146103f4576101da565b80635708e09f146102d9578063572613981461030a578063593284011461033a578063621999be1461036c576101da565b806309076344116101b8578063090763441461023557806312261ee71461025157806322af00fa1461026f5780634b114691146102a6576101da565b806301526a43146101df5780630187aea0146101fb5780630267957614610219575b600080fd5b6101f960048036038101906101f49190612c87565b6105e8565b005b6102036105fa565b6040516102109190612cc3565b60405180910390f35b610233600480360381019061022e9190612cde565b610600565b005b61024f600480360381019061024a9190612d7c565b610879565b005b610259610922565b6040516102669190612e1b565b60405180910390f35b61028960048036038101906102849190612c87565b610948565b60405161029d989796959493929190612ebc565b60405180910390f35b6102c060048036038101906102bb9190612f3a565b610a61565b6040516102d09493929190612f86565b60405180910390f35b6102f360048036038101906102ee9190612c87565b610ab1565b604051610301929190612fcb565b60405180910390f35b610324600480360381019061031f9190612f3a565b610b81565b6040516103319190612cc3565b60405180910390f35b610354600480360381019061034f9190612f3a565b610b99565b60405161036393929190612ff4565b60405180910390f35b61038660048036038101906103819190613061565b610c8d565b6040516103939190612cc3565b60405180910390f35b6103a4610cbe565b005b6103c060048036038101906103bb9190612f3a565b610cd2565b6040516103cd91906130a1565b60405180910390f35b6103de610cf2565b6040516103eb9190612cc3565b60405180910390f35b6103fc610cf8565b60405161040991906130bc565b60405180910390f35b61042c60048036038101906104279190612c87565b610d21565b005b610436610d33565b005b610452600480360381019061044d9190613103565b610d67565b005b61045c610eb0565b6040516104699190612cc3565b60405180910390f35b61048c60048036038101906104879190613103565b610eb6565b005b6104a860048036038101906104a39190613143565b610fff565b005b6104c460048036038101906104bf9190613390565b611147565b005b6104e060048036038101906104db9190612c87565b61194e565b005b6104ea611960565b6040516104f79190612cc3565b60405180910390f35b61050861196d565b60405161051591906130a1565b60405180910390f35b61053860048036038101906105339190612c87565b611980565b005b610554600480360381019061054f9190612f3a565b611d73565b60405161056393929190613419565b60405180910390f35b61058660048036038101906105819190612f3a565b611dd5565b604051610593919061350e565b60405180910390f35b6105b660048036038101906105b19190612f3a565b611e6f565b005b6105d260048036038101906105cd9190613530565b611ef5565b6040516105df91906136fe565b60405180910390f35b6105f0612429565b8060028190555050565b60025481565b600b60003373ffffffffffffffffffffffffffffffffffffffff1673ffffffffffffffffffffffffffffffffffffffff16815260200190815260200160002060009054906101000a900460ff1661068c576040517f08c379a00000000000000000000000000000000000000000000000000000000081526004016106839061377d565b60405180910390fd5b6000600383815481106106a2576106a161379d565b5b9060005260206000209060040201905060008160010160009054906101000a90046fffffffffffffffffffffffffffffffff166fffffffffffffffffffffffffffffffff1614806107085750600115158160030160149054906101000a900460ff161515145b156107135750610875565b60008242448460000160029054906101000a900475ffffffffffffffffffffffffffffffffffffffffffff1675ffffffffffffffffffffffffffffffffffffffffffff164060405160200161076b94939291906137db565b6040516020818303038152906040528051906020012060001c90506000606482610795919061384f565b905060065481116107b2576107aa83866124b0565b505050610875565b600060326064846107c3919061384f565b106107cf5760006107d2565b60015b905060008115158560000160009054906101000a900460ff161515146107f95760016107fc565b60005b905060086000815480929190610811906138af565b91905055508460010160009054906101000a90046fffffffffffffffffffffffffffffffff166fffffffffffffffffffffffffffffffff16600a600082825461085a91906138f7565b9250508190555061086c858883612693565b50505050505050505b5050565b610881612429565b60001515600060149054906101000a900460ff161515146108d7576040517f08c379a00000000000000000000000000000000000000000000000000000000081526004016108ce90613977565b60405180910390fd5b80600460008473ffffffffffffffffffffffffffffffffffffffff1673ffffffffffffffffffffffffffffffffffffffff168152602001908152602001600020600101819055505050565b600760009054906101000a900473ffffffffffffffffffffffffffffffffffffffff1681565b6003818154811061095857600080fd5b90600052602060002090600402016000915090508060000160009054906101000a900460ff16908060000160019054906101000a900460ff16908060000160029054906101000a900475ffffffffffffffffffffffffffffffffffffffffffff16908060010160009054906101000a90046fffffffffffffffffffffffffffffffff16908060010160109054906101000a90046fffffffffffffffffffffffffffffffff16908060020160009054906101000a900473ffffffffffffffffffffffffffffffffffffffff16908060030160009054906101000a900473ffffffffffffffffffffffffffffffffffffffff16908060030160149054906101000a900460ff16905088565b600d6020528060005260406000206000915090508060000160009054906101000a900463ffffffff16908060000160049054906101000a900463ffffffff16908060010154908060020154905084565b60008060004244600143610ac59190613997565b40604051602001610ad8939291906139cb565b6040516020818303038152906040528051906020012060001c9050600060018054600254610b069190613997565b610b1091906138f7565b82610b1b919061384f565b905060006064600254610b2e9190613a02565b9050600082606483610b409190613a33565b610b4a9190613997565b8360025484610b599190613a33565b610b639190613997565b610b6d9190613a02565b905080818811159550955050505050915091565b600c6020528060005260406000206000915090505481565b6000806000600d60008573ffffffffffffffffffffffffffffffffffffffff1673ffffffffffffffffffffffffffffffffffffffff16815260200190815260200160002060000160009054906101000a900463ffffffff16600d60008673ffffffffffffffffffffffffffffffffffffffff1673ffffffffffffffffffffffffffffffffffffffff16815260200190815260200160002060010154600d60008773ffffffffffffffffffffffffffffffffffffffff1673ffffffffffffffffffffffffffffffffffffffff168152602001908152602001600020600201548263ffffffff1692509250925092509193909250565b60056020528160005260406000208181548110610ca957600080fd5b90600052602060002001600091509150505481565b610cc6612429565b610cd06000612a4c565b565b600b6020528060005260406000206000915054906101000a900460ff1681565b60065481565b60008060009054906101000a900473ffffffffffffffffffffffffffffffffffffffff16905090565b610d29612429565b8060018190555050565b610d3b612429565b600060149054906101000a900460ff1615600060146101000a81548160ff021916908315150217905550565b610d6f612429565b600460008373ffffffffffffffffffffffffffffffffffffffff1673ffffffffffffffffffffffffffffffffffffffff16815260200190815260200160002060000160009054906101000a90046fffffffffffffffffffffffffffffffff166fffffffffffffffffffffffffffffffff16816fffffffffffffffffffffffffffffffff1611610e33576040517f08c379a0000000000000000000000000000000000000000000000000000000008152600401610e2a90613ae7565b60405180910390fd5b80600460008473ffffffffffffffffffffffffffffffffffffffff1673ffffffffffffffffffffffffffffffffffffffff16815260200190815260200160002060000160106101000a8154816fffffffffffffffffffffffffffffffff02191690836fffffffffffffffffffffffffffffffff1602179055505050565b60015481565b610ebe612429565b600460008373ffffffffffffffffffffffffffffffffffffffff1673ffffffffffffffffffffffffffffffffffffffff16815260200190815260200160002060000160109054906101000a90046fffffffffffffffffffffffffffffffff166fffffffffffffffffffffffffffffffff16816fffffffffffffffffffffffffffffffff1610610f82576040517f08c379a0000000000000000000000000000000000000000000000000000000008152600401610f7990613b79565b60405180910390fd5b80600460008473ffffffffffffffffffffffffffffffffffffffff1673ffffffffffffffffffffffffffffffffffffffff16815260200190815260200160002060000160006101000a8154816fffffffffffffffffffffffffffffffff02191690836fffffffffffffffffffffffffffffffff1602179055505050565b611007612429565b8073ffffffffffffffffffffffffffffffffffffffff166370a08231306040518263ffffffff1660e01b815260040161104091906130bc565b602060405180830381865afa15801561105d573d6000803e3d6000fd5b505050506040513d601f19601f820116820180604052508101906110819190613bae565b8211156110c3576040517f08c379a00000000000000000000000000000000000000000000000000000000081526004016110ba90613c27565b60405180910390fd5b8073ffffffffffffffffffffffffffffffffffffffff1663a9059cbb84846040518363ffffffff1660e01b81526004016110fe929190613c47565b6020604051808303816000875af115801561111d573d6000803e3d6000fd5b505050506040513d601f19601f820116820180604052508101906111419190613c85565b50505050565b60008460000151600001519050600085600001516020015190506000339050600060149054906101000a900460ff166111b5576040517f08c379a00000000000000000000000000000000000000000000000000000000081526004016111ac90613cfe565b60405180910390fd5b600073ffffffffffffffffffffffffffffffffffffffff168373ffffffffffffffffffffffffffffffffffffffff1603611224576040517f08c379a000000000000000000000000000000000000000000000000000000000815260040161121b90613d6a565b60405180910390fd5b600460008473ffffffffffffffffffffffffffffffffffffffff1673ffffffffffffffffffffffffffffffffffffffff16815260200190815260200160002060000160009054906101000a90046fffffffffffffffffffffffffffffffff166fffffffffffffffffffffffffffffffff1682101580156113145750600460008473ffffffffffffffffffffffffffffffffffffffff1673ffffffffffffffffffffffffffffffffffffffff16815260200190815260200160002060000160109054906101000a90046fffffffffffffffffffffffffffffffff166fffffffffffffffffffffffffffffffff168211155b611353576040517f08c379a000000000000000000000000000000000000000000000000000000000815260040161134a90613dd6565b60405180910390fd5b6000600c60008373ffffffffffffffffffffffffffffffffffffffff1673ffffffffffffffffffffffffffffffffffffffff16815260200190815260200160002054146113d5576040517f08c379a00000000000000000000000000000000000000000000000000000000081526004016113cc90613e42565b60405180910390fd5b600760009054906101000a900473ffffffffffffffffffffffffffffffffffffffff1673ffffffffffffffffffffffffffffffffffffffff166330f28b7a88883389896040518663ffffffff1660e01b8152600401611438959493929190613f8d565b600060405180830381600087803b15801561145257600080fd5b505af1158015611466573d6000803e3d6000fd5b505050506000600160038054905061147e91906138f7565b9050600d60008373ffffffffffffffffffffffffffffffffffffffff1673ffffffffffffffffffffffffffffffffffffffff168152602001908152602001600020600001600081819054906101000a900463ffffffff16809291906114e290613fdc565b91906101000a81548163ffffffff021916908363ffffffff1602179055505082600d60008473ffffffffffffffffffffffffffffffffffffffff1673ffffffffffffffffffffffffffffffffffffffff168152602001908152602001600020600101600082825461155391906138f7565b9250508190555060c7600d60008473ffffffffffffffffffffffffffffffffffffffff1673ffffffffffffffffffffffffffffffffffffffff16815260200190815260200160002060020160008282546115ad91906138f7565b92505081905550600d60008373ffffffffffffffffffffffffffffffffffffffff1673ffffffffffffffffffffffffffffffffffffffff16815260200190815260200160002060030181908060018154018082558091505060019003906000526020600020016000909190919091505580600c60008473ffffffffffffffffffffffffffffffffffffffff1673ffffffffffffffffffffffffffffffffffffffff168152602001908152602001600020819055508173ffffffffffffffffffffffffffffffffffffffff16817f1f6e85c010a3003b061f788065fddd4a159e8fae2662ba5afe75f5583c89b65b858c886040516116ac93929190614008565b60405180910390a360036040518061010001604052808b151581526020016000151581526020014375ffffffffffffffffffffffffffffffffffffffffffff168152602001856fffffffffffffffffffffffffffffffff16815260200160006fffffffffffffffffffffffffffffffff1681526020018473ffffffffffffffffffffffffffffffffffffffff1681526020018673ffffffffffffffffffffffffffffffffffffffff16815260200160001515815250908060018154018082558091505060019003906000526020600020906004020160009091909190915060008201518160000160006101000a81548160ff02191690831515021790555060208201518160000160016101000a81548160ff02191690831515021790555060408201518160000160026101000a81548175ffffffffffffffffffffffffffffffffffffffffffff021916908375ffffffffffffffffffffffffffffffffffffffffffff16021790555060608201518160010160006101000a8154816fffffffffffffffffffffffffffffffff02191690836fffffffffffffffffffffffffffffffff16021790555060808201518160010160106101000a8154816fffffffffffffffffffffffffffffffff02191690836fffffffffffffffffffffffffffffffff16021790555060a08201518160020160006101000a81548173ffffffffffffffffffffffffffffffffffffffff021916908373ffffffffffffffffffffffffffffffffffffffff16021790555060c08201518160030160006101000a81548173ffffffffffffffffffffffffffffffffffffffff021916908373ffffffffffffffffffffffffffffffffffffffff16021790555060e08201518160030160146101000a81548160ff0219169083151502179055505050505050505050505050565b611956612429565b8060068190555050565b6000600380549050905090565b600060149054906101000a900460ff1681565b611988612429565b600060149054906101000a900460ff166119d7576040517f08c379a00000000000000000000000000000000000000000000000000000000081526004016119ce90613cfe565b60405180910390fd5b6000600382815481106119ed576119ec61379d565b5b9060005260206000209060040201905060008160010160009054906101000a90046fffffffffffffffffffffffffffffffff166fffffffffffffffffffffffffffffffff16905060008111611a77576040517f08c379a0000000000000000000000000000000000000000000000000000000008152600401611a6e9061408b565b60405180910390fd5b600015158260030160149054906101000a900460ff16151514611acf576040517f08c379a0000000000000000000000000000000000000000000000000000000008152600401611ac6906140f7565b60405180910390fd5b6154608260000160029054906101000a900475ffffffffffffffffffffffffffffffffffffffffffff16611b039190614117565b75ffffffffffffffffffffffffffffffffffffffffffff164311611b5c576040517f08c379a0000000000000000000000000000000000000000000000000000000008152600401611b53906141ad565b60405180910390fd5b60008260030160009054906101000a900473ffffffffffffffffffffffffffffffffffffffff1690506000611b918383612b10565b905060018460030160146101000a81548160ff021916908315150217905550808460010160106101000a8154816fffffffffffffffffffffffffffffffff02191690836fffffffffffffffffffffffffffffffff1602179055508173ffffffffffffffffffffffffffffffffffffffff1663a9059cbb8560020160009054906101000a900473ffffffffffffffffffffffffffffffffffffffff16836040518363ffffffff1660e01b8152600401611c4a929190613c47565b6020604051808303816000875af1158015611c69573d6000803e3d6000fd5b505050506040513d601f19601f82011682018060405250810190611c8d9190613c85565b506000600c60008660020160009054906101000a900473ffffffffffffffffffffffffffffffffffffffff1673ffffffffffffffffffffffffffffffffffffffff1673ffffffffffffffffffffffffffffffffffffffff168152602001908152602001600020819055508360020160009054906101000a900473ffffffffffffffffffffffffffffffffffffffff1673ffffffffffffffffffffffffffffffffffffffff16857fb27522330a91a6a320aeeac4733cad91c61b5384667c37acb1855ace8dc34e508385604051611d649291906141cd565b60405180910390a35050505050565b60046020528060005260406000206000915090508060000160009054906101000a90046fffffffffffffffffffffffffffffffff16908060000160109054906101000a90046fffffffffffffffffffffffffffffffff16908060010154905083565b6060600d60008373ffffffffffffffffffffffffffffffffffffffff1673ffffffffffffffffffffffffffffffffffffffff168152602001908152602001600020600301805480602002602001604051908101604052809291908181526020018280548015611e6357602002820191906000526020600020905b815481526020019060010190808311611e4f575b50505050509050919050565b611e77612429565b600073ffffffffffffffffffffffffffffffffffffffff168173ffffffffffffffffffffffffffffffffffffffff1603611ee95760006040517f1e4fbdf7000000000000000000000000000000000000000000000000000000008152600401611ee091906130bc565b60405180910390fd5b611ef281612a4c565b50565b6060811561214a576003805480602002602001604051908101604052809291908181526020016000905b8282101561213f5783829060005260206000209060040201604051806101000160405290816000820160009054906101000a900460ff161515151581526020016000820160019054906101000a900460ff161515151581526020016000820160029054906101000a900475ffffffffffffffffffffffffffffffffffffffffffff1675ffffffffffffffffffffffffffffffffffffffffffff1675ffffffffffffffffffffffffffffffffffffffffffff1681526020016001820160009054906101000a90046fffffffffffffffffffffffffffffffff166fffffffffffffffffffffffffffffffff166fffffffffffffffffffffffffffffffff1681526020016001820160109054906101000a90046fffffffffffffffffffffffffffffffff166fffffffffffffffffffffffffffffffff166fffffffffffffffffffffffffffffffff1681526020016002820160009054906101000a900473ffffffffffffffffffffffffffffffffffffffff1673ffffffffffffffffffffffffffffffffffffffff1673ffffffffffffffffffffffffffffffffffffffff1681526020016003820160009054906101000a900473ffffffffffffffffffffffffffffffffffffffff1673ffffffffffffffffffffffffffffffffffffffff1673ffffffffffffffffffffffffffffffffffffffff1681526020016003820160149054906101000a900460ff16151515158152505081526020019060010190611f1f565b505050509050612423565b60008367ffffffffffffffff811115612166576121656131d8565b5b60405190808252806020026020018201604052801561219f57816020015b61218c612b8a565b8152602001906001900390816121845790505b509050600060016008546121b39190613997565b90505b846008546121c49190613997565b81111561241d576000600382815481106121e1576121e061379d565b5b9060005260206000209060040201905080604051806101000160405290816000820160009054906101000a900460ff161515151581526020016000820160019054906101000a900460ff161515151581526020016000820160029054906101000a900475ffffffffffffffffffffffffffffffffffffffffffff1675ffffffffffffffffffffffffffffffffffffffffffff1675ffffffffffffffffffffffffffffffffffffffffffff1681526020016001820160009054906101000a90046fffffffffffffffffffffffffffffffff166fffffffffffffffffffffffffffffffff166fffffffffffffffffffffffffffffffff1681526020016001820160109054906101000a90046fffffffffffffffffffffffffffffffff166fffffffffffffffffffffffffffffffff166fffffffffffffffffffffffffffffffff1681526020016002820160009054906101000a900473ffffffffffffffffffffffffffffffffffffffff1673ffffffffffffffffffffffffffffffffffffffff1673ffffffffffffffffffffffffffffffffffffffff1681526020016003820160009054906101000a900473ffffffffffffffffffffffffffffffffffffffff1673ffffffffffffffffffffffffffffffffffffffff1673ffffffffffffffffffffffffffffffffffffffff1681526020016003820160149054906101000a900460ff1615151515815250508383815181106123fe576123fd61379d565b5b6020026020010181905250508080612415906141f6565b9150506121b6565b50809150505b92915050565b612431612b82565b73ffffffffffffffffffffffffffffffffffffffff1661244f610cf8565b73ffffffffffffffffffffffffffffffffffffffff16146124ae57612472612b82565b6040517f118cdaa70000000000000000000000000000000000000000000000000000000081526004016124a591906130bc565b60405180910390fd5b565b6000600c60008460020160009054906101000a900473ffffffffffffffffffffffffffffffffffffffff1673ffffffffffffffffffffffffffffffffffffffff1673ffffffffffffffffffffffffffffffffffffffff1681526020019081526020016000208190555060018260030160146101000a81548160ff02191690831515021790555060008260010160106101000a8154816fffffffffffffffffffffffffffffffff02191690836fffffffffffffffffffffffffffffffff1602179055508160000160009054906101000a900460ff1661258f576001612592565b60005b8260000160016101000a81548160ff0219169083151502179055508160020160009054906101000a900473ffffffffffffffffffffffffffffffffffffffff1673ffffffffffffffffffffffffffffffffffffffff16817fcff8331206752b2d8db8726a6ec284005a69bf90b91a2a35da2e1e8a2c7561a48460010160009054906101000a90046fffffffffffffffffffffffffffffffff168560000160009054906101000a900460ff168660000160019054906101000a900460ff1660008860030160009054906101000a900473ffffffffffffffffffffffffffffffffffffffff1660405161268795949392919061428b565b60405180910390a35050565b60008060008060028760010160009054906101000a90046fffffffffffffffffffffffffffffffff166126c691906142de565b6fffffffffffffffffffffffffffffffff1690506000856126e85760006126ea565b815b90506000600c60008a60020160009054906101000a900473ffffffffffffffffffffffffffffffffffffffff1673ffffffffffffffffffffffffffffffffffffffff1673ffffffffffffffffffffffffffffffffffffffff1681526020019081526020016000208190555060018860030160146101000a81548160ff021916908315150217905550808860010160106101000a8154816fffffffffffffffffffffffffffffffff02191690836fffffffffffffffffffffffffffffffff160217905550858860000160016101000a81548160ff021916908315150217905550600081111561295757600960008154809291906127e5906138af565b9190505550600d60008960020160009054906101000a900473ffffffffffffffffffffffffffffffffffffffff1673ffffffffffffffffffffffffffffffffffffffff1673ffffffffffffffffffffffffffffffffffffffff168152602001908152602001600020600001600481819054906101000a900463ffffffff168092919061287090613fdc565b91906101000a81548163ffffffff021916908363ffffffff160217905550508760030160009054906101000a900473ffffffffffffffffffffffffffffffffffffffff1673ffffffffffffffffffffffffffffffffffffffff1663a9059cbb8960020160009054906101000a900473ffffffffffffffffffffffffffffffffffffffff16846040518363ffffffff1660e01b8152600401612912929190613c47565b6020604051808303816000875af1158015612931573d6000803e3d6000fd5b505050506040513d601f19601f820116820180604052508101906129559190613c85565b505b8760020160009054906101000a900473ffffffffffffffffffffffffffffffffffffffff1673ffffffffffffffffffffffffffffffffffffffff16877fcff8331206752b2d8db8726a6ec284005a69bf90b91a2a35da2e1e8a2c7561a48a60010160009054906101000a90046fffffffffffffffffffffffffffffffff168b60000160009054906101000a900460ff168a868e60030160009054906101000a900473ffffffffffffffffffffffffffffffffffffffff16604051612a1f95949392919061431b565b60405180910390a38760000160009054906101000a900460ff168682945094509450505093509350939050565b60008060009054906101000a900473ffffffffffffffffffffffffffffffffffffffff169050816000806101000a81548173ffffffffffffffffffffffffffffffffffffffff021916908373ffffffffffffffffffffffffffffffffffffffff1602179055508173ffffffffffffffffffffffffffffffffffffffff168173ffffffffffffffffffffffffffffffffffffffff167f8be0079c531659141344cd1fd0a4f28419497f9722a3daafe3b4186f6b6457e060405160405180910390a35050565b6000612710600460008473ffffffffffffffffffffffffffffffffffffffff1673ffffffffffffffffffffffffffffffffffffffff16815260200190815260200160002060010154612710612b659190613997565b84612b709190613a33565b612b7a9190613a02565b905092915050565b600033905090565b604051806101000160405280600015158152602001600015158152602001600075ffffffffffffffffffffffffffffffffffffffffffff16815260200160006fffffffffffffffffffffffffffffffff16815260200160006fffffffffffffffffffffffffffffffff168152602001600073ffffffffffffffffffffffffffffffffffffffff168152602001600073ffffffffffffffffffffffffffffffffffffffff1681526020016000151581525090565b6000604051905090565b600080fd5b600080fd5b6000819050919050565b612c6481612c51565b8114612c6f57600080fd5b50565b600081359050612c8181612c5b565b92915050565b600060208284031215612c9d57612c9c612c47565b5b6000612cab84828501612c72565b91505092915050565b612cbd81612c51565b82525050565b6000602082019050612cd86000830184612cb4565b92915050565b60008060408385031215612cf557612cf4612c47565b5b6000612d0385828601612c72565b9250506020612d1485828601612c72565b9150509250929050565b600073ffffffffffffffffffffffffffffffffffffffff82169050919050565b6000612d4982612d1e565b9050919050565b612d5981612d3e565b8114612d6457600080fd5b50565b600081359050612d7681612d50565b92915050565b60008060408385031215612d9357612d92612c47565b5b6000612da185828601612d67565b9250506020612db285828601612c72565b9150509250929050565b6000819050919050565b6000612de1612ddc612dd784612d1e565b612dbc565b612d1e565b9050919050565b6000612df382612dc6565b9050919050565b6000612e0582612de8565b9050919050565b612e1581612dfa565b82525050565b6000602082019050612e306000830184612e0c565b92915050565b60008115159050919050565b612e4b81612e36565b82525050565b600075ffffffffffffffffffffffffffffffffffffffffffff82169050919050565b612e7c81612e51565b82525050565b60006fffffffffffffffffffffffffffffffff82169050919050565b612ea781612e82565b82525050565b612eb681612d3e565b82525050565b600061010082019050612ed2600083018b612e42565b612edf602083018a612e42565b612eec6040830189612e73565b612ef96060830188612e9e565b612f066080830187612e9e565b612f1360a0830186612ead565b612f2060c0830185612ead565b612f2d60e0830184612e42565b9998505050505050505050565b600060208284031215612f5057612f4f612c47565b5b6000612f5e84828501612d67565b91505092915050565b600063ffffffff82169050919050565b612f8081612f67565b82525050565b6000608082019050612f9b6000830187612f77565b612fa86020830186612f77565b612fb56040830185612cb4565b612fc26060830184612cb4565b95945050505050565b6000604082019050612fe06000830185612cb4565b612fed6020830184612e42565b9392505050565b60006060820190506130096000830186612cb4565b6130166020830185612cb4565b6130236040830184612cb4565b949350505050565b6000819050919050565b61303e8161302b565b811461304957600080fd5b50565b60008135905061305b81613035565b92915050565b6000806040838503121561307857613077612c47565b5b60006130868582860161304c565b925050602061309785828601612c72565b9150509250929050565b60006020820190506130b66000830184612e42565b92915050565b60006020820190506130d16000830184612ead565b92915050565b6130e081612e82565b81146130eb57600080fd5b50565b6000813590506130fd816130d7565b92915050565b6000806040838503121561311a57613119612c47565b5b600061312885828601612d67565b9250506020613139858286016130ee565b9150509250929050565b60008060006060848603121561315c5761315b612c47565b5b600061316a86828701612d67565b935050602061317b86828701612c72565b925050604061318c86828701612d67565b9150509250925092565b61319f81612e36565b81146131aa57600080fd5b50565b6000813590506131bc81613196565b92915050565b600080fd5b6000601f19601f8301169050919050565b7f4e487b7100000000000000000000000000000000000000000000000000000000600052604160045260246000fd5b613210826131c7565b810181811067ffffffffffffffff8211171561322f5761322e6131d8565b5b80604052505050565b6000613242612c3d565b905061324e8282613207565b919050565b600060408284031215613269576132686131c2565b5b6132736040613238565b9050600061328384828501612d67565b600083015250602061329784828501612c72565b60208301525092915050565b6000608082840312156132b9576132b86131c2565b5b6132c36060613238565b905060006132d384828501613253565b60008301525060406132e784828501612c72565b60208301525060606132fb84828501612c72565b60408301525092915050565b600080fd5b60006040828403121561332257613321613307565b5b81905092915050565b600080fd5b600080fd5b600080fd5b60008083601f8401126133505761334f61332b565b5b8235905067ffffffffffffffff81111561336d5761336c613330565b5b60208301915083600182028301111561338957613388613335565b5b9250929050565b600080600080600061010086880312156133ad576133ac612c47565b5b60006133bb888289016131ad565b95505060206133cc888289016132a3565b94505060a06133dd8882890161330c565b93505060e086013567ffffffffffffffff8111156133fe576133fd612c4c565b5b61340a8882890161333a565b92509250509295509295909350565b600060608201905061342e6000830186612e9e565b61343b6020830185612e9e565b6134486040830184612cb4565b949350505050565b600081519050919050565b600082825260208201905092915050565b6000819050602082019050919050565b61348581612c51565b82525050565b6000613497838361347c565b60208301905092915050565b6000602082019050919050565b60006134bb82613450565b6134c5818561345b565b93506134d08361346c565b8060005b838110156135015781516134e8888261348b565b97506134f3836134a3565b9250506001810190506134d4565b5085935050505092915050565b6000602082019050818103600083015261352881846134b0565b905092915050565b6000806040838503121561354757613546612c47565b5b600061355585828601612c72565b9250506020613566858286016131ad565b9150509250929050565b600081519050919050565b600082825260208201905092915050565b6000819050602082019050919050565b6135a581612e36565b82525050565b6135b481612e51565b82525050565b6135c381612e82565b82525050565b6135d281612d3e565b82525050565b610100820160008201516135ef600085018261359c565b506020820151613602602085018261359c565b50604082015161361560408501826135ab565b50606082015161362860608501826135ba565b50608082015161363b60808501826135ba565b5060a082015161364e60a08501826135c9565b5060c082015161366160c08501826135c9565b5060e082015161367460e085018261359c565b50505050565b600061368683836135d8565b6101008301905092915050565b6000602082019050919050565b60006136ab82613570565b6136b5818561357b565b93506136c08361358c565b8060005b838110156136f15781516136d8888261367a565b97506136e383613693565b9250506001810190506136c4565b5085935050505092915050565b6000602082019050818103600083015261371881846136a0565b905092915050565b600082825260208201905092915050565b7f43616c6c6572206973206e6f7420617574686f72697a65640000000000000000600082015250565b6000613767601883613720565b915061377282613731565b602082019050919050565b600060208201905081810360008301526137968161375a565b9050919050565b7f4e487b7100000000000000000000000000000000000000000000000000000000600052603260045260246000fd5b6137d58161302b565b82525050565b60006080820190506137f06000830187612cb4565b6137fd6020830186612cb4565b61380a6040830185612cb4565b61381760608301846137cc565b95945050505050565b7f4e487b7100000000000000000000000000000000000000000000000000000000600052601260045260246000fd5b600061385a82612c51565b915061386583612c51565b92508261387557613874613820565b5b828206905092915050565b7f4e487b7100000000000000000000000000000000000000000000000000000000600052601160045260246000fd5b60006138ba82612c51565b91507fffffffffffffffffffffffffffffffffffffffffffffffffffffffffffffffff82036138ec576138eb613880565b5b600182019050919050565b600061390282612c51565b915061390d83612c51565b925082820190508082111561392557613924613880565b5b92915050565b7f4265747320696e2070656e64696e670000000000000000000000000000000000600082015250565b6000613961600f83613720565b915061396c8261392b565b602082019050919050565b6000602082019050818103600083015261399081613954565b9050919050565b60006139a282612c51565b91506139ad83612c51565b92508282039050818111156139c5576139c4613880565b5b92915050565b60006060820190506139e06000830186612cb4565b6139ed6020830185612cb4565b6139fa60408301846137cc565b949350505050565b6000613a0d82612c51565b9150613a1883612c51565b925082613a2857613a27613820565b5b828204905092915050565b6000613a3e82612c51565b9150613a4983612c51565b9250828202613a5781612c51565b91508282048414831517613a6e57613a6d613880565b5b5092915050565b7f4d617820616d6f756e74206d7573742062652067726561746572207468616e2060008201527f6d696e20616d6f756e7400000000000000000000000000000000000000000000602082015250565b6000613ad1602a83613720565b9150613adc82613a75565b604082019050919050565b60006020820190508181036000830152613b0081613ac4565b9050919050565b7f4d696e20616d6f756e74206d757374206265206c657373207468616e206d617860008201527f20616d6f756e7400000000000000000000000000000000000000000000000000602082015250565b6000613b63602783613720565b9150613b6e82613b07565b604082019050919050565b60006020820190508181036000830152613b9281613b56565b9050919050565b600081519050613ba881612c5b565b92915050565b600060208284031215613bc457613bc3612c47565b5b6000613bd284828501613b99565b91505092915050565b7f5769746864726177616c2065786365656473206c696d69740000000000000000600082015250565b6000613c11601883613720565b9150613c1c82613bdb565b602082019050919050565b60006020820190508181036000830152613c4081613c04565b9050919050565b6000604082019050613c5c6000830185612ead565b613c696020830184612cb4565b9392505050565b600081519050613c7f81613196565b92915050565b600060208284031215613c9b57613c9a612c47565b5b6000613ca984828501613c70565b91505092915050565b7f47616d65206973206e6f74206c69766500000000000000000000000000000000600082015250565b6000613ce8601083613720565b9150613cf382613cb2565b602082019050919050565b60006020820190508181036000830152613d1781613cdb565b9050919050565b7f546f6b656e20616464726573732063616e6e6f74206265203000000000000000600082015250565b6000613d54601983613720565b9150613d5f82613d1e565b602082019050919050565b60006020820190508181036000830152613d8381613d47565b9050919050565b7f42657420616d6f756e74206e6f742077697468696e2072616e67650000000000600082015250565b6000613dc0601b83613720565b9150613dcb82613d8a565b602082019050919050565b60006020820190508181036000830152613def81613db3565b9050919050565b7f596f75206861766520612070656e64696e672062657400000000000000000000600082015250565b6000613e2c601683613720565b9150613e3782613df6565b602082019050919050565b60006020820190508181036000830152613e5b81613e1f565b9050919050565b604082016000820151613e7860008501826135c9565b506020820151613e8b602085018261347c565b50505050565b608082016000820151613ea76000850182613e62565b506020820151613eba604085018261347c565b506040820151613ecd606085018261347c565b50505050565b6000613ee26020840184612d67565b905092915050565b6000613ef96020840184612c72565b905092915050565b60408201613f126000830183613ed3565b613f1f60008501826135c9565b50613f2d6020830183613eea565b613f3a602085018261347c565b50505050565b600082825260208201905092915050565b82818337600083830152505050565b6000613f6c8385613f40565b9350613f79838584613f51565b613f82836131c7565b840190509392505050565b600061010082019050613fa36000830188613e91565b613fb06080830187613f01565b613fbd60c0830186612ead565b81810360e0830152613fd0818486613f60565b90509695505050505050565b6000613fe782612f67565b915063ffffffff8203613ffd57613ffc613880565b5b600182019050919050565b600060608201905061401d6000830186612cb4565b61402a6020830185612e42565b6140376040830184612ead565b949350505050565b7f42657420646f6573206e6f742065786973740000000000000000000000000000600082015250565b6000614075601283613720565b91506140808261403f565b602082019050919050565b600060208201905081810360008301526140a481614068565b9050919050565b7f42657420697320736574746c656420616c726561647900000000000000000000600082015250565b60006140e1601683613720565b91506140ec826140ab565b602082019050919050565b60006020820190508181036000830152614110816140d4565b9050919050565b600061412282612e51565b915061412d83612e51565b9250828201905075ffffffffffffffffffffffffffffffffffffffffffff81111561415b5761415a613880565b5b92915050565b7f57616974206265666f72652072657175657374696e6720726566756e64000000600082015250565b6000614197601d83613720565b91506141a282614161565b602082019050919050565b600060208201905081810360008301526141c68161418a565b9050919050565b60006040820190506141e26000830185612cb4565b6141ef6020830184612ead565b9392505050565b600061420182612c51565b91506000820361421457614213613880565b5b600182039050919050565b600061423a61423561423084612e82565b612dbc565b612c51565b9050919050565b61424a8161421f565b82525050565b6000819050919050565b600061427561427061426b84614250565b612dbc565b612c51565b9050919050565b6142858161425a565b82525050565b600060a0820190506142a06000830188614241565b6142ad6020830187612e42565b6142ba6040830186612e42565b6142c7606083018561427c565b6142d46080830184612ead565b9695505050505050565b60006142e982612e82565b91506142f483612e82565b925082820261430281612e82565b915080821461431457614313613880565b5b5092915050565b600060a0820190506143306000830188614241565b61433d6020830187612e42565b61434a6040830186612e42565b6143576060830185612cb4565b6143646080830184612ead565b969550505050505056fea26469706673582212207348e664c61a11567f2345384cabfbdbefdf1e913f26a29794fc2c6568124db764736f6c634300081c0033",
  "linkReferences": {},
  "deployedLinkReferences": {}
}