{
  "contracts/Crash.sol": {
    "Crash": {
      "abi": [
        {
          "inputs": [],
          "stateMutability": "nonpayable",
          "type": "constructor"
        },
        {
          "inputs": [
            {
              "internalType": "address",
              "name": "owner",
              "type": "address"
            }
          ],
          "name": "OwnableInvalidOwner",
          "type": "error"
        },
        {
          "inputs": [
            {
              "internalType": "address",
              "name": "account",
              "type": "address"
            }
          ],
          "name": "OwnableUnauthorizedAccount",
          "type": "error"
        },
        {
          "anonymous": false,
          "inputs": [
            {
              "indexed": true,
              "internalType": "uint256",
              "name": "betId",
              "type": "uint256"
            },
            {
              "indexed": true,
              "internalType": "address",
              "name": "player",
              "type": "address"
            },
            {
              "indexed": false,
              "internalType": "uint256",
              "name": "amount",
              "type": "uint256"
            },
            {
              "indexed": false,
              "internalType": "uint256",
              "name": "choice",
              "type": "uint256"
            },
            {
              "indexed": false,
              "internalType": "address",
              "name": "token",
              "type": "address"
            }
          ],
          "name": "BetPlaced",
          "type": "event"
        },
        {
          "anonymous": false,
          "inputs": [
            {
              "indexed": true,
              "internalType": "uint256",
              "name": "betId",
              "type": "uint256"
            },
            {
              "indexed": true,
              "internalType": "address",
              "name": "player",
              "type": "address"
            },
            {
              "indexed": false,
              "internalType": "uint256",
              "name": "amount",
              "type": "uint256"
            },
            {
              "indexed": false,
              "internalType": "address",
              "name": "token",
              "type": "address"
            }
          ],
          "name": "BetRefunded",
          "type": "event"
        },
        {
          "anonymous": false,
          "inputs": [
            {
              "indexed": true,
              "internalType": "uint256",
              "name": "betId",
              "type": "uint256"
            },
            {
              "indexed": true,
              "internalType": "address",
              "name": "player",
              "type": "address"
            },
            {
              "indexed": false,
              "internalType": "uint256",
              "name": "amount",
              "type": "uint256"
            },
            {
              "indexed": false,
              "internalType": "uint256",
              "name": "choice",
              "type": "uint256"
            },
            {
              "indexed": false,
              "internalType": "uint256",
              "name": "outcome",
              "type": "uint256"
            },
            {
              "indexed": false,
              "internalType": "uint256",
              "name": "winAmount",
              "type": "uint256"
            },
            {
              "indexed": false,
              "internalType": "address",
              "name": "token",
              "type": "address"
            }
          ],
          "name": "BetSettled",
          "type": "event"
        },
        {
          "anonymous": false,
          "inputs": [
            {
              "indexed": true,
              "internalType": "address",
              "name": "previousOwner",
              "type": "address"
            },
            {
              "indexed": true,
              "internalType": "address",
              "name": "newOwner",
              "type": "address"
            }
          ],
          "name": "OwnershipTransferred",
          "type": "event"
        },
        {
          "inputs": [
            {
              "internalType": "uint256",
              "name": "betId",
              "type": "uint256"
            },
            {
              "internalType": "uint256",
              "name": "seed",
              "type": "uint256"
            }
          ],
          "name": "_settleBet",
          "outputs": [
            {
              "internalType": "uint256",
              "name": "",
              "type": "uint256"
            },
            {
              "internalType": "uint256",
              "name": "",
              "type": "uint256"
            },
            {
              "internalType": "uint256",
              "name": "",
              "type": "uint256"
            }
          ],
          "stateMutability": "nonpayable",
          "type": "function"
        },
        {
          "inputs": [
            {
              "internalType": "bytes32",
              "name": "",
              "type": "bytes32"
            },
            {
              "internalType": "uint256",
              "name": "",
              "type": "uint256"
            }
          ],
          "name": "betMap",
          "outputs": [
            {
              "internalType": "uint256",
              "name": "",
              "type": "uint256"
            }
          ],
          "stateMutability": "view",
          "type": "function"
        },
        {
          "inputs": [
            {
              "internalType": "uint256",
              "name": "",
              "type": "uint256"
            }
          ],
          "name": "bets",
          "outputs": [
            {
              "internalType": "uint40",
              "name": "choice",
              "type": "uint40"
            },
            {
              "internalType": "uint40",
              "name": "outcome",
              "type": "uint40"
            },
            {
              "internalType": "uint176",
              "name": "placeBlockNumber",
              "type": "uint176"
            },
            {
              "internalType": "uint128",
              "name": "amount",
              "type": "uint128"
            },
            {
              "internalType": "uint128",
              "name": "winAmount",
              "type": "uint128"
            },
            {
              "internalType": "address",
              "name": "player",
              "type": "address"
            },
            {
              "internalType": "address",
              "name": "token",
              "type": "address"
            },
            {
              "internalType": "bool",
              "name": "isSettled",
              "type": "bool"
            }
          ],
          "stateMutability": "view",
          "type": "function"
        },
        {
          "inputs": [],
          "name": "betsLength",
          "outputs": [
            {
              "internalType": "uint256",
              "name": "",
              "type": "uint256"
            }
          ],
          "stateMutability": "view",
          "type": "function"
        },
        {
          "inputs": [
            {
              "internalType": "address",
              "name": "",
              "type": "address"
            }
          ],
          "name": "callers",
          "outputs": [
            {
              "internalType": "bool",
              "name": "",
              "type": "bool"
            }
          ],
          "stateMutability": "view",
          "type": "function"
        },
        {
          "inputs": [],
          "name": "explosionRate",
          "outputs": [
            {
              "internalType": "uint256",
              "name": "",
              "type": "uint256"
            }
          ],
          "stateMutability": "view",
          "type": "function"
        },
        {
          "inputs": [],
          "name": "gameIsLive",
          "outputs": [
            {
              "internalType": "bool",
              "name": "",
              "type": "bool"
            }
          ],
          "stateMutability": "view",
          "type": "function"
        },
        {
          "inputs": [],
          "name": "getAverangeMultiplier",
          "outputs": [
            {
              "internalType": "uint256",
              "name": "",
              "type": "uint256"
            }
          ],
          "stateMutability": "view",
          "type": "function"
        },
        {
          "inputs": [
            {
              "internalType": "address",
              "name": "player",
              "type": "address"
            }
          ],
          "name": "getPlayerBets",
          "outputs": [
            {
              "internalType": "uint256[]",
              "name": "",
              "type": "uint256[]"
            }
          ],
          "stateMutability": "view",
          "type": "function"
        },
        {
          "inputs": [
            {
              "internalType": "address",
              "name": "player",
              "type": "address"
            }
          ],
          "name": "getPlayerInfo",
          "outputs": [
            {
              "internalType": "uint256",
              "name": "",
              "type": "uint256"
            },
            {
              "internalType": "uint256",
              "name": "",
              "type": "uint256"
            },
            {
              "internalType": "uint256",
              "name": "",
              "type": "uint256"
            }
          ],
          "stateMutability": "view",
          "type": "function"
        },
        {
          "inputs": [
            {
              "internalType": "uint256[]",
              "name": "betIds",
              "type": "uint256[]"
            },
            {
              "internalType": "bool",
              "name": "fullList",
              "type": "bool"
            }
          ],
          "name": "getSeveralBets",
          "outputs": [
            {
              "components": [
                {
                  "internalType": "uint40",
                  "name": "choice",
                  "type": "uint40"
                },
                {
                  "internalType": "uint40",
                  "name": "outcome",
                  "type": "uint40"
                },
                {
                  "internalType": "uint176",
                  "name": "placeBlockNumber",
                  "type": "uint176"
                },
                {
                  "internalType": "uint128",
                  "name": "amount",
                  "type": "uint128"
                },
                {
                  "internalType": "uint128",
                  "name": "winAmount",
                  "type": "uint128"
                },
                {
                  "internalType": "address",
                  "name": "player",
                  "type": "address"
                },
                {
                  "internalType": "address",
                  "name": "token",
                  "type": "address"
                },
                {
                  "internalType": "bool",
                  "name": "isSettled",
                  "type": "bool"
                }
              ],
              "internalType": "struct Manager.Bet[]",
              "name": "",
              "type": "tuple[]"
            }
          ],
          "stateMutability": "view",
          "type": "function"
        },
        {
          "inputs": [],
          "name": "maxMultiplier",
          "outputs": [
            {
              "internalType": "uint256",
              "name": "",
              "type": "uint256"
            }
          ],
          "stateMutability": "view",
          "type": "function"
        },
        {
          "inputs": [],
          "name": "minMultiplier",
          "outputs": [
            {
              "internalType": "uint256",
              "name": "",
              "type": "uint256"
            }
          ],
          "stateMutability": "view",
          "type": "function"
        },
        {
          "inputs": [],
          "name": "owner",
          "outputs": [
            {
              "internalType": "address",
              "name": "",
              "type": "address"
            }
          ],
          "stateMutability": "view",
          "type": "function"
        },
        {
          "inputs": [
            {
              "internalType": "address",
              "name": "",
              "type": "address"
            }
          ],
          "name": "pendingIdsPerPlayer",
          "outputs": [
            {
              "internalType": "uint256",
              "name": "",
              "type": "uint256"
            }
          ],
          "stateMutability": "view",
          "type": "function"
        },
        {
          "inputs": [],
          "name": "permit2",
          "outputs": [
            {
              "internalType": "contract ISignatureTransfer",
              "name": "",
              "type": "address"
            }
          ],
          "stateMutability": "view",
          "type": "function"
        },
        {
          "inputs": [
            {
              "internalType": "uint256",
              "name": "multiplierChoice",
              "type": "uint256"
            },
            {
              "components": [
                {
                  "components": [
                    {
                      "internalType": "address",
                      "name": "token",
                      "type": "address"
                    },
                    {
                      "internalType": "uint256",
                      "name": "amount",
                      "type": "uint256"
                    }
                  ],
                  "internalType": "struct ISignatureTransfer.TokenPermissions",
                  "name": "permitted",
                  "type": "tuple"
                },
                {
                  "internalType": "uint256",
                  "name": "nonce",
                  "type": "uint256"
                },
                {
                  "internalType": "uint256",
                  "name": "deadline",
                  "type": "uint256"
                }
              ],
              "internalType": "struct ISignatureTransfer.PermitTransferFrom",
              "name": "permit",
              "type": "tuple"
            },
            {
              "components": [
                {
                  "internalType": "address",
                  "name": "to",
                  "type": "address"
                },
                {
                  "internalType": "uint256",
                  "name": "requestedAmount",
                  "type": "uint256"
                }
              ],
              "internalType": "struct ISignatureTransfer.SignatureTransferDetails",
              "name": "transferDetails",
              "type": "tuple"
            },
            {
              "internalType": "bytes",
              "name": "signature",
              "type": "bytes"
            }
          ],
          "name": "placeBet",
          "outputs": [],
          "stateMutability": "nonpayable",
          "type": "function"
        },
        {
          "inputs": [
            {
              "internalType": "uint256",
              "name": "multiplier",
              "type": "uint256"
            }
          ],
          "name": "playFree",
          "outputs": [
            {
              "internalType": "uint256",
              "name": "",
              "type": "uint256"
            },
            {
              "internalType": "bool",
              "name": "",
              "type": "bool"
            }
          ],
          "stateMutability": "view",
          "type": "function"
        },
        {
          "inputs": [
            {
              "internalType": "address",
              "name": "",
              "type": "address"
            }
          ],
          "name": "playerInfo",
          "outputs": [
            {
              "internalType": "uint32",
              "name": "totalBets",
              "type": "uint32"
            },
            {
              "internalType": "uint256",
              "name": "totalValue",
              "type": "uint256"
            },
            {
              "internalType": "uint256",
              "name": "points",
              "type": "uint256"
            }
          ],
          "stateMutability": "view",
          "type": "function"
        },
        {
          "inputs": [
            {
              "internalType": "uint256",
              "name": "betId",
              "type": "uint256"
            }
          ],
          "name": "refundBet",
          "outputs": [],
          "stateMutability": "nonpayable",
          "type": "function"
        },
        {
          "inputs": [],
          "name": "renounceOwnership",
          "outputs": [],
          "stateMutability": "nonpayable",
          "type": "function"
        },
        {
          "inputs": [
            {
              "internalType": "uint256",
              "name": "_explosionRate",
              "type": "uint256"
            }
          ],
          "name": "setExplosionRate",
          "outputs": [],
          "stateMutability": "nonpayable",
          "type": "function"
        },
        {
          "inputs": [
            {
              "internalType": "address",
              "name": "token",
              "type": "address"
            },
            {
              "internalType": "uint256",
              "name": "_houseEdgeBP",
              "type": "uint256"
            }
          ],
          "name": "setHouseEdgeBP",
          "outputs": [],
          "stateMutability": "nonpayable",
          "type": "function"
        },
        {
          "inputs": [
            {
              "internalType": "address",
              "name": "token",
              "type": "address"
            },
            {
              "internalType": "uint128",
              "name": "_maxBetAmount",
              "type": "uint128"
            }
          ],
          "name": "setMaxBetAmount",
          "outputs": [],
          "stateMutability": "nonpayable",
          "type": "function"
        },
        {
          "inputs": [
            {
              "internalType": "uint256",
              "name": "_maxMultiplier",
              "type": "uint256"
            }
          ],
          "name": "setMaxMultiplier",
          "outputs": [],
          "stateMutability": "nonpayable",
          "type": "function"
        },
        {
          "inputs": [
            {
              "internalType": "address",
              "name": "token",
              "type": "address"
            },
            {
              "internalType": "uint128",
              "name": "_minBetAmount",
              "type": "uint128"
            }
          ],
          "name": "setMinBetAmount",
          "outputs": [],
          "stateMutability": "nonpayable",
          "type": "function"
        },
        {
          "inputs": [
            {
              "internalType": "uint256",
              "name": "_minMultiplier",
              "type": "uint256"
            }
          ],
          "name": "setMinMultiplier",
          "outputs": [],
          "stateMutability": "nonpayable",
          "type": "function"
        },
        {
          "inputs": [
            {
              "internalType": "address",
              "name": "",
              "type": "address"
            }
          ],
          "name": "supportedTokenInfo",
          "outputs": [
            {
              "internalType": "uint128",
              "name": "minBetAmount",
              "type": "uint128"
            },
            {
              "internalType": "uint128",
              "name": "maxBetAmount",
              "type": "uint128"
            },
            {
              "internalType": "uint256",
              "name": "houseEdgeBP",
              "type": "uint256"
            }
          ],
          "stateMutability": "view",
          "type": "function"
        },
        {
          "inputs": [],
          "name": "toggleGameIsLive",
          "outputs": [],
          "stateMutability": "nonpayable",
          "type": "function"
        },
        {
          "inputs": [
            {
              "internalType": "address",
              "name": "newOwner",
              "type": "address"
            }
          ],
          "name": "transferOwnership",
          "outputs": [],
          "stateMutability": "nonpayable",
          "type": "function"
        },
        {
          "inputs": [
            {
              "internalType": "address",
              "name": "beneficiary",
              "type": "address"
            },
            {
              "internalType": "uint256",
              "name": "withdrawAmount",
              "type": "uint256"
            },
            {
              "internalType": "address",
              "name": "token",
              "type": "address"
            }
          ],
          "name": "withdrawCustomTokenFunds",
          "outputs": [],
          "stateMutability": "nonpayable",
          "type": "function"
        }
      ],
      "evm": {
        "bytecode": {
          "linkReferences": {},
          "object": "6080604052606460015561271060025560016006556e22d473030f116ddee9f6b43ac78ba3600760006101000a81548173ffffffffffffffffffffffffffffffffffffffff021916908373ffffffffffffffffffffffffffffffffffffffff16021790555034801561007057600080fd5b503333600073ffffffffffffffffffffffffffffffffffffffff168173ffffffffffffffffffffffffffffffffffffffff16036100e55760006040517f1e4fbdf70000000000000000000000000000000000000000000000000000000081526004016100dc9190610258565b60405180910390fd5b6100f48161015360201b60201c565b50506001600a60003373ffffffffffffffffffffffffffffffffffffffff1673ffffffffffffffffffffffffffffffffffffffff16815260200190815260200160002060006101000a81548160ff021916908315150217905550610273565b60008060009054906101000a900473ffffffffffffffffffffffffffffffffffffffff169050816000806101000a81548173ffffffffffffffffffffffffffffffffffffffff021916908373ffffffffffffffffffffffffffffffffffffffff1602179055508173ffffffffffffffffffffffffffffffffffffffff168173ffffffffffffffffffffffffffffffffffffffff167f8be0079c531659141344cd1fd0a4f28419497f9722a3daafe3b4186f6b6457e060405160405180910390a35050565b600073ffffffffffffffffffffffffffffffffffffffff82169050919050565b600061024282610217565b9050919050565b61025281610237565b82525050565b600060208201905061026d6000830184610249565b92915050565b6146b6806102826000396000f3fe608060405234801561001057600080fd5b50600436106101e55760003560e01c80639f2428fe1161010f578063bbd2e01e116100a2578063e713814311610071578063e71381431461058a578063eaf07c8c146105bc578063efcb3b21146105ec578063f2fde38b1461060a576101e5565b8063bbd2e01e14610502578063c09338a814610520578063d414d0c214610550578063e1fdb4b41461056e576101e5565b8063a24e0d87116100de578063a24e0d8714610490578063a7af380c146104ae578063b14c8009146104ca578063b7dc5752146104e6576101e5565b80639f2428fe146104325780639fd751c71461044e578063a045a6fc1461046a578063a147722714610474576101e5565b80635708e09f11610187578063715018a611610156578063715018a6146103bc5780637bbf4a3f146103c657806381c8ec1b146103f65780638da5cb5b14610414576101e5565b80635708e09f146102f9578063572613981461032a578063593284011461035a578063621999be1461038c576101e5565b806309076344116101c3578063090763441461025657806312261ee71461027257806322af00fa146102905780634b114691146102c7576101e5565b806301526a43146101ea5780630187aea0146102065780630267957614610224575b600080fd5b61020460048036038101906101ff9190612e62565b610626565b005b61020e610638565b60405161021b9190612e9e565b60405180910390f35b61023e60048036038101906102399190612eb9565b61063e565b60405161024d93929190612ef9565b60405180910390f35b610270600480360381019061026b9190612f8e565b610927565b005b61027a6109d0565b604051610287919061302d565b60405180910390f35b6102aa60048036038101906102a59190612e62565b6109f6565b6040516102be9897969594939291906130ee565b60405180910390f35b6102e160048036038101906102dc919061316c565b610b17565b6040516102f0939291906131b8565b60405180910390f35b610313600480360381019061030e9190612e62565b610b51565b6040516103219291906131ef565b60405180910390f35b610344600480360381019061033f919061316c565b610c21565b6040516103519190612e9e565b60405180910390f35b610374600480360381019061036f919061316c565b610c39565b60405161038393929190612ef9565b60405180910390f35b6103a660048036038101906103a1919061324e565b610d2d565b6040516103b39190612e9e565b60405180910390f35b6103c4610d5e565b005b6103e060048036038101906103db919061316c565b610d72565b6040516103ed919061328e565b60405180910390f35b6103fe610d92565b60405161040b9190612e9e565b60405180910390f35b61041c610d98565b60405161042991906132a9565b60405180910390f35b61044c60048036038101906104479190613492565b610dc1565b005b61046860048036038101906104639190612e62565b61164d565b005b61047261165f565b005b61048e60048036038101906104899190613547565b611693565b005b6104986117dc565b6040516104a59190612e9e565b60405180910390f35b6104c860048036038101906104c39190613547565b6117e2565b005b6104e460048036038101906104df9190613587565b61192b565b005b61050060048036038101906104fb9190612e62565b611a73565b005b61050a611a85565b6040516105179190612e9e565b60405180910390f35b61053a600480360381019061053591906136c9565b611a92565b60405161054791906138c2565b60405180910390f35b610558611ffc565b604051610565919061328e565b60405180910390f35b61058860048036038101906105839190612e62565b61200f565b005b6105a4600480360381019061059f919061316c565b61242e565b6040516105b3939291906138e4565b60405180910390f35b6105d660048036038101906105d1919061316c565b612490565b6040516105e391906139d9565b60405180910390f35b6105f461252a565b6040516106019190612e9e565b60405180910390f35b610624600480360381019061061f919061316c565b6125aa565b005b61062e612630565b8060028190555050565b60025481565b6000806000600a60003373ffffffffffffffffffffffffffffffffffffffff1673ffffffffffffffffffffffffffffffffffffffff16815260200190815260200160002060009054906101000a900460ff166106cf576040517f08c379a00000000000000000000000000000000000000000000000000000000081526004016106c690613a58565b60405180910390fd5b6000600386815481106106e5576106e4613a78565b5b9060005260206000209060040201905060008160010160009054906101000a90046fffffffffffffffffffffffffffffffff166fffffffffffffffffffffffffffffffff16148061074b5750600115158160030160149054906101000a900460ff161515145b1561076157600080600093509350935050610920565b600085424484600001600a9054906101000a900475ffffffffffffffffffffffffffffffffffffffffffff1675ffffffffffffffffffffffffffffffffffffffffffff16406040516020016107b99493929190613ab6565b6040516020818303038152906040528051906020012060001c905060006064826107e39190613b2a565b90506006548111610829576107f883896126b7565b8260000160009054906101000a900464ffffffffff166000808264ffffffffff169250955095509550505050610920565b60006001805460025461083c9190613b8a565b6108469190613bbe565b836108519190613b2a565b9050600060646002546108649190613bf2565b90506000826064836108769190613c23565b6108809190613b8a565b836002548461088f9190613c23565b6108999190613b8a565b6108a39190613bf2565b9050600860008154809291906108b890613c65565b91905055508560010160009054906101000a90046fffffffffffffffffffffffffffffffff166fffffffffffffffffffffffffffffffff16600960008282546109019190613bbe565b92505081905550610913868c83612878565b9850985098505050505050505b9250925092565b61092f612630565b60001515600060149054906101000a900460ff16151514610985576040517f08c379a000000000000000000000000000000000000000000000000000000000815260040161097c90613cf9565b60405180910390fd5b80600460008473ffffffffffffffffffffffffffffffffffffffff1673ffffffffffffffffffffffffffffffffffffffff168152602001908152602001600020600101819055505050565b600760009054906101000a900473ffffffffffffffffffffffffffffffffffffffff1681565b60038181548110610a0657600080fd5b90600052602060002090600402016000915090508060000160009054906101000a900464ffffffffff16908060000160059054906101000a900464ffffffffff169080600001600a9054906101000a900475ffffffffffffffffffffffffffffffffffffffffffff16908060010160009054906101000a90046fffffffffffffffffffffffffffffffff16908060010160109054906101000a90046fffffffffffffffffffffffffffffffff16908060020160009054906101000a900473ffffffffffffffffffffffffffffffffffffffff16908060030160009054906101000a900473ffffffffffffffffffffffffffffffffffffffff16908060030160149054906101000a900460ff16905088565b600c6020528060005260406000206000915090508060000160009054906101000a900463ffffffff16908060010154908060020154905083565b60008060004244600143610b659190613b8a565b40604051602001610b7893929190613d19565b6040516020818303038152906040528051906020012060001c9050600060018054600254610ba69190613b8a565b610bb09190613bbe565b82610bbb9190613b2a565b905060006064600254610bce9190613bf2565b9050600082606483610be09190613c23565b610bea9190613b8a565b8360025484610bf99190613c23565b610c039190613b8a565b610c0d9190613bf2565b905080818811159550955050505050915091565b600b6020528060005260406000206000915090505481565b6000806000600c60008573ffffffffffffffffffffffffffffffffffffffff1673ffffffffffffffffffffffffffffffffffffffff16815260200190815260200160002060000160009054906101000a900463ffffffff16600c60008673ffffffffffffffffffffffffffffffffffffffff1673ffffffffffffffffffffffffffffffffffffffff16815260200190815260200160002060010154600c60008773ffffffffffffffffffffffffffffffffffffffff1673ffffffffffffffffffffffffffffffffffffffff168152602001908152602001600020600201548263ffffffff1692509250925092509193909250565b60056020528160005260406000208181548110610d4957600080fd5b90600052602060002001600091509150505481565b610d66612630565b610d706000612bec565b565b600a6020528060005260406000206000915054906101000a900460ff1681565b60065481565b60008060009054906101000a900473ffffffffffffffffffffffffffffffffffffffff16905090565b60008460000151600001519050600085600001516020015190506000339050600060149054906101000a900460ff16610e2f576040517f08c379a0000000000000000000000000000000000000000000000000000000008152600401610e2690613d9c565b60405180910390fd5b87600154108015610e4257506002548811155b610e81576040517f08c379a0000000000000000000000000000000000000000000000000000000008152600401610e7890613e08565b60405180910390fd5b600073ffffffffffffffffffffffffffffffffffffffff168373ffffffffffffffffffffffffffffffffffffffff1603610ef0576040517f08c379a0000000000000000000000000000000000000000000000000000000008152600401610ee790613e74565b60405180910390fd5b600460008473ffffffffffffffffffffffffffffffffffffffff1673ffffffffffffffffffffffffffffffffffffffff16815260200190815260200160002060000160009054906101000a90046fffffffffffffffffffffffffffffffff166fffffffffffffffffffffffffffffffff168210158015610fe05750600460008473ffffffffffffffffffffffffffffffffffffffff1673ffffffffffffffffffffffffffffffffffffffff16815260200190815260200160002060000160109054906101000a90046fffffffffffffffffffffffffffffffff166fffffffffffffffffffffffffffffffff168211155b61101f576040517f08c379a000000000000000000000000000000000000000000000000000000000815260040161101690613ee0565b60405180910390fd5b6000600b60008373ffffffffffffffffffffffffffffffffffffffff1673ffffffffffffffffffffffffffffffffffffffff16815260200190815260200160002054146110a1576040517f08c379a000000000000000000000000000000000000000000000000000000000815260040161109890613f4c565b60405180910390fd5b600760009054906101000a900473ffffffffffffffffffffffffffffffffffffffff1673ffffffffffffffffffffffffffffffffffffffff166330f28b7a88883389896040518663ffffffff1660e01b8152600401611104959493929190614097565b600060405180830381600087803b15801561111e57600080fd5b505af1158015611132573d6000803e3d6000fd5b505050506000600160038054905061114a9190613bbe565b9050600c60008373ffffffffffffffffffffffffffffffffffffffff1673ffffffffffffffffffffffffffffffffffffffff168152602001908152602001600020600001600081819054906101000a900463ffffffff16809291906111ae906140e6565b91906101000a81548163ffffffff021916908363ffffffff1602179055505082600c60008473ffffffffffffffffffffffffffffffffffffffff1673ffffffffffffffffffffffffffffffffffffffff168152602001908152602001600020600101600082825461121f9190613bbe565b9250508190555060018960016112359190613c23565b61123f9190613b8a565b600c60008473ffffffffffffffffffffffffffffffffffffffff1673ffffffffffffffffffffffffffffffffffffffff16815260200190815260200160002060020160008282546112909190613bbe565b92505081905550600c60008373ffffffffffffffffffffffffffffffffffffffff1673ffffffffffffffffffffffffffffffffffffffff16815260200190815260200160002060030181908060018154018082558091505060019003906000526020600020016000909190919091505580600b60008473ffffffffffffffffffffffffffffffffffffffff1673ffffffffffffffffffffffffffffffffffffffff168152602001908152602001600020819055508173ffffffffffffffffffffffffffffffffffffffff16817f0c8bcdba2d7eab17e989c0f1127e932c79e9d78a8420f1be088be84be6d76fe8858c8860405161138f93929190614112565b60405180910390a360036040518061010001604052808b64ffffffffff168152602001600064ffffffffff1681526020014375ffffffffffffffffffffffffffffffffffffffffffff168152602001856fffffffffffffffffffffffffffffffff16815260200160006fffffffffffffffffffffffffffffffff1681526020018473ffffffffffffffffffffffffffffffffffffffff1681526020018673ffffffffffffffffffffffffffffffffffffffff16815260200160001515815250908060018154018082558091505060019003906000526020600020906004020160009091909190915060008201518160000160006101000a81548164ffffffffff021916908364ffffffffff16021790555060208201518160000160056101000a81548164ffffffffff021916908364ffffffffff160217905550604082015181600001600a6101000a81548175ffffffffffffffffffffffffffffffffffffffffffff021916908375ffffffffffffffffffffffffffffffffffffffffffff16021790555060608201518160010160006101000a8154816fffffffffffffffffffffffffffffffff02191690836fffffffffffffffffffffffffffffffff16021790555060808201518160010160106101000a8154816fffffffffffffffffffffffffffffffff02191690836fffffffffffffffffffffffffffffffff16021790555060a08201518160020160006101000a81548173ffffffffffffffffffffffffffffffffffffffff021916908373ffffffffffffffffffffffffffffffffffffffff16021790555060c08201518160030160006101000a81548173ffffffffffffffffffffffffffffffffffffffff021916908373ffffffffffffffffffffffffffffffffffffffff16021790555060e08201518160030160146101000a81548160ff0219169083151502179055505050505050505050505050565b611655612630565b8060018190555050565b611667612630565b600060149054906101000a900460ff1615600060146101000a81548160ff021916908315150217905550565b61169b612630565b600460008373ffffffffffffffffffffffffffffffffffffffff1673ffffffffffffffffffffffffffffffffffffffff16815260200190815260200160002060000160009054906101000a90046fffffffffffffffffffffffffffffffff166fffffffffffffffffffffffffffffffff16816fffffffffffffffffffffffffffffffff161161175f576040517f08c379a0000000000000000000000000000000000000000000000000000000008152600401611756906141bb565b60405180910390fd5b80600460008473ffffffffffffffffffffffffffffffffffffffff1673ffffffffffffffffffffffffffffffffffffffff16815260200190815260200160002060000160106101000a8154816fffffffffffffffffffffffffffffffff02191690836fffffffffffffffffffffffffffffffff1602179055505050565b60015481565b6117ea612630565b600460008373ffffffffffffffffffffffffffffffffffffffff1673ffffffffffffffffffffffffffffffffffffffff16815260200190815260200160002060000160109054906101000a90046fffffffffffffffffffffffffffffffff166fffffffffffffffffffffffffffffffff16816fffffffffffffffffffffffffffffffff16106118ae576040517f08c379a00000000000000000000000000000000000000000000000000000000081526004016118a59061424d565b60405180910390fd5b80600460008473ffffffffffffffffffffffffffffffffffffffff1673ffffffffffffffffffffffffffffffffffffffff16815260200190815260200160002060000160006101000a8154816fffffffffffffffffffffffffffffffff02191690836fffffffffffffffffffffffffffffffff1602179055505050565b611933612630565b8073ffffffffffffffffffffffffffffffffffffffff166370a08231306040518263ffffffff1660e01b815260040161196c91906132a9565b602060405180830381865afa158015611989573d6000803e3d6000fd5b505050506040513d601f19601f820116820180604052508101906119ad9190614282565b8211156119ef576040517f08c379a00000000000000000000000000000000000000000000000000000000081526004016119e6906142fb565b60405180910390fd5b8073ffffffffffffffffffffffffffffffffffffffff1663a9059cbb84846040518363ffffffff1660e01b8152600401611a2a92919061431b565b6020604051808303816000875af1158015611a49573d6000803e3d6000fd5b505050506040513d601f19601f82011682018060405250810190611a6d9190614359565b50505050565b611a7b612630565b8060068190555050565b6000600380549050905090565b60608115611d03576003805480602002602001604051908101604052809291908181526020016000905b82821015611cf85783829060005260206000209060040201604051806101000160405290816000820160009054906101000a900464ffffffffff1664ffffffffff1664ffffffffff1681526020016000820160059054906101000a900464ffffffffff1664ffffffffff1664ffffffffff16815260200160008201600a9054906101000a900475ffffffffffffffffffffffffffffffffffffffffffff1675ffffffffffffffffffffffffffffffffffffffffffff1675ffffffffffffffffffffffffffffffffffffffffffff1681526020016001820160009054906101000a90046fffffffffffffffffffffffffffffffff166fffffffffffffffffffffffffffffffff166fffffffffffffffffffffffffffffffff1681526020016001820160109054906101000a90046fffffffffffffffffffffffffffffffff166fffffffffffffffffffffffffffffffff166fffffffffffffffffffffffffffffffff1681526020016002820160009054906101000a900473ffffffffffffffffffffffffffffffffffffffff1673ffffffffffffffffffffffffffffffffffffffff1673ffffffffffffffffffffffffffffffffffffffff1681526020016003820160009054906101000a900473ffffffffffffffffffffffffffffffffffffffff1673ffffffffffffffffffffffffffffffffffffffff1673ffffffffffffffffffffffffffffffffffffffff1681526020016003820160149054906101000a900460ff16151515158152505081526020019060010190611abc565b505050509050611ff6565b60008351905060008167ffffffffffffffff811115611d2557611d246132da565b5b604051908082528060200260200182016040528015611d5e57816020015b611d4b612d5b565b815260200190600190039081611d435790505b50905060005b8551811015611fef5760006003878381518110611d8457611d83613a78565b5b602002602001015181548110611d9d57611d9c613a78565b5b9060005260206000209060040201905080604051806101000160405290816000820160009054906101000a900464ffffffffff1664ffffffffff1664ffffffffff1681526020016000820160059054906101000a900464ffffffffff1664ffffffffff1664ffffffffff16815260200160008201600a9054906101000a900475ffffffffffffffffffffffffffffffffffffffffffff1675ffffffffffffffffffffffffffffffffffffffffffff1675ffffffffffffffffffffffffffffffffffffffffffff1681526020016001820160009054906101000a90046fffffffffffffffffffffffffffffffff166fffffffffffffffffffffffffffffffff166fffffffffffffffffffffffffffffffff1681526020016001820160109054906101000a90046fffffffffffffffffffffffffffffffff166fffffffffffffffffffffffffffffffff166fffffffffffffffffffffffffffffffff1681526020016002820160009054906101000a900473ffffffffffffffffffffffffffffffffffffffff1673ffffffffffffffffffffffffffffffffffffffff1673ffffffffffffffffffffffffffffffffffffffff1681526020016003820160009054906101000a900473ffffffffffffffffffffffffffffffffffffffff1673ffffffffffffffffffffffffffffffffffffffff1673ffffffffffffffffffffffffffffffffffffffff1681526020016003820160149054906101000a900460ff161515151581525050838381518110611fd657611fd5613a78565b5b6020026020010181905250508080600101915050611d64565b5080925050505b92915050565b600060149054906101000a900460ff1681565b612017612630565b600060149054906101000a900460ff16612066576040517f08c379a000000000000000000000000000000000000000000000000000000000815260040161205d90613d9c565b60405180910390fd5b60006003828154811061207c5761207b613a78565b5b9060005260206000209060040201905060008160010160009054906101000a90046fffffffffffffffffffffffffffffffff166fffffffffffffffffffffffffffffffff16905060008111612106576040517f08c379a00000000000000000000000000000000000000000000000000000000081526004016120fd906143d2565b60405180910390fd5b600015158260030160149054906101000a900460ff1615151461215e576040517f08c379a00000000000000000000000000000000000000000000000000000000081526004016121559061443e565b60405180910390fd5b61546082600001600a9054906101000a900475ffffffffffffffffffffffffffffffffffffffffffff16612192919061445e565b75ffffffffffffffffffffffffffffffffffffffffffff1643116121eb576040517f08c379a00000000000000000000000000000000000000000000000000000000081526004016121e2906144f4565b60405180910390fd5b60008260030160009054906101000a900473ffffffffffffffffffffffffffffffffffffffff169050600061223d838560000160009054906101000a900464ffffffffff1664ffffffffff1684612cb0565b9050600061224b8484612ce1565b905060018560030160146101000a81548160ff021916908315150217905550808560010160106101000a8154816fffffffffffffffffffffffffffffffff02191690836fffffffffffffffffffffffffffffffff1602179055508273ffffffffffffffffffffffffffffffffffffffff1663a9059cbb8660020160009054906101000a900473ffffffffffffffffffffffffffffffffffffffff16836040518363ffffffff1660e01b815260040161230492919061431b565b6020604051808303816000875af1158015612323573d6000803e3d6000fd5b505050506040513d601f19601f820116820180604052508101906123479190614359565b506000600b60008760020160009054906101000a900473ffffffffffffffffffffffffffffffffffffffff1673ffffffffffffffffffffffffffffffffffffffff1673ffffffffffffffffffffffffffffffffffffffff168152602001908152602001600020819055508460020160009054906101000a900473ffffffffffffffffffffffffffffffffffffffff1673ffffffffffffffffffffffffffffffffffffffff16867fb27522330a91a6a320aeeac4733cad91c61b5384667c37acb1855ace8dc34e50838660405161241e929190614514565b60405180910390a3505050505050565b60046020528060005260406000206000915090508060000160009054906101000a90046fffffffffffffffffffffffffffffffff16908060000160109054906101000a90046fffffffffffffffffffffffffffffffff16908060010154905083565b6060600c60008373ffffffffffffffffffffffffffffffffffffffff1673ffffffffffffffffffffffffffffffffffffffff16815260200190815260200160002060030180548060200260200160405190810160405280929190818152602001828054801561251e57602002820191906000526020600020905b81548152602001906001019080831161250a575b50505050509050919050565b60008060005b600380549050811015612595576003818154811061255157612550613a78565b5b906000526020600020906004020160000160009054906101000a900464ffffffffff1664ffffffffff16826125869190613bbe565b91508080600101915050612530565b50600854816125a49190613bf2565b91505090565b6125b2612630565b600073ffffffffffffffffffffffffffffffffffffffff168173ffffffffffffffffffffffffffffffffffffffff16036126245760006040517f1e4fbdf700000000000000000000000000000000000000000000000000000000815260040161261b91906132a9565b60405180910390fd5b61262d81612bec565b50565b612638612d53565b73ffffffffffffffffffffffffffffffffffffffff16612656610d98565b73ffffffffffffffffffffffffffffffffffffffff16146126b557612679612d53565b6040517f118cdaa70000000000000000000000000000000000000000000000000000000081526004016126ac91906132a9565b60405180910390fd5b565b6000600b60008460020160009054906101000a900473ffffffffffffffffffffffffffffffffffffffff1673ffffffffffffffffffffffffffffffffffffffff1673ffffffffffffffffffffffffffffffffffffffff1681526020019081526020016000208190555060018260030160146101000a81548160ff02191690831515021790555060008260010160106101000a8154816fffffffffffffffffffffffffffffffff02191690836fffffffffffffffffffffffffffffffff16021790555060008260000160056101000a81548164ffffffffff021916908364ffffffffff1602179055508160020160009054906101000a900473ffffffffffffffffffffffffffffffffffffffff1673ffffffffffffffffffffffffffffffffffffffff16817ff99272e1d36cae740970460b7b47c8a54e11634eef2bd87a7ef96fc21c10185f8460010160009054906101000a90046fffffffffffffffffffffffffffffffff168560000160009054906101000a900464ffffffffff166000808860030160009054906101000a900473ffffffffffffffffffffffffffffffffffffffff1660405161286c9594939291906145da565b60405180910390a35050565b6000806000806128fb8760010160009054906101000a90046fffffffffffffffffffffffffffffffff166fffffffffffffffffffffffffffffffff168860000160009054906101000a900464ffffffffff1664ffffffffff168960030160009054906101000a900473ffffffffffffffffffffffffffffffffffffffff16612cb0565b90506000858860000160009054906101000a900464ffffffffff1664ffffffffff16111561292a57600061292c565b815b90506000600b60008a60020160009054906101000a900473ffffffffffffffffffffffffffffffffffffffff1673ffffffffffffffffffffffffffffffffffffffff1673ffffffffffffffffffffffffffffffffffffffff1681526020019081526020016000208190555060018860030160146101000a81548160ff021916908315150217905550808860010160106101000a8154816fffffffffffffffffffffffffffffffff02191690836fffffffffffffffffffffffffffffffff160217905550858860000160056101000a81548164ffffffffff021916908364ffffffffff1602179055506000811115612ae5578760030160009054906101000a900473ffffffffffffffffffffffffffffffffffffffff1673ffffffffffffffffffffffffffffffffffffffff1663a9059cbb8960020160009054906101000a900473ffffffffffffffffffffffffffffffffffffffff16846040518363ffffffff1660e01b8152600401612aa092919061431b565b6020604051808303816000875af1158015612abf573d6000803e3d6000fd5b505050506040513d601f19601f82011682018060405250810190612ae39190614359565b505b8760020160009054906101000a900473ffffffffffffffffffffffffffffffffffffffff1673ffffffffffffffffffffffffffffffffffffffff16877ff99272e1d36cae740970460b7b47c8a54e11634eef2bd87a7ef96fc21c10185f8a60010160009054906101000a90046fffffffffffffffffffffffffffffffff168b60000160009054906101000a900464ffffffffff168a868e60030160009054906101000a900473ffffffffffffffffffffffffffffffffffffffff16604051612bb195949392919061462d565b60405180910390a38760000160009054906101000a900464ffffffffff1686828264ffffffffff169250945094509450505093509350939050565b60008060009054906101000a900473ffffffffffffffffffffffffffffffffffffffff169050816000806101000a81548173ffffffffffffffffffffffffffffffffffffffff021916908373ffffffffffffffffffffffffffffffffffffffff1602179055508173ffffffffffffffffffffffffffffffffffffffff168173ffffffffffffffffffffffffffffffffffffffff167f8be0079c531659141344cd1fd0a4f28419497f9722a3daafe3b4186f6b6457e060405160405180910390a35050565b600080612cbd8584612ce1565b905060648482612ccd9190613c23565b612cd79190613bf2565b9150509392505050565b6000612710600460008473ffffffffffffffffffffffffffffffffffffffff1673ffffffffffffffffffffffffffffffffffffffff16815260200190815260200160002060010154612710612d369190613b8a565b84612d419190613c23565b612d4b9190613bf2565b905092915050565b600033905090565b604051806101000160405280600064ffffffffff168152602001600064ffffffffff168152602001600075ffffffffffffffffffffffffffffffffffffffffffff16815260200160006fffffffffffffffffffffffffffffffff16815260200160006fffffffffffffffffffffffffffffffff168152602001600073ffffffffffffffffffffffffffffffffffffffff168152602001600073ffffffffffffffffffffffffffffffffffffffff1681526020016000151581525090565b6000604051905090565b600080fd5b600080fd5b6000819050919050565b612e3f81612e2c565b8114612e4a57600080fd5b50565b600081359050612e5c81612e36565b92915050565b600060208284031215612e7857612e77612e22565b5b6000612e8684828501612e4d565b91505092915050565b612e9881612e2c565b82525050565b6000602082019050612eb36000830184612e8f565b92915050565b60008060408385031215612ed057612ecf612e22565b5b6000612ede85828601612e4d565b9250506020612eef85828601612e4d565b9150509250929050565b6000606082019050612f0e6000830186612e8f565b612f1b6020830185612e8f565b612f286040830184612e8f565b949350505050565b600073ffffffffffffffffffffffffffffffffffffffff82169050919050565b6000612f5b82612f30565b9050919050565b612f6b81612f50565b8114612f7657600080fd5b50565b600081359050612f8881612f62565b92915050565b60008060408385031215612fa557612fa4612e22565b5b6000612fb385828601612f79565b9250506020612fc485828601612e4d565b9150509250929050565b6000819050919050565b6000612ff3612fee612fe984612f30565b612fce565b612f30565b9050919050565b600061300582612fd8565b9050919050565b600061301782612ffa565b9050919050565b6130278161300c565b82525050565b6000602082019050613042600083018461301e565b92915050565b600064ffffffffff82169050919050565b61306281613048565b82525050565b600075ffffffffffffffffffffffffffffffffffffffffffff82169050919050565b61309381613068565b82525050565b60006fffffffffffffffffffffffffffffffff82169050919050565b6130be81613099565b82525050565b6130cd81612f50565b82525050565b60008115159050919050565b6130e8816130d3565b82525050565b600061010082019050613104600083018b613059565b613111602083018a613059565b61311e604083018961308a565b61312b60608301886130b5565b61313860808301876130b5565b61314560a08301866130c4565b61315260c08301856130c4565b61315f60e08301846130df565b9998505050505050505050565b60006020828403121561318257613181612e22565b5b600061319084828501612f79565b91505092915050565b600063ffffffff82169050919050565b6131b281613199565b82525050565b60006060820190506131cd60008301866131a9565b6131da6020830185612e8f565b6131e76040830184612e8f565b949350505050565b60006040820190506132046000830185612e8f565b61321160208301846130df565b9392505050565b6000819050919050565b61322b81613218565b811461323657600080fd5b50565b60008135905061324881613222565b92915050565b6000806040838503121561326557613264612e22565b5b600061327385828601613239565b925050602061328485828601612e4d565b9150509250929050565b60006020820190506132a360008301846130df565b92915050565b60006020820190506132be60008301846130c4565b92915050565b600080fd5b6000601f19601f8301169050919050565b7f4e487b7100000000000000000000000000000000000000000000000000000000600052604160045260246000fd5b613312826132c9565b810181811067ffffffffffffffff82111715613331576133306132da565b5b80604052505050565b6000613344612e18565b90506133508282613309565b919050565b60006040828403121561336b5761336a6132c4565b5b613375604061333a565b9050600061338584828501612f79565b600083015250602061339984828501612e4d565b60208301525092915050565b6000608082840312156133bb576133ba6132c4565b5b6133c5606061333a565b905060006133d584828501613355565b60008301525060406133e984828501612e4d565b60208301525060606133fd84828501612e4d565b60408301525092915050565b600080fd5b60006040828403121561342457613423613409565b5b81905092915050565b600080fd5b600080fd5b600080fd5b60008083601f8401126134525761345161342d565b5b8235905067ffffffffffffffff81111561346f5761346e613432565b5b60208301915083600182028301111561348b5761348a613437565b5b9250929050565b600080600080600061010086880312156134af576134ae612e22565b5b60006134bd88828901612e4d565b95505060206134ce888289016133a5565b94505060a06134df8882890161340e565b93505060e086013567ffffffffffffffff811115613500576134ff612e27565b5b61350c8882890161343c565b92509250509295509295909350565b61352481613099565b811461352f57600080fd5b50565b6000813590506135418161351b565b92915050565b6000806040838503121561355e5761355d612e22565b5b600061356c85828601612f79565b925050602061357d85828601613532565b9150509250929050565b6000806000606084860312156135a05761359f612e22565b5b60006135ae86828701612f79565b93505060206135bf86828701612e4d565b92505060406135d086828701612f79565b9150509250925092565b600067ffffffffffffffff8211156135f5576135f46132da565b5b602082029050602081019050919050565b6000613619613614846135da565b61333a565b9050808382526020820190506020840283018581111561363c5761363b613437565b5b835b8181101561366557806136518882612e4d565b84526020840193505060208101905061363e565b5050509392505050565b600082601f8301126136845761368361342d565b5b8135613694848260208601613606565b91505092915050565b6136a6816130d3565b81146136b157600080fd5b50565b6000813590506136c38161369d565b92915050565b600080604083850312156136e0576136df612e22565b5b600083013567ffffffffffffffff8111156136fe576136fd612e27565b5b61370a8582860161366f565b925050602061371b858286016136b4565b9150509250929050565b600081519050919050565b600082825260208201905092915050565b6000819050602082019050919050565b61375a81613048565b82525050565b61376981613068565b82525050565b61377881613099565b82525050565b61378781612f50565b82525050565b613796816130d3565b82525050565b610100820160008201516137b36000850182613751565b5060208201516137c66020850182613751565b5060408201516137d96040850182613760565b5060608201516137ec606085018261376f565b5060808201516137ff608085018261376f565b5060a082015161381260a085018261377e565b5060c082015161382560c085018261377e565b5060e082015161383860e085018261378d565b50505050565b600061384a838361379c565b6101008301905092915050565b6000602082019050919050565b600061386f82613725565b6138798185613730565b935061388483613741565b8060005b838110156138b557815161389c888261383e565b97506138a783613857565b925050600181019050613888565b5085935050505092915050565b600060208201905081810360008301526138dc8184613864565b905092915050565b60006060820190506138f960008301866130b5565b61390660208301856130b5565b6139136040830184612e8f565b949350505050565b600081519050919050565b600082825260208201905092915050565b6000819050602082019050919050565b61395081612e2c565b82525050565b60006139628383613947565b60208301905092915050565b6000602082019050919050565b60006139868261391b565b6139908185613926565b935061399b83613937565b8060005b838110156139cc5781516139b38882613956565b97506139be8361396e565b92505060018101905061399f565b5085935050505092915050565b600060208201905081810360008301526139f3818461397b565b905092915050565b600082825260208201905092915050565b7f43616c6c6572206973206e6f7420617574686f72697a65640000000000000000600082015250565b6000613a426018836139fb565b9150613a4d82613a0c565b602082019050919050565b60006020820190508181036000830152613a7181613a35565b9050919050565b7f4e487b7100000000000000000000000000000000000000000000000000000000600052603260045260246000fd5b613ab081613218565b82525050565b6000608082019050613acb6000830187612e8f565b613ad86020830186612e8f565b613ae56040830185612e8f565b613af26060830184613aa7565b95945050505050565b7f4e487b7100000000000000000000000000000000000000000000000000000000600052601260045260246000fd5b6000613b3582612e2c565b9150613b4083612e2c565b925082613b5057613b4f613afb565b5b828206905092915050565b7f4e487b7100000000000000000000000000000000000000000000000000000000600052601160045260246000fd5b6000613b9582612e2c565b9150613ba083612e2c565b9250828203905081811115613bb857613bb7613b5b565b5b92915050565b6000613bc982612e2c565b9150613bd483612e2c565b9250828201905080821115613bec57613beb613b5b565b5b92915050565b6000613bfd82612e2c565b9150613c0883612e2c565b925082613c1857613c17613afb565b5b828204905092915050565b6000613c2e82612e2c565b9150613c3983612e2c565b9250828202613c4781612e2c565b91508282048414831517613c5e57613c5d613b5b565b5b5092915050565b6000613c7082612e2c565b91507fffffffffffffffffffffffffffffffffffffffffffffffffffffffffffffffff8203613ca257613ca1613b5b565b5b600182019050919050565b7f4265747320696e2070656e64696e670000000000000000000000000000000000600082015250565b6000613ce3600f836139fb565b9150613cee82613cad565b602082019050919050565b60006020820190508181036000830152613d1281613cd6565b9050919050565b6000606082019050613d2e6000830186612e8f565b613d3b6020830185612e8f565b613d486040830184613aa7565b949350505050565b7f47616d65206973206e6f74206c69766500000000000000000000000000000000600082015250565b6000613d866010836139fb565b9150613d9182613d50565b602082019050919050565b60006020820190508181036000830152613db581613d79565b9050919050565b7f426574206d61736b206e6f7420696e2072616e67650000000000000000000000600082015250565b6000613df26015836139fb565b9150613dfd82613dbc565b602082019050919050565b60006020820190508181036000830152613e2181613de5565b9050919050565b7f546f6b656e20616464726573732063616e6e6f74206265203000000000000000600082015250565b6000613e5e6019836139fb565b9150613e6982613e28565b602082019050919050565b60006020820190508181036000830152613e8d81613e51565b9050919050565b7f42657420616d6f756e74206e6f742077697468696e2072616e67650000000000600082015250565b6000613eca601b836139fb565b9150613ed582613e94565b602082019050919050565b60006020820190508181036000830152613ef981613ebd565b9050919050565b7f596f75206861766520612070656e64696e672062657400000000000000000000600082015250565b6000613f366016836139fb565b9150613f4182613f00565b602082019050919050565b60006020820190508181036000830152613f6581613f29565b9050919050565b604082016000820151613f82600085018261377e565b506020820151613f956020850182613947565b50505050565b608082016000820151613fb16000850182613f6c565b506020820151613fc46040850182613947565b506040820151613fd76060850182613947565b50505050565b6000613fec6020840184612f79565b905092915050565b60006140036020840184612e4d565b905092915050565b6040820161401c6000830183613fdd565b614029600085018261377e565b506140376020830183613ff4565b6140446020850182613947565b50505050565b600082825260208201905092915050565b82818337600083830152505050565b6000614076838561404a565b935061408383858461405b565b61408c836132c9565b840190509392505050565b6000610100820190506140ad6000830188613f9b565b6140ba608083018761400b565b6140c760c08301866130c4565b81810360e08301526140da81848661406a565b90509695505050505050565b60006140f182613199565b915063ffffffff820361410757614106613b5b565b5b600182019050919050565b60006060820190506141276000830186612e8f565b6141346020830185612e8f565b61414160408301846130c4565b949350505050565b7f4d617820616d6f756e74206d7573742062652067726561746572207468616e2060008201527f6d696e20616d6f756e7400000000000000000000000000000000000000000000602082015250565b60006141a5602a836139fb565b91506141b082614149565b604082019050919050565b600060208201905081810360008301526141d481614198565b9050919050565b7f4d696e20616d6f756e74206d757374206265206c657373207468616e206d617860008201527f20616d6f756e7400000000000000000000000000000000000000000000000000602082015250565b60006142376027836139fb565b9150614242826141db565b604082019050919050565b600060208201905081810360008301526142668161422a565b9050919050565b60008151905061427c81612e36565b92915050565b60006020828403121561429857614297612e22565b5b60006142a68482850161426d565b91505092915050565b7f5769746864726177616c2065786365656473206c696d69740000000000000000600082015250565b60006142e56018836139fb565b91506142f0826142af565b602082019050919050565b60006020820190508181036000830152614314816142d8565b9050919050565b600060408201905061433060008301856130c4565b61433d6020830184612e8f565b9392505050565b6000815190506143538161369d565b92915050565b60006020828403121561436f5761436e612e22565b5b600061437d84828501614344565b91505092915050565b7f42657420646f6573206e6f742065786973740000000000000000000000000000600082015250565b60006143bc6012836139fb565b91506143c782614386565b602082019050919050565b600060208201905081810360008301526143eb816143af565b9050919050565b7f42657420697320736574746c656420616c726561647900000000000000000000600082015250565b60006144286016836139fb565b9150614433826143f2565b602082019050919050565b600060208201905081810360008301526144578161441b565b9050919050565b600061446982613068565b915061447483613068565b9250828201905075ffffffffffffffffffffffffffffffffffffffffffff8111156144a2576144a1613b5b565b5b92915050565b7f57616974206265666f72652072657175657374696e6720726566756e64000000600082015250565b60006144de601d836139fb565b91506144e9826144a8565b602082019050919050565b6000602082019050818103600083015261450d816144d1565b9050919050565b60006040820190506145296000830185612e8f565b61453660208301846130c4565b9392505050565b600061455861455361454e84613099565b612fce565b612e2c565b9050919050565b6145688161453d565b82525050565b600061458961458461457f84613048565b612fce565b612e2c565b9050919050565b6145998161456e565b82525050565b6000819050919050565b60006145c46145bf6145ba8461459f565b612fce565b612e2c565b9050919050565b6145d4816145a9565b82525050565b600060a0820190506145ef600083018861455f565b6145fc6020830187614590565b61460960408301866145cb565b61461660608301856145cb565b61462360808301846130c4565b9695505050505050565b600060a082019050614642600083018861455f565b61464f6020830187614590565b61465c6040830186612e8f565b6146696060830185612e8f565b61467660808301846130c4565b969550505050505056fea264697066735822122075360a53f00f334def296cbea1e49ae0deeab0b438e354d9c477c4d11bf741d064736f6c634300081c0033",
          "opcodes": "PUSH1 0x80 PUSH1 0x40 MSTORE PUSH1 0x64 PUSH1 0x1 SSTORE PUSH2 0x2710 PUSH1 0x2 SSTORE PUSH1 0x1 PUSH1 0x6 SSTORE PUSH15 0x22D473030F116DDEE9F6B43AC78BA3 PUSH1 0x7 PUSH1 0x0 PUSH2 0x100 EXP DUP2 SLOAD DUP2 PUSH20 0xFFFFFFFFFFFFFFFFFFFFFFFFFFFFFFFFFFFFFFFF MUL NOT AND SWAP1 DUP4 PUSH20 0xFFFFFFFFFFFFFFFFFFFFFFFFFFFFFFFFFFFFFFFF AND MUL OR SWAP1 SSTORE POP CALLVALUE DUP1 ISZERO PUSH2 0x70 JUMPI PUSH1 0x0 DUP1 REVERT JUMPDEST POP CALLER CALLER PUSH1 0x0 PUSH20 0xFFFFFFFFFFFFFFFFFFFFFFFFFFFFFFFFFFFFFFFF AND DUP2 PUSH20 0xFFFFFFFFFFFFFFFFFFFFFFFFFFFFFFFFFFFFFFFF AND SUB PUSH2 0xE5 JUMPI PUSH1 0x0 PUSH1 0x40 MLOAD PUSH32 0x1E4FBDF700000000000000000000000000000000000000000000000000000000 DUP2 MSTORE PUSH1 0x4 ADD PUSH2 0xDC SWAP2 SWAP1 PUSH2 0x258 JUMP JUMPDEST PUSH1 0x40 MLOAD DUP1 SWAP2 SUB SWAP1 REVERT JUMPDEST PUSH2 0xF4 DUP2 PUSH2 0x153 PUSH1 0x20 SHL PUSH1 0x20 SHR JUMP JUMPDEST POP POP PUSH1 0x1 PUSH1 0xA PUSH1 0x0 CALLER PUSH20 0xFFFFFFFFFFFFFFFFFFFFFFFFFFFFFFFFFFFFFFFF AND PUSH20 0xFFFFFFFFFFFFFFFFFFFFFFFFFFFFFFFFFFFFFFFF AND DUP2 MSTORE PUSH1 0x20 ADD SWAP1 DUP2 MSTORE PUSH1 0x20 ADD PUSH1 0x0 KECCAK256 PUSH1 0x0 PUSH2 0x100 EXP DUP2 SLOAD DUP2 PUSH1 0xFF MUL NOT AND SWAP1 DUP4 ISZERO ISZERO MUL OR SWAP1 SSTORE POP PUSH2 0x273 JUMP JUMPDEST PUSH1 0x0 DUP1 PUSH1 0x0 SWAP1 SLOAD SWAP1 PUSH2 0x100 EXP SWAP1 DIV PUSH20 0xFFFFFFFFFFFFFFFFFFFFFFFFFFFFFFFFFFFFFFFF AND SWAP1 POP DUP2 PUSH1 0x0 DUP1 PUSH2 0x100 EXP DUP2 SLOAD DUP2 PUSH20 0xFFFFFFFFFFFFFFFFFFFFFFFFFFFFFFFFFFFFFFFF MUL NOT AND SWAP1 DUP4 PUSH20 0xFFFFFFFFFFFFFFFFFFFFFFFFFFFFFFFFFFFFFFFF AND MUL OR SWAP1 SSTORE POP DUP2 PUSH20 0xFFFFFFFFFFFFFFFFFFFFFFFFFFFFFFFFFFFFFFFF AND DUP2 PUSH20 0xFFFFFFFFFFFFFFFFFFFFFFFFFFFFFFFFFFFFFFFF AND PUSH32 0x8BE0079C531659141344CD1FD0A4F28419497F9722A3DAAFE3B4186F6B6457E0 PUSH1 0x40 MLOAD PUSH1 0x40 MLOAD DUP1 SWAP2 SUB SWAP1 LOG3 POP POP JUMP JUMPDEST PUSH1 0x0 PUSH20 0xFFFFFFFFFFFFFFFFFFFFFFFFFFFFFFFFFFFFFFFF DUP3 AND SWAP1 POP SWAP2 SWAP1 POP JUMP JUMPDEST PUSH1 0x0 PUSH2 0x242 DUP3 PUSH2 0x217 JUMP JUMPDEST SWAP1 POP SWAP2 SWAP1 POP JUMP JUMPDEST PUSH2 0x252 DUP2 PUSH2 0x237 JUMP JUMPDEST DUP3 MSTORE POP POP JUMP JUMPDEST PUSH1 0x0 PUSH1 0x20 DUP3 ADD SWAP1 POP PUSH2 0x26D PUSH1 0x0 DUP4 ADD DUP5 PUSH2 0x249 JUMP JUMPDEST SWAP3 SWAP2 POP POP JUMP JUMPDEST PUSH2 0x46B6 DUP1 PUSH2 0x282 PUSH1 0x0 CODECOPY PUSH1 0x0 RETURN INVALID PUSH1 0x80 PUSH1 0x40 MSTORE CALLVALUE DUP1 ISZERO PUSH2 0x10 JUMPI PUSH1 0x0 DUP1 REVERT JUMPDEST POP PUSH1 0x4 CALLDATASIZE LT PUSH2 0x1E5 JUMPI PUSH1 0x0 CALLDATALOAD PUSH1 0xE0 SHR DUP1 PUSH4 0x9F2428FE GT PUSH2 0x10F JUMPI DUP1 PUSH4 0xBBD2E01E GT PUSH2 0xA2 JUMPI DUP1 PUSH4 0xE7138143 GT PUSH2 0x71 JUMPI DUP1 PUSH4 0xE7138143 EQ PUSH2 0x58A JUMPI DUP1 PUSH4 0xEAF07C8C EQ PUSH2 0x5BC JUMPI DUP1 PUSH4 0xEFCB3B21 EQ PUSH2 0x5EC JUMPI DUP1 PUSH4 0xF2FDE38B EQ PUSH2 0x60A JUMPI PUSH2 0x1E5 JUMP JUMPDEST DUP1 PUSH4 0xBBD2E01E EQ PUSH2 0x502 JUMPI DUP1 PUSH4 0xC09338A8 EQ PUSH2 0x520 JUMPI DUP1 PUSH4 0xD414D0C2 EQ PUSH2 0x550 JUMPI DUP1 PUSH4 0xE1FDB4B4 EQ PUSH2 0x56E JUMPI PUSH2 0x1E5 JUMP JUMPDEST DUP1 PUSH4 0xA24E0D87 GT PUSH2 0xDE JUMPI DUP1 PUSH4 0xA24E0D87 EQ PUSH2 0x490 JUMPI DUP1 PUSH4 0xA7AF380C EQ PUSH2 0x4AE JUMPI DUP1 PUSH4 0xB14C8009 EQ PUSH2 0x4CA JUMPI DUP1 PUSH4 0xB7DC5752 EQ PUSH2 0x4E6 JUMPI PUSH2 0x1E5 JUMP JUMPDEST DUP1 PUSH4 0x9F2428FE EQ PUSH2 0x432 JUMPI DUP1 PUSH4 0x9FD751C7 EQ PUSH2 0x44E JUMPI DUP1 PUSH4 0xA045A6FC EQ PUSH2 0x46A JUMPI DUP1 PUSH4 0xA1477227 EQ PUSH2 0x474 JUMPI PUSH2 0x1E5 JUMP JUMPDEST DUP1 PUSH4 0x5708E09F GT PUSH2 0x187 JUMPI DUP1 PUSH4 0x715018A6 GT PUSH2 0x156 JUMPI DUP1 PUSH4 0x715018A6 EQ PUSH2 0x3BC JUMPI DUP1 PUSH4 0x7BBF4A3F EQ PUSH2 0x3C6 JUMPI DUP1 PUSH4 0x81C8EC1B EQ PUSH2 0x3F6 JUMPI DUP1 PUSH4 0x8DA5CB5B EQ PUSH2 0x414 JUMPI PUSH2 0x1E5 JUMP JUMPDEST DUP1 PUSH4 0x5708E09F EQ PUSH2 0x2F9 JUMPI DUP1 PUSH4 0x57261398 EQ PUSH2 0x32A JUMPI DUP1 PUSH4 0x59328401 EQ PUSH2 0x35A JUMPI DUP1 PUSH4 0x621999BE EQ PUSH2 0x38C JUMPI PUSH2 0x1E5 JUMP JUMPDEST DUP1 PUSH4 0x9076344 GT PUSH2 0x1C3 JUMPI DUP1 PUSH4 0x9076344 EQ PUSH2 0x256 JUMPI DUP1 PUSH4 0x12261EE7 EQ PUSH2 0x272 JUMPI DUP1 PUSH4 0x22AF00FA EQ PUSH2 0x290 JUMPI DUP1 PUSH4 0x4B114691 EQ PUSH2 0x2C7 JUMPI PUSH2 0x1E5 JUMP JUMPDEST DUP1 PUSH4 0x1526A43 EQ PUSH2 0x1EA JUMPI DUP1 PUSH4 0x187AEA0 EQ PUSH2 0x206 JUMPI DUP1 PUSH4 0x2679576 EQ PUSH2 0x224 JUMPI JUMPDEST PUSH1 0x0 DUP1 REVERT JUMPDEST PUSH2 0x204 PUSH1 0x4 DUP1 CALLDATASIZE SUB DUP2 ADD SWAP1 PUSH2 0x1FF SWAP2 SWAP1 PUSH2 0x2E62 JUMP JUMPDEST PUSH2 0x626 JUMP JUMPDEST STOP JUMPDEST PUSH2 0x20E PUSH2 0x638 JUMP JUMPDEST PUSH1 0x40 MLOAD PUSH2 0x21B SWAP2 SWAP1 PUSH2 0x2E9E JUMP JUMPDEST PUSH1 0x40 MLOAD DUP1 SWAP2 SUB SWAP1 RETURN JUMPDEST PUSH2 0x23E PUSH1 0x4 DUP1 CALLDATASIZE SUB DUP2 ADD SWAP1 PUSH2 0x239 SWAP2 SWAP1 PUSH2 0x2EB9 JUMP JUMPDEST PUSH2 0x63E JUMP JUMPDEST PUSH1 0x40 MLOAD PUSH2 0x24D SWAP4 SWAP3 SWAP2 SWAP1 PUSH2 0x2EF9 JUMP JUMPDEST PUSH1 0x40 MLOAD DUP1 SWAP2 SUB SWAP1 RETURN JUMPDEST PUSH2 0x270 PUSH1 0x4 DUP1 CALLDATASIZE SUB DUP2 ADD SWAP1 PUSH2 0x26B SWAP2 SWAP1 PUSH2 0x2F8E JUMP JUMPDEST PUSH2 0x927 JUMP JUMPDEST STOP JUMPDEST PUSH2 0x27A PUSH2 0x9D0 JUMP JUMPDEST PUSH1 0x40 MLOAD PUSH2 0x287 SWAP2 SWAP1 PUSH2 0x302D JUMP JUMPDEST PUSH1 0x40 MLOAD DUP1 SWAP2 SUB SWAP1 RETURN JUMPDEST PUSH2 0x2AA PUSH1 0x4 DUP1 CALLDATASIZE SUB DUP2 ADD SWAP1 PUSH2 0x2A5 SWAP2 SWAP1 PUSH2 0x2E62 JUMP JUMPDEST PUSH2 0x9F6 JUMP JUMPDEST PUSH1 0x40 MLOAD PUSH2 0x2BE SWAP9 SWAP8 SWAP7 SWAP6 SWAP5 SWAP4 SWAP3 SWAP2 SWAP1 PUSH2 0x30EE JUMP JUMPDEST PUSH1 0x40 MLOAD DUP1 SWAP2 SUB SWAP1 RETURN JUMPDEST PUSH2 0x2E1 PUSH1 0x4 DUP1 CALLDATASIZE SUB DUP2 ADD SWAP1 PUSH2 0x2DC SWAP2 SWAP1 PUSH2 0x316C JUMP JUMPDEST PUSH2 0xB17 JUMP JUMPDEST PUSH1 0x40 MLOAD PUSH2 0x2F0 SWAP4 SWAP3 SWAP2 SWAP1 PUSH2 0x31B8 JUMP JUMPDEST PUSH1 0x40 MLOAD DUP1 SWAP2 SUB SWAP1 RETURN JUMPDEST PUSH2 0x313 PUSH1 0x4 DUP1 CALLDATASIZE SUB DUP2 ADD SWAP1 PUSH2 0x30E SWAP2 SWAP1 PUSH2 0x2E62 JUMP JUMPDEST PUSH2 0xB51 JUMP JUMPDEST PUSH1 0x40 MLOAD PUSH2 0x321 SWAP3 SWAP2 SWAP1 PUSH2 0x31EF JUMP JUMPDEST PUSH1 0x40 MLOAD DUP1 SWAP2 SUB SWAP1 RETURN JUMPDEST PUSH2 0x344 PUSH1 0x4 DUP1 CALLDATASIZE SUB DUP2 ADD SWAP1 PUSH2 0x33F SWAP2 SWAP1 PUSH2 0x316C JUMP JUMPDEST PUSH2 0xC21 JUMP JUMPDEST PUSH1 0x40 MLOAD PUSH2 0x351 SWAP2 SWAP1 PUSH2 0x2E9E JUMP JUMPDEST PUSH1 0x40 MLOAD DUP1 SWAP2 SUB SWAP1 RETURN JUMPDEST PUSH2 0x374 PUSH1 0x4 DUP1 CALLDATASIZE SUB DUP2 ADD SWAP1 PUSH2 0x36F SWAP2 SWAP1 PUSH2 0x316C JUMP JUMPDEST PUSH2 0xC39 JUMP JUMPDEST PUSH1 0x40 MLOAD PUSH2 0x383 SWAP4 SWAP3 SWAP2 SWAP1 PUSH2 0x2EF9 JUMP JUMPDEST PUSH1 0x40 MLOAD DUP1 SWAP2 SUB SWAP1 RETURN JUMPDEST PUSH2 0x3A6 PUSH1 0x4 DUP1 CALLDATASIZE SUB DUP2 ADD SWAP1 PUSH2 0x3A1 SWAP2 SWAP1 PUSH2 0x324E JUMP JUMPDEST PUSH2 0xD2D JUMP JUMPDEST PUSH1 0x40 MLOAD PUSH2 0x3B3 SWAP2 SWAP1 PUSH2 0x2E9E JUMP JUMPDEST PUSH1 0x40 MLOAD DUP1 SWAP2 SUB SWAP1 RETURN JUMPDEST PUSH2 0x3C4 PUSH2 0xD5E JUMP JUMPDEST STOP JUMPDEST PUSH2 0x3E0 PUSH1 0x4 DUP1 CALLDATASIZE SUB DUP2 ADD SWAP1 PUSH2 0x3DB SWAP2 SWAP1 PUSH2 0x316C JUMP JUMPDEST PUSH2 0xD72 JUMP JUMPDEST PUSH1 0x40 MLOAD PUSH2 0x3ED SWAP2 SWAP1 PUSH2 0x328E JUMP JUMPDEST PUSH1 0x40 MLOAD DUP1 SWAP2 SUB SWAP1 RETURN JUMPDEST PUSH2 0x3FE PUSH2 0xD92 JUMP JUMPDEST PUSH1 0x40 MLOAD PUSH2 0x40B SWAP2 SWAP1 PUSH2 0x2E9E JUMP JUMPDEST PUSH1 0x40 MLOAD DUP1 SWAP2 SUB SWAP1 RETURN JUMPDEST PUSH2 0x41C PUSH2 0xD98 JUMP JUMPDEST PUSH1 0x40 MLOAD PUSH2 0x429 SWAP2 SWAP1 PUSH2 0x32A9 JUMP JUMPDEST PUSH1 0x40 MLOAD DUP1 SWAP2 SUB SWAP1 RETURN JUMPDEST PUSH2 0x44C PUSH1 0x4 DUP1 CALLDATASIZE SUB DUP2 ADD SWAP1 PUSH2 0x447 SWAP2 SWAP1 PUSH2 0x3492 JUMP JUMPDEST PUSH2 0xDC1 JUMP JUMPDEST STOP JUMPDEST PUSH2 0x468 PUSH1 0x4 DUP1 CALLDATASIZE SUB DUP2 ADD SWAP1 PUSH2 0x463 SWAP2 SWAP1 PUSH2 0x2E62 JUMP JUMPDEST PUSH2 0x164D JUMP JUMPDEST STOP JUMPDEST PUSH2 0x472 PUSH2 0x165F JUMP JUMPDEST STOP JUMPDEST PUSH2 0x48E PUSH1 0x4 DUP1 CALLDATASIZE SUB DUP2 ADD SWAP1 PUSH2 0x489 SWAP2 SWAP1 PUSH2 0x3547 JUMP JUMPDEST PUSH2 0x1693 JUMP JUMPDEST STOP JUMPDEST PUSH2 0x498 PUSH2 0x17DC JUMP JUMPDEST PUSH1 0x40 MLOAD PUSH2 0x4A5 SWAP2 SWAP1 PUSH2 0x2E9E JUMP JUMPDEST PUSH1 0x40 MLOAD DUP1 SWAP2 SUB SWAP1 RETURN JUMPDEST PUSH2 0x4C8 PUSH1 0x4 DUP1 CALLDATASIZE SUB DUP2 ADD SWAP1 PUSH2 0x4C3 SWAP2 SWAP1 PUSH2 0x3547 JUMP JUMPDEST PUSH2 0x17E2 JUMP JUMPDEST STOP JUMPDEST PUSH2 0x4E4 PUSH1 0x4 DUP1 CALLDATASIZE SUB DUP2 ADD SWAP1 PUSH2 0x4DF SWAP2 SWAP1 PUSH2 0x3587 JUMP JUMPDEST PUSH2 0x192B JUMP JUMPDEST STOP JUMPDEST PUSH2 0x500 PUSH1 0x4 DUP1 CALLDATASIZE SUB DUP2 ADD SWAP1 PUSH2 0x4FB SWAP2 SWAP1 PUSH2 0x2E62 JUMP JUMPDEST PUSH2 0x1A73 JUMP JUMPDEST STOP JUMPDEST PUSH2 0x50A PUSH2 0x1A85 JUMP JUMPDEST PUSH1 0x40 MLOAD PUSH2 0x517 SWAP2 SWAP1 PUSH2 0x2E9E JUMP JUMPDEST PUSH1 0x40 MLOAD DUP1 SWAP2 SUB SWAP1 RETURN JUMPDEST PUSH2 0x53A PUSH1 0x4 DUP1 CALLDATASIZE SUB DUP2 ADD SWAP1 PUSH2 0x535 SWAP2 SWAP1 PUSH2 0x36C9 JUMP JUMPDEST PUSH2 0x1A92 JUMP JUMPDEST PUSH1 0x40 MLOAD PUSH2 0x547 SWAP2 SWAP1 PUSH2 0x38C2 JUMP JUMPDEST PUSH1 0x40 MLOAD DUP1 SWAP2 SUB SWAP1 RETURN JUMPDEST PUSH2 0x558 PUSH2 0x1FFC JUMP JUMPDEST PUSH1 0x40 MLOAD PUSH2 0x565 SWAP2 SWAP1 PUSH2 0x328E JUMP JUMPDEST PUSH1 0x40 MLOAD DUP1 SWAP2 SUB SWAP1 RETURN JUMPDEST PUSH2 0x588 PUSH1 0x4 DUP1 CALLDATASIZE SUB DUP2 ADD SWAP1 PUSH2 0x583 SWAP2 SWAP1 PUSH2 0x2E62 JUMP JUMPDEST PUSH2 0x200F JUMP JUMPDEST STOP JUMPDEST PUSH2 0x5A4 PUSH1 0x4 DUP1 CALLDATASIZE SUB DUP2 ADD SWAP1 PUSH2 0x59F SWAP2 SWAP1 PUSH2 0x316C JUMP JUMPDEST PUSH2 0x242E JUMP JUMPDEST PUSH1 0x40 MLOAD PUSH2 0x5B3 SWAP4 SWAP3 SWAP2 SWAP1 PUSH2 0x38E4 JUMP JUMPDEST PUSH1 0x40 MLOAD DUP1 SWAP2 SUB SWAP1 RETURN JUMPDEST PUSH2 0x5D6 PUSH1 0x4 DUP1 CALLDATASIZE SUB DUP2 ADD SWAP1 PUSH2 0x5D1 SWAP2 SWAP1 PUSH2 0x316C JUMP JUMPDEST PUSH2 0x2490 JUMP JUMPDEST PUSH1 0x40 MLOAD PUSH2 0x5E3 SWAP2 SWAP1 PUSH2 0x39D9 JUMP JUMPDEST PUSH1 0x40 MLOAD DUP1 SWAP2 SUB SWAP1 RETURN JUMPDEST PUSH2 0x5F4 PUSH2 0x252A JUMP JUMPDEST PUSH1 0x40 MLOAD PUSH2 0x601 SWAP2 SWAP1 PUSH2 0x2E9E JUMP JUMPDEST PUSH1 0x40 MLOAD DUP1 SWAP2 SUB SWAP1 RETURN JUMPDEST PUSH2 0x624 PUSH1 0x4 DUP1 CALLDATASIZE SUB DUP2 ADD SWAP1 PUSH2 0x61F SWAP2 SWAP1 PUSH2 0x316C JUMP JUMPDEST PUSH2 0x25AA JUMP JUMPDEST STOP JUMPDEST PUSH2 0x62E PUSH2 0x2630 JUMP JUMPDEST DUP1 PUSH1 0x2 DUP2 SWAP1 SSTORE POP POP JUMP JUMPDEST PUSH1 0x2 SLOAD DUP2 JUMP JUMPDEST PUSH1 0x0 DUP1 PUSH1 0x0 PUSH1 0xA PUSH1 0x0 CALLER PUSH20 0xFFFFFFFFFFFFFFFFFFFFFFFFFFFFFFFFFFFFFFFF AND PUSH20 0xFFFFFFFFFFFFFFFFFFFFFFFFFFFFFFFFFFFFFFFF AND DUP2 MSTORE PUSH1 0x20 ADD SWAP1 DUP2 MSTORE PUSH1 0x20 ADD PUSH1 0x0 KECCAK256 PUSH1 0x0 SWAP1 SLOAD SWAP1 PUSH2 0x100 EXP SWAP1 DIV PUSH1 0xFF AND PUSH2 0x6CF JUMPI PUSH1 0x40 MLOAD PUSH32 0x8C379A000000000000000000000000000000000000000000000000000000000 DUP2 MSTORE PUSH1 0x4 ADD PUSH2 0x6C6 SWAP1 PUSH2 0x3A58 JUMP JUMPDEST PUSH1 0x40 MLOAD DUP1 SWAP2 SUB SWAP1 REVERT JUMPDEST PUSH1 0x0 PUSH1 0x3 DUP7 DUP2 SLOAD DUP2 LT PUSH2 0x6E5 JUMPI PUSH2 0x6E4 PUSH2 0x3A78 JUMP JUMPDEST JUMPDEST SWAP1 PUSH1 0x0 MSTORE PUSH1 0x20 PUSH1 0x0 KECCAK256 SWAP1 PUSH1 0x4 MUL ADD SWAP1 POP PUSH1 0x0 DUP2 PUSH1 0x1 ADD PUSH1 0x0 SWAP1 SLOAD SWAP1 PUSH2 0x100 EXP SWAP1 DIV PUSH16 0xFFFFFFFFFFFFFFFFFFFFFFFFFFFFFFFF AND PUSH16 0xFFFFFFFFFFFFFFFFFFFFFFFFFFFFFFFF AND EQ DUP1 PUSH2 0x74B JUMPI POP PUSH1 0x1 ISZERO ISZERO DUP2 PUSH1 0x3 ADD PUSH1 0x14 SWAP1 SLOAD SWAP1 PUSH2 0x100 EXP SWAP1 DIV PUSH1 0xFF AND ISZERO ISZERO EQ JUMPDEST ISZERO PUSH2 0x761 JUMPI PUSH1 0x0 DUP1 PUSH1 0x0 SWAP4 POP SWAP4 POP SWAP4 POP POP PUSH2 0x920 JUMP JUMPDEST PUSH1 0x0 DUP6 TIMESTAMP PREVRANDAO DUP5 PUSH1 0x0 ADD PUSH1 0xA SWAP1 SLOAD SWAP1 PUSH2 0x100 EXP SWAP1 DIV PUSH22 0xFFFFFFFFFFFFFFFFFFFFFFFFFFFFFFFFFFFFFFFFFFFF AND PUSH22 0xFFFFFFFFFFFFFFFFFFFFFFFFFFFFFFFFFFFFFFFFFFFF AND BLOCKHASH PUSH1 0x40 MLOAD PUSH1 0x20 ADD PUSH2 0x7B9 SWAP5 SWAP4 SWAP3 SWAP2 SWAP1 PUSH2 0x3AB6 JUMP JUMPDEST PUSH1 0x40 MLOAD PUSH1 0x20 DUP2 DUP4 SUB SUB DUP2 MSTORE SWAP1 PUSH1 0x40 MSTORE DUP1 MLOAD SWAP1 PUSH1 0x20 ADD KECCAK256 PUSH1 0x0 SHR SWAP1 POP PUSH1 0x0 PUSH1 0x64 DUP3 PUSH2 0x7E3 SWAP2 SWAP1 PUSH2 0x3B2A JUMP JUMPDEST SWAP1 POP PUSH1 0x6 SLOAD DUP2 GT PUSH2 0x829 JUMPI PUSH2 0x7F8 DUP4 DUP10 PUSH2 0x26B7 JUMP JUMPDEST DUP3 PUSH1 0x0 ADD PUSH1 0x0 SWAP1 SLOAD SWAP1 PUSH2 0x100 EXP SWAP1 DIV PUSH5 0xFFFFFFFFFF AND PUSH1 0x0 DUP1 DUP3 PUSH5 0xFFFFFFFFFF AND SWAP3 POP SWAP6 POP SWAP6 POP SWAP6 POP POP POP POP PUSH2 0x920 JUMP JUMPDEST PUSH1 0x0 PUSH1 0x1 DUP1 SLOAD PUSH1 0x2 SLOAD PUSH2 0x83C SWAP2 SWAP1 PUSH2 0x3B8A JUMP JUMPDEST PUSH2 0x846 SWAP2 SWAP1 PUSH2 0x3BBE JUMP JUMPDEST DUP4 PUSH2 0x851 SWAP2 SWAP1 PUSH2 0x3B2A JUMP JUMPDEST SWAP1 POP PUSH1 0x0 PUSH1 0x64 PUSH1 0x2 SLOAD PUSH2 0x864 SWAP2 SWAP1 PUSH2 0x3BF2 JUMP JUMPDEST SWAP1 POP PUSH1 0x0 DUP3 PUSH1 0x64 DUP4 PUSH2 0x876 SWAP2 SWAP1 PUSH2 0x3C23 JUMP JUMPDEST PUSH2 0x880 SWAP2 SWAP1 PUSH2 0x3B8A JUMP JUMPDEST DUP4 PUSH1 0x2 SLOAD DUP5 PUSH2 0x88F SWAP2 SWAP1 PUSH2 0x3C23 JUMP JUMPDEST PUSH2 0x899 SWAP2 SWAP1 PUSH2 0x3B8A JUMP JUMPDEST PUSH2 0x8A3 SWAP2 SWAP1 PUSH2 0x3BF2 JUMP JUMPDEST SWAP1 POP PUSH1 0x8 PUSH1 0x0 DUP2 SLOAD DUP1 SWAP3 SWAP2 SWAP1 PUSH2 0x8B8 SWAP1 PUSH2 0x3C65 JUMP JUMPDEST SWAP2 SWAP1 POP SSTORE POP DUP6 PUSH1 0x1 ADD PUSH1 0x0 SWAP1 SLOAD SWAP1 PUSH2 0x100 EXP SWAP1 DIV PUSH16 0xFFFFFFFFFFFFFFFFFFFFFFFFFFFFFFFF AND PUSH16 0xFFFFFFFFFFFFFFFFFFFFFFFFFFFFFFFF AND PUSH1 0x9 PUSH1 0x0 DUP3 DUP3 SLOAD PUSH2 0x901 SWAP2 SWAP1 PUSH2 0x3BBE JUMP JUMPDEST SWAP3 POP POP DUP2 SWAP1 SSTORE POP PUSH2 0x913 DUP7 DUP13 DUP4 PUSH2 0x2878 JUMP JUMPDEST SWAP9 POP SWAP9 POP SWAP9 POP POP POP POP POP POP POP JUMPDEST SWAP3 POP SWAP3 POP SWAP3 JUMP JUMPDEST PUSH2 0x92F PUSH2 0x2630 JUMP JUMPDEST PUSH1 0x0 ISZERO ISZERO PUSH1 0x0 PUSH1 0x14 SWAP1 SLOAD SWAP1 PUSH2 0x100 EXP SWAP1 DIV PUSH1 0xFF AND ISZERO ISZERO EQ PUSH2 0x985 JUMPI PUSH1 0x40 MLOAD PUSH32 0x8C379A000000000000000000000000000000000000000000000000000000000 DUP2 MSTORE PUSH1 0x4 ADD PUSH2 0x97C SWAP1 PUSH2 0x3CF9 JUMP JUMPDEST PUSH1 0x40 MLOAD DUP1 SWAP2 SUB SWAP1 REVERT JUMPDEST DUP1 PUSH1 0x4 PUSH1 0x0 DUP5 PUSH20 0xFFFFFFFFFFFFFFFFFFFFFFFFFFFFFFFFFFFFFFFF AND PUSH20 0xFFFFFFFFFFFFFFFFFFFFFFFFFFFFFFFFFFFFFFFF AND DUP2 MSTORE PUSH1 0x20 ADD SWAP1 DUP2 MSTORE PUSH1 0x20 ADD PUSH1 0x0 KECCAK256 PUSH1 0x1 ADD DUP2 SWAP1 SSTORE POP POP POP JUMP JUMPDEST PUSH1 0x7 PUSH1 0x0 SWAP1 SLOAD SWAP1 PUSH2 0x100 EXP SWAP1 DIV PUSH20 0xFFFFFFFFFFFFFFFFFFFFFFFFFFFFFFFFFFFFFFFF AND DUP2 JUMP JUMPDEST PUSH1 0x3 DUP2 DUP2 SLOAD DUP2 LT PUSH2 0xA06 JUMPI PUSH1 0x0 DUP1 REVERT JUMPDEST SWAP1 PUSH1 0x0 MSTORE PUSH1 0x20 PUSH1 0x0 KECCAK256 SWAP1 PUSH1 0x4 MUL ADD PUSH1 0x0 SWAP2 POP SWAP1 POP DUP1 PUSH1 0x0 ADD PUSH1 0x0 SWAP1 SLOAD SWAP1 PUSH2 0x100 EXP SWAP1 DIV PUSH5 0xFFFFFFFFFF AND SWAP1 DUP1 PUSH1 0x0 ADD PUSH1 0x5 SWAP1 SLOAD SWAP1 PUSH2 0x100 EXP SWAP1 DIV PUSH5 0xFFFFFFFFFF AND SWAP1 DUP1 PUSH1 0x0 ADD PUSH1 0xA SWAP1 SLOAD SWAP1 PUSH2 0x100 EXP SWAP1 DIV PUSH22 0xFFFFFFFFFFFFFFFFFFFFFFFFFFFFFFFFFFFFFFFFFFFF AND SWAP1 DUP1 PUSH1 0x1 ADD PUSH1 0x0 SWAP1 SLOAD SWAP1 PUSH2 0x100 EXP SWAP1 DIV PUSH16 0xFFFFFFFFFFFFFFFFFFFFFFFFFFFFFFFF AND SWAP1 DUP1 PUSH1 0x1 ADD PUSH1 0x10 SWAP1 SLOAD SWAP1 PUSH2 0x100 EXP SWAP1 DIV PUSH16 0xFFFFFFFFFFFFFFFFFFFFFFFFFFFFFFFF AND SWAP1 DUP1 PUSH1 0x2 ADD PUSH1 0x0 SWAP1 SLOAD SWAP1 PUSH2 0x100 EXP SWAP1 DIV PUSH20 0xFFFFFFFFFFFFFFFFFFFFFFFFFFFFFFFFFFFFFFFF AND SWAP1 DUP1 PUSH1 0x3 ADD PUSH1 0x0 SWAP1 SLOAD SWAP1 PUSH2 0x100 EXP SWAP1 DIV PUSH20 0xFFFFFFFFFFFFFFFFFFFFFFFFFFFFFFFFFFFFFFFF AND SWAP1 DUP1 PUSH1 0x3 ADD PUSH1 0x14 SWAP1 SLOAD SWAP1 PUSH2 0x100 EXP SWAP1 DIV PUSH1 0xFF AND SWAP1 POP DUP9 JUMP JUMPDEST PUSH1 0xC PUSH1 0x20 MSTORE DUP1 PUSH1 0x0 MSTORE PUSH1 0x40 PUSH1 0x0 KECCAK256 PUSH1 0x0 SWAP2 POP SWAP1 POP DUP1 PUSH1 0x0 ADD PUSH1 0x0 SWAP1 SLOAD SWAP1 PUSH2 0x100 EXP SWAP1 DIV PUSH4 0xFFFFFFFF AND SWAP1 DUP1 PUSH1 0x1 ADD SLOAD SWAP1 DUP1 PUSH1 0x2 ADD SLOAD SWAP1 POP DUP4 JUMP JUMPDEST PUSH1 0x0 DUP1 PUSH1 0x0 TIMESTAMP PREVRANDAO PUSH1 0x1 NUMBER PUSH2 0xB65 SWAP2 SWAP1 PUSH2 0x3B8A JUMP JUMPDEST BLOCKHASH PUSH1 0x40 MLOAD PUSH1 0x20 ADD PUSH2 0xB78 SWAP4 SWAP3 SWAP2 SWAP1 PUSH2 0x3D19 JUMP JUMPDEST PUSH1 0x40 MLOAD PUSH1 0x20 DUP2 DUP4 SUB SUB DUP2 MSTORE SWAP1 PUSH1 0x40 MSTORE DUP1 MLOAD SWAP1 PUSH1 0x20 ADD KECCAK256 PUSH1 0x0 SHR SWAP1 POP PUSH1 0x0 PUSH1 0x1 DUP1 SLOAD PUSH1 0x2 SLOAD PUSH2 0xBA6 SWAP2 SWAP1 PUSH2 0x3B8A JUMP JUMPDEST PUSH2 0xBB0 SWAP2 SWAP1 PUSH2 0x3BBE JUMP JUMPDEST DUP3 PUSH2 0xBBB SWAP2 SWAP1 PUSH2 0x3B2A JUMP JUMPDEST SWAP1 POP PUSH1 0x0 PUSH1 0x64 PUSH1 0x2 SLOAD PUSH2 0xBCE SWAP2 SWAP1 PUSH2 0x3BF2 JUMP JUMPDEST SWAP1 POP PUSH1 0x0 DUP3 PUSH1 0x64 DUP4 PUSH2 0xBE0 SWAP2 SWAP1 PUSH2 0x3C23 JUMP JUMPDEST PUSH2 0xBEA SWAP2 SWAP1 PUSH2 0x3B8A JUMP JUMPDEST DUP4 PUSH1 0x2 SLOAD DUP5 PUSH2 0xBF9 SWAP2 SWAP1 PUSH2 0x3C23 JUMP JUMPDEST PUSH2 0xC03 SWAP2 SWAP1 PUSH2 0x3B8A JUMP JUMPDEST PUSH2 0xC0D SWAP2 SWAP1 PUSH2 0x3BF2 JUMP JUMPDEST SWAP1 POP DUP1 DUP2 DUP9 GT ISZERO SWAP6 POP SWAP6 POP POP POP POP POP SWAP2 POP SWAP2 JUMP JUMPDEST PUSH1 0xB PUSH1 0x20 MSTORE DUP1 PUSH1 0x0 MSTORE PUSH1 0x40 PUSH1 0x0 KECCAK256 PUSH1 0x0 SWAP2 POP SWAP1 POP SLOAD DUP2 JUMP JUMPDEST PUSH1 0x0 DUP1 PUSH1 0x0 PUSH1 0xC PUSH1 0x0 DUP6 PUSH20 0xFFFFFFFFFFFFFFFFFFFFFFFFFFFFFFFFFFFFFFFF AND PUSH20 0xFFFFFFFFFFFFFFFFFFFFFFFFFFFFFFFFFFFFFFFF AND DUP2 MSTORE PUSH1 0x20 ADD SWAP1 DUP2 MSTORE PUSH1 0x20 ADD PUSH1 0x0 KECCAK256 PUSH1 0x0 ADD PUSH1 0x0 SWAP1 SLOAD SWAP1 PUSH2 0x100 EXP SWAP1 DIV PUSH4 0xFFFFFFFF AND PUSH1 0xC PUSH1 0x0 DUP7 PUSH20 0xFFFFFFFFFFFFFFFFFFFFFFFFFFFFFFFFFFFFFFFF AND PUSH20 0xFFFFFFFFFFFFFFFFFFFFFFFFFFFFFFFFFFFFFFFF AND DUP2 MSTORE PUSH1 0x20 ADD SWAP1 DUP2 MSTORE PUSH1 0x20 ADD PUSH1 0x0 KECCAK256 PUSH1 0x1 ADD SLOAD PUSH1 0xC PUSH1 0x0 DUP8 PUSH20 0xFFFFFFFFFFFFFFFFFFFFFFFFFFFFFFFFFFFFFFFF AND PUSH20 0xFFFFFFFFFFFFFFFFFFFFFFFFFFFFFFFFFFFFFFFF AND DUP2 MSTORE PUSH1 0x20 ADD SWAP1 DUP2 MSTORE PUSH1 0x20 ADD PUSH1 0x0 KECCAK256 PUSH1 0x2 ADD SLOAD DUP3 PUSH4 0xFFFFFFFF AND SWAP3 POP SWAP3 POP SWAP3 POP SWAP3 POP SWAP2 SWAP4 SWAP1 SWAP3 POP JUMP JUMPDEST PUSH1 0x5 PUSH1 0x20 MSTORE DUP2 PUSH1 0x0 MSTORE PUSH1 0x40 PUSH1 0x0 KECCAK256 DUP2 DUP2 SLOAD DUP2 LT PUSH2 0xD49 JUMPI PUSH1 0x0 DUP1 REVERT JUMPDEST SWAP1 PUSH1 0x0 MSTORE PUSH1 0x20 PUSH1 0x0 KECCAK256 ADD PUSH1 0x0 SWAP2 POP SWAP2 POP POP SLOAD DUP2 JUMP JUMPDEST PUSH2 0xD66 PUSH2 0x2630 JUMP JUMPDEST PUSH2 0xD70 PUSH1 0x0 PUSH2 0x2BEC JUMP JUMPDEST JUMP JUMPDEST PUSH1 0xA PUSH1 0x20 MSTORE DUP1 PUSH1 0x0 MSTORE PUSH1 0x40 PUSH1 0x0 KECCAK256 PUSH1 0x0 SWAP2 POP SLOAD SWAP1 PUSH2 0x100 EXP SWAP1 DIV PUSH1 0xFF AND DUP2 JUMP JUMPDEST PUSH1 0x6 SLOAD DUP2 JUMP JUMPDEST PUSH1 0x0 DUP1 PUSH1 0x0 SWAP1 SLOAD SWAP1 PUSH2 0x100 EXP SWAP1 DIV PUSH20 0xFFFFFFFFFFFFFFFFFFFFFFFFFFFFFFFFFFFFFFFF AND SWAP1 POP SWAP1 JUMP JUMPDEST PUSH1 0x0 DUP5 PUSH1 0x0 ADD MLOAD PUSH1 0x0 ADD MLOAD SWAP1 POP PUSH1 0x0 DUP6 PUSH1 0x0 ADD MLOAD PUSH1 0x20 ADD MLOAD SWAP1 POP PUSH1 0x0 CALLER SWAP1 POP PUSH1 0x0 PUSH1 0x14 SWAP1 SLOAD SWAP1 PUSH2 0x100 EXP SWAP1 DIV PUSH1 0xFF AND PUSH2 0xE2F JUMPI PUSH1 0x40 MLOAD PUSH32 0x8C379A000000000000000000000000000000000000000000000000000000000 DUP2 MSTORE PUSH1 0x4 ADD PUSH2 0xE26 SWAP1 PUSH2 0x3D9C JUMP JUMPDEST PUSH1 0x40 MLOAD DUP1 SWAP2 SUB SWAP1 REVERT JUMPDEST DUP8 PUSH1 0x1 SLOAD LT DUP1 ISZERO PUSH2 0xE42 JUMPI POP PUSH1 0x2 SLOAD DUP9 GT ISZERO JUMPDEST PUSH2 0xE81 JUMPI PUSH1 0x40 MLOAD PUSH32 0x8C379A000000000000000000000000000000000000000000000000000000000 DUP2 MSTORE PUSH1 0x4 ADD PUSH2 0xE78 SWAP1 PUSH2 0x3E08 JUMP JUMPDEST PUSH1 0x40 MLOAD DUP1 SWAP2 SUB SWAP1 REVERT JUMPDEST PUSH1 0x0 PUSH20 0xFFFFFFFFFFFFFFFFFFFFFFFFFFFFFFFFFFFFFFFF AND DUP4 PUSH20 0xFFFFFFFFFFFFFFFFFFFFFFFFFFFFFFFFFFFFFFFF AND SUB PUSH2 0xEF0 JUMPI PUSH1 0x40 MLOAD PUSH32 0x8C379A000000000000000000000000000000000000000000000000000000000 DUP2 MSTORE PUSH1 0x4 ADD PUSH2 0xEE7 SWAP1 PUSH2 0x3E74 JUMP JUMPDEST PUSH1 0x40 MLOAD DUP1 SWAP2 SUB SWAP1 REVERT JUMPDEST PUSH1 0x4 PUSH1 0x0 DUP5 PUSH20 0xFFFFFFFFFFFFFFFFFFFFFFFFFFFFFFFFFFFFFFFF AND PUSH20 0xFFFFFFFFFFFFFFFFFFFFFFFFFFFFFFFFFFFFFFFF AND DUP2 MSTORE PUSH1 0x20 ADD SWAP1 DUP2 MSTORE PUSH1 0x20 ADD PUSH1 0x0 KECCAK256 PUSH1 0x0 ADD PUSH1 0x0 SWAP1 SLOAD SWAP1 PUSH2 0x100 EXP SWAP1 DIV PUSH16 0xFFFFFFFFFFFFFFFFFFFFFFFFFFFFFFFF AND PUSH16 0xFFFFFFFFFFFFFFFFFFFFFFFFFFFFFFFF AND DUP3 LT ISZERO DUP1 ISZERO PUSH2 0xFE0 JUMPI POP PUSH1 0x4 PUSH1 0x0 DUP5 PUSH20 0xFFFFFFFFFFFFFFFFFFFFFFFFFFFFFFFFFFFFFFFF AND PUSH20 0xFFFFFFFFFFFFFFFFFFFFFFFFFFFFFFFFFFFFFFFF AND DUP2 MSTORE PUSH1 0x20 ADD SWAP1 DUP2 MSTORE PUSH1 0x20 ADD PUSH1 0x0 KECCAK256 PUSH1 0x0 ADD PUSH1 0x10 SWAP1 SLOAD SWAP1 PUSH2 0x100 EXP SWAP1 DIV PUSH16 0xFFFFFFFFFFFFFFFFFFFFFFFFFFFFFFFF AND PUSH16 0xFFFFFFFFFFFFFFFFFFFFFFFFFFFFFFFF AND DUP3 GT ISZERO JUMPDEST PUSH2 0x101F JUMPI PUSH1 0x40 MLOAD PUSH32 0x8C379A000000000000000000000000000000000000000000000000000000000 DUP2 MSTORE PUSH1 0x4 ADD PUSH2 0x1016 SWAP1 PUSH2 0x3EE0 JUMP JUMPDEST PUSH1 0x40 MLOAD DUP1 SWAP2 SUB SWAP1 REVERT JUMPDEST PUSH1 0x0 PUSH1 0xB PUSH1 0x0 DUP4 PUSH20 0xFFFFFFFFFFFFFFFFFFFFFFFFFFFFFFFFFFFFFFFF AND PUSH20 0xFFFFFFFFFFFFFFFFFFFFFFFFFFFFFFFFFFFFFFFF AND DUP2 MSTORE PUSH1 0x20 ADD SWAP1 DUP2 MSTORE PUSH1 0x20 ADD PUSH1 0x0 KECCAK256 SLOAD EQ PUSH2 0x10A1 JUMPI PUSH1 0x40 MLOAD PUSH32 0x8C379A000000000000000000000000000000000000000000000000000000000 DUP2 MSTORE PUSH1 0x4 ADD PUSH2 0x1098 SWAP1 PUSH2 0x3F4C JUMP JUMPDEST PUSH1 0x40 MLOAD DUP1 SWAP2 SUB SWAP1 REVERT JUMPDEST PUSH1 0x7 PUSH1 0x0 SWAP1 SLOAD SWAP1 PUSH2 0x100 EXP SWAP1 DIV PUSH20 0xFFFFFFFFFFFFFFFFFFFFFFFFFFFFFFFFFFFFFFFF AND PUSH20 0xFFFFFFFFFFFFFFFFFFFFFFFFFFFFFFFFFFFFFFFF AND PUSH4 0x30F28B7A DUP9 DUP9 CALLER DUP10 DUP10 PUSH1 0x40 MLOAD DUP7 PUSH4 0xFFFFFFFF AND PUSH1 0xE0 SHL DUP2 MSTORE PUSH1 0x4 ADD PUSH2 0x1104 SWAP6 SWAP5 SWAP4 SWAP3 SWAP2 SWAP1 PUSH2 0x4097 JUMP JUMPDEST PUSH1 0x0 PUSH1 0x40 MLOAD DUP1 DUP4 SUB DUP2 PUSH1 0x0 DUP8 DUP1 EXTCODESIZE ISZERO DUP1 ISZERO PUSH2 0x111E JUMPI PUSH1 0x0 DUP1 REVERT JUMPDEST POP GAS CALL ISZERO DUP1 ISZERO PUSH2 0x1132 JUMPI RETURNDATASIZE PUSH1 0x0 DUP1 RETURNDATACOPY RETURNDATASIZE PUSH1 0x0 REVERT JUMPDEST POP POP POP POP PUSH1 0x0 PUSH1 0x1 PUSH1 0x3 DUP1 SLOAD SWAP1 POP PUSH2 0x114A SWAP2 SWAP1 PUSH2 0x3BBE JUMP JUMPDEST SWAP1 POP PUSH1 0xC PUSH1 0x0 DUP4 PUSH20 0xFFFFFFFFFFFFFFFFFFFFFFFFFFFFFFFFFFFFFFFF AND PUSH20 0xFFFFFFFFFFFFFFFFFFFFFFFFFFFFFFFFFFFFFFFF AND DUP2 MSTORE PUSH1 0x20 ADD SWAP1 DUP2 MSTORE PUSH1 0x20 ADD PUSH1 0x0 KECCAK256 PUSH1 0x0 ADD PUSH1 0x0 DUP2 DUP2 SWAP1 SLOAD SWAP1 PUSH2 0x100 EXP SWAP1 DIV PUSH4 0xFFFFFFFF AND DUP1 SWAP3 SWAP2 SWAP1 PUSH2 0x11AE SWAP1 PUSH2 0x40E6 JUMP JUMPDEST SWAP2 SWAP1 PUSH2 0x100 EXP DUP2 SLOAD DUP2 PUSH4 0xFFFFFFFF MUL NOT AND SWAP1 DUP4 PUSH4 0xFFFFFFFF AND MUL OR SWAP1 SSTORE POP POP DUP3 PUSH1 0xC PUSH1 0x0 DUP5 PUSH20 0xFFFFFFFFFFFFFFFFFFFFFFFFFFFFFFFFFFFFFFFF AND PUSH20 0xFFFFFFFFFFFFFFFFFFFFFFFFFFFFFFFFFFFFFFFF AND DUP2 MSTORE PUSH1 0x20 ADD SWAP1 DUP2 MSTORE PUSH1 0x20 ADD PUSH1 0x0 KECCAK256 PUSH1 0x1 ADD PUSH1 0x0 DUP3 DUP3 SLOAD PUSH2 0x121F SWAP2 SWAP1 PUSH2 0x3BBE JUMP JUMPDEST SWAP3 POP POP DUP2 SWAP1 SSTORE POP PUSH1 0x1 DUP10 PUSH1 0x1 PUSH2 0x1235 SWAP2 SWAP1 PUSH2 0x3C23 JUMP JUMPDEST PUSH2 0x123F SWAP2 SWAP1 PUSH2 0x3B8A JUMP JUMPDEST PUSH1 0xC PUSH1 0x0 DUP5 PUSH20 0xFFFFFFFFFFFFFFFFFFFFFFFFFFFFFFFFFFFFFFFF AND PUSH20 0xFFFFFFFFFFFFFFFFFFFFFFFFFFFFFFFFFFFFFFFF AND DUP2 MSTORE PUSH1 0x20 ADD SWAP1 DUP2 MSTORE PUSH1 0x20 ADD PUSH1 0x0 KECCAK256 PUSH1 0x2 ADD PUSH1 0x0 DUP3 DUP3 SLOAD PUSH2 0x1290 SWAP2 SWAP1 PUSH2 0x3BBE JUMP JUMPDEST SWAP3 POP POP DUP2 SWAP1 SSTORE POP PUSH1 0xC PUSH1 0x0 DUP4 PUSH20 0xFFFFFFFFFFFFFFFFFFFFFFFFFFFFFFFFFFFFFFFF AND PUSH20 0xFFFFFFFFFFFFFFFFFFFFFFFFFFFFFFFFFFFFFFFF AND DUP2 MSTORE PUSH1 0x20 ADD SWAP1 DUP2 MSTORE PUSH1 0x20 ADD PUSH1 0x0 KECCAK256 PUSH1 0x3 ADD DUP2 SWAP1 DUP1 PUSH1 0x1 DUP2 SLOAD ADD DUP1 DUP3 SSTORE DUP1 SWAP2 POP POP PUSH1 0x1 SWAP1 SUB SWAP1 PUSH1 0x0 MSTORE PUSH1 0x20 PUSH1 0x0 KECCAK256 ADD PUSH1 0x0 SWAP1 SWAP2 SWAP1 SWAP2 SWAP1 SWAP2 POP SSTORE DUP1 PUSH1 0xB PUSH1 0x0 DUP5 PUSH20 0xFFFFFFFFFFFFFFFFFFFFFFFFFFFFFFFFFFFFFFFF AND PUSH20 0xFFFFFFFFFFFFFFFFFFFFFFFFFFFFFFFFFFFFFFFF AND DUP2 MSTORE PUSH1 0x20 ADD SWAP1 DUP2 MSTORE PUSH1 0x20 ADD PUSH1 0x0 KECCAK256 DUP2 SWAP1 SSTORE POP DUP2 PUSH20 0xFFFFFFFFFFFFFFFFFFFFFFFFFFFFFFFFFFFFFFFF AND DUP2 PUSH32 0xC8BCDBA2D7EAB17E989C0F1127E932C79E9D78A8420F1BE088BE84BE6D76FE8 DUP6 DUP13 DUP9 PUSH1 0x40 MLOAD PUSH2 0x138F SWAP4 SWAP3 SWAP2 SWAP1 PUSH2 0x4112 JUMP JUMPDEST PUSH1 0x40 MLOAD DUP1 SWAP2 SUB SWAP1 LOG3 PUSH1 0x3 PUSH1 0x40 MLOAD DUP1 PUSH2 0x100 ADD PUSH1 0x40 MSTORE DUP1 DUP12 PUSH5 0xFFFFFFFFFF AND DUP2 MSTORE PUSH1 0x20 ADD PUSH1 0x0 PUSH5 0xFFFFFFFFFF AND DUP2 MSTORE PUSH1 0x20 ADD NUMBER PUSH22 0xFFFFFFFFFFFFFFFFFFFFFFFFFFFFFFFFFFFFFFFFFFFF AND DUP2 MSTORE PUSH1 0x20 ADD DUP6 PUSH16 0xFFFFFFFFFFFFFFFFFFFFFFFFFFFFFFFF AND DUP2 MSTORE PUSH1 0x20 ADD PUSH1 0x0 PUSH16 0xFFFFFFFFFFFFFFFFFFFFFFFFFFFFFFFF AND DUP2 MSTORE PUSH1 0x20 ADD DUP5 PUSH20 0xFFFFFFFFFFFFFFFFFFFFFFFFFFFFFFFFFFFFFFFF AND DUP2 MSTORE PUSH1 0x20 ADD DUP7 PUSH20 0xFFFFFFFFFFFFFFFFFFFFFFFFFFFFFFFFFFFFFFFF AND DUP2 MSTORE PUSH1 0x20 ADD PUSH1 0x0 ISZERO ISZERO DUP2 MSTORE POP SWAP1 DUP1 PUSH1 0x1 DUP2 SLOAD ADD DUP1 DUP3 SSTORE DUP1 SWAP2 POP POP PUSH1 0x1 SWAP1 SUB SWAP1 PUSH1 0x0 MSTORE PUSH1 0x20 PUSH1 0x0 KECCAK256 SWAP1 PUSH1 0x4 MUL ADD PUSH1 0x0 SWAP1 SWAP2 SWAP1 SWAP2 SWAP1 SWAP2 POP PUSH1 0x0 DUP3 ADD MLOAD DUP2 PUSH1 0x0 ADD PUSH1 0x0 PUSH2 0x100 EXP DUP2 SLOAD DUP2 PUSH5 0xFFFFFFFFFF MUL NOT AND SWAP1 DUP4 PUSH5 0xFFFFFFFFFF AND MUL OR SWAP1 SSTORE POP PUSH1 0x20 DUP3 ADD MLOAD DUP2 PUSH1 0x0 ADD PUSH1 0x5 PUSH2 0x100 EXP DUP2 SLOAD DUP2 PUSH5 0xFFFFFFFFFF MUL NOT AND SWAP1 DUP4 PUSH5 0xFFFFFFFFFF AND MUL OR SWAP1 SSTORE POP PUSH1 0x40 DUP3 ADD MLOAD DUP2 PUSH1 0x0 ADD PUSH1 0xA PUSH2 0x100 EXP DUP2 SLOAD DUP2 PUSH22 0xFFFFFFFFFFFFFFFFFFFFFFFFFFFFFFFFFFFFFFFFFFFF MUL NOT AND SWAP1 DUP4 PUSH22 0xFFFFFFFFFFFFFFFFFFFFFFFFFFFFFFFFFFFFFFFFFFFF AND MUL OR SWAP1 SSTORE POP PUSH1 0x60 DUP3 ADD MLOAD DUP2 PUSH1 0x1 ADD PUSH1 0x0 PUSH2 0x100 EXP DUP2 SLOAD DUP2 PUSH16 0xFFFFFFFFFFFFFFFFFFFFFFFFFFFFFFFF MUL NOT AND SWAP1 DUP4 PUSH16 0xFFFFFFFFFFFFFFFFFFFFFFFFFFFFFFFF AND MUL OR SWAP1 SSTORE POP PUSH1 0x80 DUP3 ADD MLOAD DUP2 PUSH1 0x1 ADD PUSH1 0x10 PUSH2 0x100 EXP DUP2 SLOAD DUP2 PUSH16 0xFFFFFFFFFFFFFFFFFFFFFFFFFFFFFFFF MUL NOT AND SWAP1 DUP4 PUSH16 0xFFFFFFFFFFFFFFFFFFFFFFFFFFFFFFFF AND MUL OR SWAP1 SSTORE POP PUSH1 0xA0 DUP3 ADD MLOAD DUP2 PUSH1 0x2 ADD PUSH1 0x0 PUSH2 0x100 EXP DUP2 SLOAD DUP2 PUSH20 0xFFFFFFFFFFFFFFFFFFFFFFFFFFFFFFFFFFFFFFFF MUL NOT AND SWAP1 DUP4 PUSH20 0xFFFFFFFFFFFFFFFFFFFFFFFFFFFFFFFFFFFFFFFF AND MUL OR SWAP1 SSTORE POP PUSH1 0xC0 DUP3 ADD MLOAD DUP2 PUSH1 0x3 ADD PUSH1 0x0 PUSH2 0x100 EXP DUP2 SLOAD DUP2 PUSH20 0xFFFFFFFFFFFFFFFFFFFFFFFFFFFFFFFFFFFFFFFF MUL NOT AND SWAP1 DUP4 PUSH20 0xFFFFFFFFFFFFFFFFFFFFFFFFFFFFFFFFFFFFFFFF AND MUL OR SWAP1 SSTORE POP PUSH1 0xE0 DUP3 ADD MLOAD DUP2 PUSH1 0x3 ADD PUSH1 0x14 PUSH2 0x100 EXP DUP2 SLOAD DUP2 PUSH1 0xFF MUL NOT AND SWAP1 DUP4 ISZERO ISZERO MUL OR SWAP1 SSTORE POP POP POP POP POP POP POP POP POP POP POP POP JUMP JUMPDEST PUSH2 0x1655 PUSH2 0x2630 JUMP JUMPDEST DUP1 PUSH1 0x1 DUP2 SWAP1 SSTORE POP POP JUMP JUMPDEST PUSH2 0x1667 PUSH2 0x2630 JUMP JUMPDEST PUSH1 0x0 PUSH1 0x14 SWAP1 SLOAD SWAP1 PUSH2 0x100 EXP SWAP1 DIV PUSH1 0xFF AND ISZERO PUSH1 0x0 PUSH1 0x14 PUSH2 0x100 EXP DUP2 SLOAD DUP2 PUSH1 0xFF MUL NOT AND SWAP1 DUP4 ISZERO ISZERO MUL OR SWAP1 SSTORE POP JUMP JUMPDEST PUSH2 0x169B PUSH2 0x2630 JUMP JUMPDEST PUSH1 0x4 PUSH1 0x0 DUP4 PUSH20 0xFFFFFFFFFFFFFFFFFFFFFFFFFFFFFFFFFFFFFFFF AND PUSH20 0xFFFFFFFFFFFFFFFFFFFFFFFFFFFFFFFFFFFFFFFF AND DUP2 MSTORE PUSH1 0x20 ADD SWAP1 DUP2 MSTORE PUSH1 0x20 ADD PUSH1 0x0 KECCAK256 PUSH1 0x0 ADD PUSH1 0x0 SWAP1 SLOAD SWAP1 PUSH2 0x100 EXP SWAP1 DIV PUSH16 0xFFFFFFFFFFFFFFFFFFFFFFFFFFFFFFFF AND PUSH16 0xFFFFFFFFFFFFFFFFFFFFFFFFFFFFFFFF AND DUP2 PUSH16 0xFFFFFFFFFFFFFFFFFFFFFFFFFFFFFFFF AND GT PUSH2 0x175F JUMPI PUSH1 0x40 MLOAD PUSH32 0x8C379A000000000000000000000000000000000000000000000000000000000 DUP2 MSTORE PUSH1 0x4 ADD PUSH2 0x1756 SWAP1 PUSH2 0x41BB JUMP JUMPDEST PUSH1 0x40 MLOAD DUP1 SWAP2 SUB SWAP1 REVERT JUMPDEST DUP1 PUSH1 0x4 PUSH1 0x0 DUP5 PUSH20 0xFFFFFFFFFFFFFFFFFFFFFFFFFFFFFFFFFFFFFFFF AND PUSH20 0xFFFFFFFFFFFFFFFFFFFFFFFFFFFFFFFFFFFFFFFF AND DUP2 MSTORE PUSH1 0x20 ADD SWAP1 DUP2 MSTORE PUSH1 0x20 ADD PUSH1 0x0 KECCAK256 PUSH1 0x0 ADD PUSH1 0x10 PUSH2 0x100 EXP DUP2 SLOAD DUP2 PUSH16 0xFFFFFFFFFFFFFFFFFFFFFFFFFFFFFFFF MUL NOT AND SWAP1 DUP4 PUSH16 0xFFFFFFFFFFFFFFFFFFFFFFFFFFFFFFFF AND MUL OR SWAP1 SSTORE POP POP POP JUMP JUMPDEST PUSH1 0x1 SLOAD DUP2 JUMP JUMPDEST PUSH2 0x17EA PUSH2 0x2630 JUMP JUMPDEST PUSH1 0x4 PUSH1 0x0 DUP4 PUSH20 0xFFFFFFFFFFFFFFFFFFFFFFFFFFFFFFFFFFFFFFFF AND PUSH20 0xFFFFFFFFFFFFFFFFFFFFFFFFFFFFFFFFFFFFFFFF AND DUP2 MSTORE PUSH1 0x20 ADD SWAP1 DUP2 MSTORE PUSH1 0x20 ADD PUSH1 0x0 KECCAK256 PUSH1 0x0 ADD PUSH1 0x10 SWAP1 SLOAD SWAP1 PUSH2 0x100 EXP SWAP1 DIV PUSH16 0xFFFFFFFFFFFFFFFFFFFFFFFFFFFFFFFF AND PUSH16 0xFFFFFFFFFFFFFFFFFFFFFFFFFFFFFFFF AND DUP2 PUSH16 0xFFFFFFFFFFFFFFFFFFFFFFFFFFFFFFFF AND LT PUSH2 0x18AE JUMPI PUSH1 0x40 MLOAD PUSH32 0x8C379A000000000000000000000000000000000000000000000000000000000 DUP2 MSTORE PUSH1 0x4 ADD PUSH2 0x18A5 SWAP1 PUSH2 0x424D JUMP JUMPDEST PUSH1 0x40 MLOAD DUP1 SWAP2 SUB SWAP1 REVERT JUMPDEST DUP1 PUSH1 0x4 PUSH1 0x0 DUP5 PUSH20 0xFFFFFFFFFFFFFFFFFFFFFFFFFFFFFFFFFFFFFFFF AND PUSH20 0xFFFFFFFFFFFFFFFFFFFFFFFFFFFFFFFFFFFFFFFF AND DUP2 MSTORE PUSH1 0x20 ADD SWAP1 DUP2 MSTORE PUSH1 0x20 ADD PUSH1 0x0 KECCAK256 PUSH1 0x0 ADD PUSH1 0x0 PUSH2 0x100 EXP DUP2 SLOAD DUP2 PUSH16 0xFFFFFFFFFFFFFFFFFFFFFFFFFFFFFFFF MUL NOT AND SWAP1 DUP4 PUSH16 0xFFFFFFFFFFFFFFFFFFFFFFFFFFFFFFFF AND MUL OR SWAP1 SSTORE POP POP POP JUMP JUMPDEST PUSH2 0x1933 PUSH2 0x2630 JUMP JUMPDEST DUP1 PUSH20 0xFFFFFFFFFFFFFFFFFFFFFFFFFFFFFFFFFFFFFFFF AND PUSH4 0x70A08231 ADDRESS PUSH1 0x40 MLOAD DUP3 PUSH4 0xFFFFFFFF AND PUSH1 0xE0 SHL DUP2 MSTORE PUSH1 0x4 ADD PUSH2 0x196C SWAP2 SWAP1 PUSH2 0x32A9 JUMP JUMPDEST PUSH1 0x20 PUSH1 0x40 MLOAD DUP1 DUP4 SUB DUP2 DUP7 GAS STATICCALL ISZERO DUP1 ISZERO PUSH2 0x1989 JUMPI RETURNDATASIZE PUSH1 0x0 DUP1 RETURNDATACOPY RETURNDATASIZE PUSH1 0x0 REVERT JUMPDEST POP POP POP POP PUSH1 0x40 MLOAD RETURNDATASIZE PUSH1 0x1F NOT PUSH1 0x1F DUP3 ADD AND DUP3 ADD DUP1 PUSH1 0x40 MSTORE POP DUP2 ADD SWAP1 PUSH2 0x19AD SWAP2 SWAP1 PUSH2 0x4282 JUMP JUMPDEST DUP3 GT ISZERO PUSH2 0x19EF JUMPI PUSH1 0x40 MLOAD PUSH32 0x8C379A000000000000000000000000000000000000000000000000000000000 DUP2 MSTORE PUSH1 0x4 ADD PUSH2 0x19E6 SWAP1 PUSH2 0x42FB JUMP JUMPDEST PUSH1 0x40 MLOAD DUP1 SWAP2 SUB SWAP1 REVERT JUMPDEST DUP1 PUSH20 0xFFFFFFFFFFFFFFFFFFFFFFFFFFFFFFFFFFFFFFFF AND PUSH4 0xA9059CBB DUP5 DUP5 PUSH1 0x40 MLOAD DUP4 PUSH4 0xFFFFFFFF AND PUSH1 0xE0 SHL DUP2 MSTORE PUSH1 0x4 ADD PUSH2 0x1A2A SWAP3 SWAP2 SWAP1 PUSH2 0x431B JUMP JUMPDEST PUSH1 0x20 PUSH1 0x40 MLOAD DUP1 DUP4 SUB DUP2 PUSH1 0x0 DUP8 GAS CALL ISZERO DUP1 ISZERO PUSH2 0x1A49 JUMPI RETURNDATASIZE PUSH1 0x0 DUP1 RETURNDATACOPY RETURNDATASIZE PUSH1 0x0 REVERT JUMPDEST POP POP POP POP PUSH1 0x40 MLOAD RETURNDATASIZE PUSH1 0x1F NOT PUSH1 0x1F DUP3 ADD AND DUP3 ADD DUP1 PUSH1 0x40 MSTORE POP DUP2 ADD SWAP1 PUSH2 0x1A6D SWAP2 SWAP1 PUSH2 0x4359 JUMP JUMPDEST POP POP POP POP JUMP JUMPDEST PUSH2 0x1A7B PUSH2 0x2630 JUMP JUMPDEST DUP1 PUSH1 0x6 DUP2 SWAP1 SSTORE POP POP JUMP JUMPDEST PUSH1 0x0 PUSH1 0x3 DUP1 SLOAD SWAP1 POP SWAP1 POP SWAP1 JUMP JUMPDEST PUSH1 0x60 DUP2 ISZERO PUSH2 0x1D03 JUMPI PUSH1 0x3 DUP1 SLOAD DUP1 PUSH1 0x20 MUL PUSH1 0x20 ADD PUSH1 0x40 MLOAD SWAP1 DUP2 ADD PUSH1 0x40 MSTORE DUP1 SWAP3 SWAP2 SWAP1 DUP2 DUP2 MSTORE PUSH1 0x20 ADD PUSH1 0x0 SWAP1 JUMPDEST DUP3 DUP3 LT ISZERO PUSH2 0x1CF8 JUMPI DUP4 DUP3 SWAP1 PUSH1 0x0 MSTORE PUSH1 0x20 PUSH1 0x0 KECCAK256 SWAP1 PUSH1 0x4 MUL ADD PUSH1 0x40 MLOAD DUP1 PUSH2 0x100 ADD PUSH1 0x40 MSTORE SWAP1 DUP2 PUSH1 0x0 DUP3 ADD PUSH1 0x0 SWAP1 SLOAD SWAP1 PUSH2 0x100 EXP SWAP1 DIV PUSH5 0xFFFFFFFFFF AND PUSH5 0xFFFFFFFFFF AND PUSH5 0xFFFFFFFFFF AND DUP2 MSTORE PUSH1 0x20 ADD PUSH1 0x0 DUP3 ADD PUSH1 0x5 SWAP1 SLOAD SWAP1 PUSH2 0x100 EXP SWAP1 DIV PUSH5 0xFFFFFFFFFF AND PUSH5 0xFFFFFFFFFF AND PUSH5 0xFFFFFFFFFF AND DUP2 MSTORE PUSH1 0x20 ADD PUSH1 0x0 DUP3 ADD PUSH1 0xA SWAP1 SLOAD SWAP1 PUSH2 0x100 EXP SWAP1 DIV PUSH22 0xFFFFFFFFFFFFFFFFFFFFFFFFFFFFFFFFFFFFFFFFFFFF AND PUSH22 0xFFFFFFFFFFFFFFFFFFFFFFFFFFFFFFFFFFFFFFFFFFFF AND PUSH22 0xFFFFFFFFFFFFFFFFFFFFFFFFFFFFFFFFFFFFFFFFFFFF AND DUP2 MSTORE PUSH1 0x20 ADD PUSH1 0x1 DUP3 ADD PUSH1 0x0 SWAP1 SLOAD SWAP1 PUSH2 0x100 EXP SWAP1 DIV PUSH16 0xFFFFFFFFFFFFFFFFFFFFFFFFFFFFFFFF AND PUSH16 0xFFFFFFFFFFFFFFFFFFFFFFFFFFFFFFFF AND PUSH16 0xFFFFFFFFFFFFFFFFFFFFFFFFFFFFFFFF AND DUP2 MSTORE PUSH1 0x20 ADD PUSH1 0x1 DUP3 ADD PUSH1 0x10 SWAP1 SLOAD SWAP1 PUSH2 0x100 EXP SWAP1 DIV PUSH16 0xFFFFFFFFFFFFFFFFFFFFFFFFFFFFFFFF AND PUSH16 0xFFFFFFFFFFFFFFFFFFFFFFFFFFFFFFFF AND PUSH16 0xFFFFFFFFFFFFFFFFFFFFFFFFFFFFFFFF AND DUP2 MSTORE PUSH1 0x20 ADD PUSH1 0x2 DUP3 ADD PUSH1 0x0 SWAP1 SLOAD SWAP1 PUSH2 0x100 EXP SWAP1 DIV PUSH20 0xFFFFFFFFFFFFFFFFFFFFFFFFFFFFFFFFFFFFFFFF AND PUSH20 0xFFFFFFFFFFFFFFFFFFFFFFFFFFFFFFFFFFFFFFFF AND PUSH20 0xFFFFFFFFFFFFFFFFFFFFFFFFFFFFFFFFFFFFFFFF AND DUP2 MSTORE PUSH1 0x20 ADD PUSH1 0x3 DUP3 ADD PUSH1 0x0 SWAP1 SLOAD SWAP1 PUSH2 0x100 EXP SWAP1 DIV PUSH20 0xFFFFFFFFFFFFFFFFFFFFFFFFFFFFFFFFFFFFFFFF AND PUSH20 0xFFFFFFFFFFFFFFFFFFFFFFFFFFFFFFFFFFFFFFFF AND PUSH20 0xFFFFFFFFFFFFFFFFFFFFFFFFFFFFFFFFFFFFFFFF AND DUP2 MSTORE PUSH1 0x20 ADD PUSH1 0x3 DUP3 ADD PUSH1 0x14 SWAP1 SLOAD SWAP1 PUSH2 0x100 EXP SWAP1 DIV PUSH1 0xFF AND ISZERO ISZERO ISZERO ISZERO DUP2 MSTORE POP POP DUP2 MSTORE PUSH1 0x20 ADD SWAP1 PUSH1 0x1 ADD SWAP1 PUSH2 0x1ABC JUMP JUMPDEST POP POP POP POP SWAP1 POP PUSH2 0x1FF6 JUMP JUMPDEST PUSH1 0x0 DUP4 MLOAD SWAP1 POP PUSH1 0x0 DUP2 PUSH8 0xFFFFFFFFFFFFFFFF DUP2 GT ISZERO PUSH2 0x1D25 JUMPI PUSH2 0x1D24 PUSH2 0x32DA JUMP JUMPDEST JUMPDEST PUSH1 0x40 MLOAD SWAP1 DUP1 DUP3 MSTORE DUP1 PUSH1 0x20 MUL PUSH1 0x20 ADD DUP3 ADD PUSH1 0x40 MSTORE DUP1 ISZERO PUSH2 0x1D5E JUMPI DUP2 PUSH1 0x20 ADD JUMPDEST PUSH2 0x1D4B PUSH2 0x2D5B JUMP JUMPDEST DUP2 MSTORE PUSH1 0x20 ADD SWAP1 PUSH1 0x1 SWAP1 SUB SWAP1 DUP2 PUSH2 0x1D43 JUMPI SWAP1 POP JUMPDEST POP SWAP1 POP PUSH1 0x0 JUMPDEST DUP6 MLOAD DUP2 LT ISZERO PUSH2 0x1FEF JUMPI PUSH1 0x0 PUSH1 0x3 DUP8 DUP4 DUP2 MLOAD DUP2 LT PUSH2 0x1D84 JUMPI PUSH2 0x1D83 PUSH2 0x3A78 JUMP JUMPDEST JUMPDEST PUSH1 0x20 MUL PUSH1 0x20 ADD ADD MLOAD DUP2 SLOAD DUP2 LT PUSH2 0x1D9D JUMPI PUSH2 0x1D9C PUSH2 0x3A78 JUMP JUMPDEST JUMPDEST SWAP1 PUSH1 0x0 MSTORE PUSH1 0x20 PUSH1 0x0 KECCAK256 SWAP1 PUSH1 0x4 MUL ADD SWAP1 POP DUP1 PUSH1 0x40 MLOAD DUP1 PUSH2 0x100 ADD PUSH1 0x40 MSTORE SWAP1 DUP2 PUSH1 0x0 DUP3 ADD PUSH1 0x0 SWAP1 SLOAD SWAP1 PUSH2 0x100 EXP SWAP1 DIV PUSH5 0xFFFFFFFFFF AND PUSH5 0xFFFFFFFFFF AND PUSH5 0xFFFFFFFFFF AND DUP2 MSTORE PUSH1 0x20 ADD PUSH1 0x0 DUP3 ADD PUSH1 0x5 SWAP1 SLOAD SWAP1 PUSH2 0x100 EXP SWAP1 DIV PUSH5 0xFFFFFFFFFF AND PUSH5 0xFFFFFFFFFF AND PUSH5 0xFFFFFFFFFF AND DUP2 MSTORE PUSH1 0x20 ADD PUSH1 0x0 DUP3 ADD PUSH1 0xA SWAP1 SLOAD SWAP1 PUSH2 0x100 EXP SWAP1 DIV PUSH22 0xFFFFFFFFFFFFFFFFFFFFFFFFFFFFFFFFFFFFFFFFFFFF AND PUSH22 0xFFFFFFFFFFFFFFFFFFFFFFFFFFFFFFFFFFFFFFFFFFFF AND PUSH22 0xFFFFFFFFFFFFFFFFFFFFFFFFFFFFFFFFFFFFFFFFFFFF AND DUP2 MSTORE PUSH1 0x20 ADD PUSH1 0x1 DUP3 ADD PUSH1 0x0 SWAP1 SLOAD SWAP1 PUSH2 0x100 EXP SWAP1 DIV PUSH16 0xFFFFFFFFFFFFFFFFFFFFFFFFFFFFFFFF AND PUSH16 0xFFFFFFFFFFFFFFFFFFFFFFFFFFFFFFFF AND PUSH16 0xFFFFFFFFFFFFFFFFFFFFFFFFFFFFFFFF AND DUP2 MSTORE PUSH1 0x20 ADD PUSH1 0x1 DUP3 ADD PUSH1 0x10 SWAP1 SLOAD SWAP1 PUSH2 0x100 EXP SWAP1 DIV PUSH16 0xFFFFFFFFFFFFFFFFFFFFFFFFFFFFFFFF AND PUSH16 0xFFFFFFFFFFFFFFFFFFFFFFFFFFFFFFFF AND PUSH16 0xFFFFFFFFFFFFFFFFFFFFFFFFFFFFFFFF AND DUP2 MSTORE PUSH1 0x20 ADD PUSH1 0x2 DUP3 ADD PUSH1 0x0 SWAP1 SLOAD SWAP1 PUSH2 0x100 EXP SWAP1 DIV PUSH20 0xFFFFFFFFFFFFFFFFFFFFFFFFFFFFFFFFFFFFFFFF AND PUSH20 0xFFFFFFFFFFFFFFFFFFFFFFFFFFFFFFFFFFFFFFFF AND PUSH20 0xFFFFFFFFFFFFFFFFFFFFFFFFFFFFFFFFFFFFFFFF AND DUP2 MSTORE PUSH1 0x20 ADD PUSH1 0x3 DUP3 ADD PUSH1 0x0 SWAP1 SLOAD SWAP1 PUSH2 0x100 EXP SWAP1 DIV PUSH20 0xFFFFFFFFFFFFFFFFFFFFFFFFFFFFFFFFFFFFFFFF AND PUSH20 0xFFFFFFFFFFFFFFFFFFFFFFFFFFFFFFFFFFFFFFFF AND PUSH20 0xFFFFFFFFFFFFFFFFFFFFFFFFFFFFFFFFFFFFFFFF AND DUP2 MSTORE PUSH1 0x20 ADD PUSH1 0x3 DUP3 ADD PUSH1 0x14 SWAP1 SLOAD SWAP1 PUSH2 0x100 EXP SWAP1 DIV PUSH1 0xFF AND ISZERO ISZERO ISZERO ISZERO DUP2 MSTORE POP POP DUP4 DUP4 DUP2 MLOAD DUP2 LT PUSH2 0x1FD6 JUMPI PUSH2 0x1FD5 PUSH2 0x3A78 JUMP JUMPDEST JUMPDEST PUSH1 0x20 MUL PUSH1 0x20 ADD ADD DUP2 SWAP1 MSTORE POP POP DUP1 DUP1 PUSH1 0x1 ADD SWAP2 POP POP PUSH2 0x1D64 JUMP JUMPDEST POP DUP1 SWAP3 POP POP POP JUMPDEST SWAP3 SWAP2 POP POP JUMP JUMPDEST PUSH1 0x0 PUSH1 0x14 SWAP1 SLOAD SWAP1 PUSH2 0x100 EXP SWAP1 DIV PUSH1 0xFF AND DUP2 JUMP JUMPDEST PUSH2 0x2017 PUSH2 0x2630 JUMP JUMPDEST PUSH1 0x0 PUSH1 0x14 SWAP1 SLOAD SWAP1 PUSH2 0x100 EXP SWAP1 DIV PUSH1 0xFF AND PUSH2 0x2066 JUMPI PUSH1 0x40 MLOAD PUSH32 0x8C379A000000000000000000000000000000000000000000000000000000000 DUP2 MSTORE PUSH1 0x4 ADD PUSH2 0x205D SWAP1 PUSH2 0x3D9C JUMP JUMPDEST PUSH1 0x40 MLOAD DUP1 SWAP2 SUB SWAP1 REVERT JUMPDEST PUSH1 0x0 PUSH1 0x3 DUP3 DUP2 SLOAD DUP2 LT PUSH2 0x207C JUMPI PUSH2 0x207B PUSH2 0x3A78 JUMP JUMPDEST JUMPDEST SWAP1 PUSH1 0x0 MSTORE PUSH1 0x20 PUSH1 0x0 KECCAK256 SWAP1 PUSH1 0x4 MUL ADD SWAP1 POP PUSH1 0x0 DUP2 PUSH1 0x1 ADD PUSH1 0x0 SWAP1 SLOAD SWAP1 PUSH2 0x100 EXP SWAP1 DIV PUSH16 0xFFFFFFFFFFFFFFFFFFFFFFFFFFFFFFFF AND PUSH16 0xFFFFFFFFFFFFFFFFFFFFFFFFFFFFFFFF AND SWAP1 POP PUSH1 0x0 DUP2 GT PUSH2 0x2106 JUMPI PUSH1 0x40 MLOAD PUSH32 0x8C379A000000000000000000000000000000000000000000000000000000000 DUP2 MSTORE PUSH1 0x4 ADD PUSH2 0x20FD SWAP1 PUSH2 0x43D2 JUMP JUMPDEST PUSH1 0x40 MLOAD DUP1 SWAP2 SUB SWAP1 REVERT JUMPDEST PUSH1 0x0 ISZERO ISZERO DUP3 PUSH1 0x3 ADD PUSH1 0x14 SWAP1 SLOAD SWAP1 PUSH2 0x100 EXP SWAP1 DIV PUSH1 0xFF AND ISZERO ISZERO EQ PUSH2 0x215E JUMPI PUSH1 0x40 MLOAD PUSH32 0x8C379A000000000000000000000000000000000000000000000000000000000 DUP2 MSTORE PUSH1 0x4 ADD PUSH2 0x2155 SWAP1 PUSH2 0x443E JUMP JUMPDEST PUSH1 0x40 MLOAD DUP1 SWAP2 SUB SWAP1 REVERT JUMPDEST PUSH2 0x5460 DUP3 PUSH1 0x0 ADD PUSH1 0xA SWAP1 SLOAD SWAP1 PUSH2 0x100 EXP SWAP1 DIV PUSH22 0xFFFFFFFFFFFFFFFFFFFFFFFFFFFFFFFFFFFFFFFFFFFF AND PUSH2 0x2192 SWAP2 SWAP1 PUSH2 0x445E JUMP JUMPDEST PUSH22 0xFFFFFFFFFFFFFFFFFFFFFFFFFFFFFFFFFFFFFFFFFFFF AND NUMBER GT PUSH2 0x21EB JUMPI PUSH1 0x40 MLOAD PUSH32 0x8C379A000000000000000000000000000000000000000000000000000000000 DUP2 MSTORE PUSH1 0x4 ADD PUSH2 0x21E2 SWAP1 PUSH2 0x44F4 JUMP JUMPDEST PUSH1 0x40 MLOAD DUP1 SWAP2 SUB SWAP1 REVERT JUMPDEST PUSH1 0x0 DUP3 PUSH1 0x3 ADD PUSH1 0x0 SWAP1 SLOAD SWAP1 PUSH2 0x100 EXP SWAP1 DIV PUSH20 0xFFFFFFFFFFFFFFFFFFFFFFFFFFFFFFFFFFFFFFFF AND SWAP1 POP PUSH1 0x0 PUSH2 0x223D DUP4 DUP6 PUSH1 0x0 ADD PUSH1 0x0 SWAP1 SLOAD SWAP1 PUSH2 0x100 EXP SWAP1 DIV PUSH5 0xFFFFFFFFFF AND PUSH5 0xFFFFFFFFFF AND DUP5 PUSH2 0x2CB0 JUMP JUMPDEST SWAP1 POP PUSH1 0x0 PUSH2 0x224B DUP5 DUP5 PUSH2 0x2CE1 JUMP JUMPDEST SWAP1 POP PUSH1 0x1 DUP6 PUSH1 0x3 ADD PUSH1 0x14 PUSH2 0x100 EXP DUP2 SLOAD DUP2 PUSH1 0xFF MUL NOT AND SWAP1 DUP4 ISZERO ISZERO MUL OR SWAP1 SSTORE POP DUP1 DUP6 PUSH1 0x1 ADD PUSH1 0x10 PUSH2 0x100 EXP DUP2 SLOAD DUP2 PUSH16 0xFFFFFFFFFFFFFFFFFFFFFFFFFFFFFFFF MUL NOT AND SWAP1 DUP4 PUSH16 0xFFFFFFFFFFFFFFFFFFFFFFFFFFFFFFFF AND MUL OR SWAP1 SSTORE POP DUP3 PUSH20 0xFFFFFFFFFFFFFFFFFFFFFFFFFFFFFFFFFFFFFFFF AND PUSH4 0xA9059CBB DUP7 PUSH1 0x2 ADD PUSH1 0x0 SWAP1 SLOAD SWAP1 PUSH2 0x100 EXP SWAP1 DIV PUSH20 0xFFFFFFFFFFFFFFFFFFFFFFFFFFFFFFFFFFFFFFFF AND DUP4 PUSH1 0x40 MLOAD DUP4 PUSH4 0xFFFFFFFF AND PUSH1 0xE0 SHL DUP2 MSTORE PUSH1 0x4 ADD PUSH2 0x2304 SWAP3 SWAP2 SWAP1 PUSH2 0x431B JUMP JUMPDEST PUSH1 0x20 PUSH1 0x40 MLOAD DUP1 DUP4 SUB DUP2 PUSH1 0x0 DUP8 GAS CALL ISZERO DUP1 ISZERO PUSH2 0x2323 JUMPI RETURNDATASIZE PUSH1 0x0 DUP1 RETURNDATACOPY RETURNDATASIZE PUSH1 0x0 REVERT JUMPDEST POP POP POP POP PUSH1 0x40 MLOAD RETURNDATASIZE PUSH1 0x1F NOT PUSH1 0x1F DUP3 ADD AND DUP3 ADD DUP1 PUSH1 0x40 MSTORE POP DUP2 ADD SWAP1 PUSH2 0x2347 SWAP2 SWAP1 PUSH2 0x4359 JUMP JUMPDEST POP PUSH1 0x0 PUSH1 0xB PUSH1 0x0 DUP8 PUSH1 0x2 ADD PUSH1 0x0 SWAP1 SLOAD SWAP1 PUSH2 0x100 EXP SWAP1 DIV PUSH20 0xFFFFFFFFFFFFFFFFFFFFFFFFFFFFFFFFFFFFFFFF AND PUSH20 0xFFFFFFFFFFFFFFFFFFFFFFFFFFFFFFFFFFFFFFFF AND PUSH20 0xFFFFFFFFFFFFFFFFFFFFFFFFFFFFFFFFFFFFFFFF AND DUP2 MSTORE PUSH1 0x20 ADD SWAP1 DUP2 MSTORE PUSH1 0x20 ADD PUSH1 0x0 KECCAK256 DUP2 SWAP1 SSTORE POP DUP5 PUSH1 0x2 ADD PUSH1 0x0 SWAP1 SLOAD SWAP1 PUSH2 0x100 EXP SWAP1 DIV PUSH20 0xFFFFFFFFFFFFFFFFFFFFFFFFFFFFFFFFFFFFFFFF AND PUSH20 0xFFFFFFFFFFFFFFFFFFFFFFFFFFFFFFFFFFFFFFFF AND DUP7 PUSH32 0xB27522330A91A6A320AEEAC4733CAD91C61B5384667C37ACB1855ACE8DC34E50 DUP4 DUP7 PUSH1 0x40 MLOAD PUSH2 0x241E SWAP3 SWAP2 SWAP1 PUSH2 0x4514 JUMP JUMPDEST PUSH1 0x40 MLOAD DUP1 SWAP2 SUB SWAP1 LOG3 POP POP POP POP POP POP JUMP JUMPDEST PUSH1 0x4 PUSH1 0x20 MSTORE DUP1 PUSH1 0x0 MSTORE PUSH1 0x40 PUSH1 0x0 KECCAK256 PUSH1 0x0 SWAP2 POP SWAP1 POP DUP1 PUSH1 0x0 ADD PUSH1 0x0 SWAP1 SLOAD SWAP1 PUSH2 0x100 EXP SWAP1 DIV PUSH16 0xFFFFFFFFFFFFFFFFFFFFFFFFFFFFFFFF AND SWAP1 DUP1 PUSH1 0x0 ADD PUSH1 0x10 SWAP1 SLOAD SWAP1 PUSH2 0x100 EXP SWAP1 DIV PUSH16 0xFFFFFFFFFFFFFFFFFFFFFFFFFFFFFFFF AND SWAP1 DUP1 PUSH1 0x1 ADD SLOAD SWAP1 POP DUP4 JUMP JUMPDEST PUSH1 0x60 PUSH1 0xC PUSH1 0x0 DUP4 PUSH20 0xFFFFFFFFFFFFFFFFFFFFFFFFFFFFFFFFFFFFFFFF AND PUSH20 0xFFFFFFFFFFFFFFFFFFFFFFFFFFFFFFFFFFFFFFFF AND DUP2 MSTORE PUSH1 0x20 ADD SWAP1 DUP2 MSTORE PUSH1 0x20 ADD PUSH1 0x0 KECCAK256 PUSH1 0x3 ADD DUP1 SLOAD DUP1 PUSH1 0x20 MUL PUSH1 0x20 ADD PUSH1 0x40 MLOAD SWAP1 DUP2 ADD PUSH1 0x40 MSTORE DUP1 SWAP3 SWAP2 SWAP1 DUP2 DUP2 MSTORE PUSH1 0x20 ADD DUP3 DUP1 SLOAD DUP1 ISZERO PUSH2 0x251E JUMPI PUSH1 0x20 MUL DUP3 ADD SWAP2 SWAP1 PUSH1 0x0 MSTORE PUSH1 0x20 PUSH1 0x0 KECCAK256 SWAP1 JUMPDEST DUP2 SLOAD DUP2 MSTORE PUSH1 0x20 ADD SWAP1 PUSH1 0x1 ADD SWAP1 DUP1 DUP4 GT PUSH2 0x250A JUMPI JUMPDEST POP POP POP POP POP SWAP1 POP SWAP2 SWAP1 POP JUMP JUMPDEST PUSH1 0x0 DUP1 PUSH1 0x0 JUMPDEST PUSH1 0x3 DUP1 SLOAD SWAP1 POP DUP2 LT ISZERO PUSH2 0x2595 JUMPI PUSH1 0x3 DUP2 DUP2 SLOAD DUP2 LT PUSH2 0x2551 JUMPI PUSH2 0x2550 PUSH2 0x3A78 JUMP JUMPDEST JUMPDEST SWAP1 PUSH1 0x0 MSTORE PUSH1 0x20 PUSH1 0x0 KECCAK256 SWAP1 PUSH1 0x4 MUL ADD PUSH1 0x0 ADD PUSH1 0x0 SWAP1 SLOAD SWAP1 PUSH2 0x100 EXP SWAP1 DIV PUSH5 0xFFFFFFFFFF AND PUSH5 0xFFFFFFFFFF AND DUP3 PUSH2 0x2586 SWAP2 SWAP1 PUSH2 0x3BBE JUMP JUMPDEST SWAP2 POP DUP1 DUP1 PUSH1 0x1 ADD SWAP2 POP POP PUSH2 0x2530 JUMP JUMPDEST POP PUSH1 0x8 SLOAD DUP2 PUSH2 0x25A4 SWAP2 SWAP1 PUSH2 0x3BF2 JUMP JUMPDEST SWAP2 POP POP SWAP1 JUMP JUMPDEST PUSH2 0x25B2 PUSH2 0x2630 JUMP JUMPDEST PUSH1 0x0 PUSH20 0xFFFFFFFFFFFFFFFFFFFFFFFFFFFFFFFFFFFFFFFF AND DUP2 PUSH20 0xFFFFFFFFFFFFFFFFFFFFFFFFFFFFFFFFFFFFFFFF AND SUB PUSH2 0x2624 JUMPI PUSH1 0x0 PUSH1 0x40 MLOAD PUSH32 0x1E4FBDF700000000000000000000000000000000000000000000000000000000 DUP2 MSTORE PUSH1 0x4 ADD PUSH2 0x261B SWAP2 SWAP1 PUSH2 0x32A9 JUMP JUMPDEST PUSH1 0x40 MLOAD DUP1 SWAP2 SUB SWAP1 REVERT JUMPDEST PUSH2 0x262D DUP2 PUSH2 0x2BEC JUMP JUMPDEST POP JUMP JUMPDEST PUSH2 0x2638 PUSH2 0x2D53 JUMP JUMPDEST PUSH20 0xFFFFFFFFFFFFFFFFFFFFFFFFFFFFFFFFFFFFFFFF AND PUSH2 0x2656 PUSH2 0xD98 JUMP JUMPDEST PUSH20 0xFFFFFFFFFFFFFFFFFFFFFFFFFFFFFFFFFFFFFFFF AND EQ PUSH2 0x26B5 JUMPI PUSH2 0x2679 PUSH2 0x2D53 JUMP JUMPDEST PUSH1 0x40 MLOAD PUSH32 0x118CDAA700000000000000000000000000000000000000000000000000000000 DUP2 MSTORE PUSH1 0x4 ADD PUSH2 0x26AC SWAP2 SWAP1 PUSH2 0x32A9 JUMP JUMPDEST PUSH1 0x40 MLOAD DUP1 SWAP2 SUB SWAP1 REVERT JUMPDEST JUMP JUMPDEST PUSH1 0x0 PUSH1 0xB PUSH1 0x0 DUP5 PUSH1 0x2 ADD PUSH1 0x0 SWAP1 SLOAD SWAP1 PUSH2 0x100 EXP SWAP1 DIV PUSH20 0xFFFFFFFFFFFFFFFFFFFFFFFFFFFFFFFFFFFFFFFF AND PUSH20 0xFFFFFFFFFFFFFFFFFFFFFFFFFFFFFFFFFFFFFFFF AND PUSH20 0xFFFFFFFFFFFFFFFFFFFFFFFFFFFFFFFFFFFFFFFF AND DUP2 MSTORE PUSH1 0x20 ADD SWAP1 DUP2 MSTORE PUSH1 0x20 ADD PUSH1 0x0 KECCAK256 DUP2 SWAP1 SSTORE POP PUSH1 0x1 DUP3 PUSH1 0x3 ADD PUSH1 0x14 PUSH2 0x100 EXP DUP2 SLOAD DUP2 PUSH1 0xFF MUL NOT AND SWAP1 DUP4 ISZERO ISZERO MUL OR SWAP1 SSTORE POP PUSH1 0x0 DUP3 PUSH1 0x1 ADD PUSH1 0x10 PUSH2 0x100 EXP DUP2 SLOAD DUP2 PUSH16 0xFFFFFFFFFFFFFFFFFFFFFFFFFFFFFFFF MUL NOT AND SWAP1 DUP4 PUSH16 0xFFFFFFFFFFFFFFFFFFFFFFFFFFFFFFFF AND MUL OR SWAP1 SSTORE POP PUSH1 0x0 DUP3 PUSH1 0x0 ADD PUSH1 0x5 PUSH2 0x100 EXP DUP2 SLOAD DUP2 PUSH5 0xFFFFFFFFFF MUL NOT AND SWAP1 DUP4 PUSH5 0xFFFFFFFFFF AND MUL OR SWAP1 SSTORE POP DUP2 PUSH1 0x2 ADD PUSH1 0x0 SWAP1 SLOAD SWAP1 PUSH2 0x100 EXP SWAP1 DIV PUSH20 0xFFFFFFFFFFFFFFFFFFFFFFFFFFFFFFFFFFFFFFFF AND PUSH20 0xFFFFFFFFFFFFFFFFFFFFFFFFFFFFFFFFFFFFFFFF AND DUP2 PUSH32 0xF99272E1D36CAE740970460B7B47C8A54E11634EEF2BD87A7EF96FC21C10185F DUP5 PUSH1 0x1 ADD PUSH1 0x0 SWAP1 SLOAD SWAP1 PUSH2 0x100 EXP SWAP1 DIV PUSH16 0xFFFFFFFFFFFFFFFFFFFFFFFFFFFFFFFF AND DUP6 PUSH1 0x0 ADD PUSH1 0x0 SWAP1 SLOAD SWAP1 PUSH2 0x100 EXP SWAP1 DIV PUSH5 0xFFFFFFFFFF AND PUSH1 0x0 DUP1 DUP9 PUSH1 0x3 ADD PUSH1 0x0 SWAP1 SLOAD SWAP1 PUSH2 0x100 EXP SWAP1 DIV PUSH20 0xFFFFFFFFFFFFFFFFFFFFFFFFFFFFFFFFFFFFFFFF AND PUSH1 0x40 MLOAD PUSH2 0x286C SWAP6 SWAP5 SWAP4 SWAP3 SWAP2 SWAP1 PUSH2 0x45DA JUMP JUMPDEST PUSH1 0x40 MLOAD DUP1 SWAP2 SUB SWAP1 LOG3 POP POP JUMP JUMPDEST PUSH1 0x0 DUP1 PUSH1 0x0 DUP1 PUSH2 0x28FB DUP8 PUSH1 0x1 ADD PUSH1 0x0 SWAP1 SLOAD SWAP1 PUSH2 0x100 EXP SWAP1 DIV PUSH16 0xFFFFFFFFFFFFFFFFFFFFFFFFFFFFFFFF AND PUSH16 0xFFFFFFFFFFFFFFFFFFFFFFFFFFFFFFFF AND DUP9 PUSH1 0x0 ADD PUSH1 0x0 SWAP1 SLOAD SWAP1 PUSH2 0x100 EXP SWAP1 DIV PUSH5 0xFFFFFFFFFF AND PUSH5 0xFFFFFFFFFF AND DUP10 PUSH1 0x3 ADD PUSH1 0x0 SWAP1 SLOAD SWAP1 PUSH2 0x100 EXP SWAP1 DIV PUSH20 0xFFFFFFFFFFFFFFFFFFFFFFFFFFFFFFFFFFFFFFFF AND PUSH2 0x2CB0 JUMP JUMPDEST SWAP1 POP PUSH1 0x0 DUP6 DUP9 PUSH1 0x0 ADD PUSH1 0x0 SWAP1 SLOAD SWAP1 PUSH2 0x100 EXP SWAP1 DIV PUSH5 0xFFFFFFFFFF AND PUSH5 0xFFFFFFFFFF AND GT ISZERO PUSH2 0x292A JUMPI PUSH1 0x0 PUSH2 0x292C JUMP JUMPDEST DUP2 JUMPDEST SWAP1 POP PUSH1 0x0 PUSH1 0xB PUSH1 0x0 DUP11 PUSH1 0x2 ADD PUSH1 0x0 SWAP1 SLOAD SWAP1 PUSH2 0x100 EXP SWAP1 DIV PUSH20 0xFFFFFFFFFFFFFFFFFFFFFFFFFFFFFFFFFFFFFFFF AND PUSH20 0xFFFFFFFFFFFFFFFFFFFFFFFFFFFFFFFFFFFFFFFF AND PUSH20 0xFFFFFFFFFFFFFFFFFFFFFFFFFFFFFFFFFFFFFFFF AND DUP2 MSTORE PUSH1 0x20 ADD SWAP1 DUP2 MSTORE PUSH1 0x20 ADD PUSH1 0x0 KECCAK256 DUP2 SWAP1 SSTORE POP PUSH1 0x1 DUP9 PUSH1 0x3 ADD PUSH1 0x14 PUSH2 0x100 EXP DUP2 SLOAD DUP2 PUSH1 0xFF MUL NOT AND SWAP1 DUP4 ISZERO ISZERO MUL OR SWAP1 SSTORE POP DUP1 DUP9 PUSH1 0x1 ADD PUSH1 0x10 PUSH2 0x100 EXP DUP2 SLOAD DUP2 PUSH16 0xFFFFFFFFFFFFFFFFFFFFFFFFFFFFFFFF MUL NOT AND SWAP1 DUP4 PUSH16 0xFFFFFFFFFFFFFFFFFFFFFFFFFFFFFFFF AND MUL OR SWAP1 SSTORE POP DUP6 DUP9 PUSH1 0x0 ADD PUSH1 0x5 PUSH2 0x100 EXP DUP2 SLOAD DUP2 PUSH5 0xFFFFFFFFFF MUL NOT AND SWAP1 DUP4 PUSH5 0xFFFFFFFFFF AND MUL OR SWAP1 SSTORE POP PUSH1 0x0 DUP2 GT ISZERO PUSH2 0x2AE5 JUMPI DUP8 PUSH1 0x3 ADD PUSH1 0x0 SWAP1 SLOAD SWAP1 PUSH2 0x100 EXP SWAP1 DIV PUSH20 0xFFFFFFFFFFFFFFFFFFFFFFFFFFFFFFFFFFFFFFFF AND PUSH20 0xFFFFFFFFFFFFFFFFFFFFFFFFFFFFFFFFFFFFFFFF AND PUSH4 0xA9059CBB DUP10 PUSH1 0x2 ADD PUSH1 0x0 SWAP1 SLOAD SWAP1 PUSH2 0x100 EXP SWAP1 DIV PUSH20 0xFFFFFFFFFFFFFFFFFFFFFFFFFFFFFFFFFFFFFFFF AND DUP5 PUSH1 0x40 MLOAD DUP4 PUSH4 0xFFFFFFFF AND PUSH1 0xE0 SHL DUP2 MSTORE PUSH1 0x4 ADD PUSH2 0x2AA0 SWAP3 SWAP2 SWAP1 PUSH2 0x431B JUMP JUMPDEST PUSH1 0x20 PUSH1 0x40 MLOAD DUP1 DUP4 SUB DUP2 PUSH1 0x0 DUP8 GAS CALL ISZERO DUP1 ISZERO PUSH2 0x2ABF JUMPI RETURNDATASIZE PUSH1 0x0 DUP1 RETURNDATACOPY RETURNDATASIZE PUSH1 0x0 REVERT JUMPDEST POP POP POP POP PUSH1 0x40 MLOAD RETURNDATASIZE PUSH1 0x1F NOT PUSH1 0x1F DUP3 ADD AND DUP3 ADD DUP1 PUSH1 0x40 MSTORE POP DUP2 ADD SWAP1 PUSH2 0x2AE3 SWAP2 SWAP1 PUSH2 0x4359 JUMP JUMPDEST POP JUMPDEST DUP8 PUSH1 0x2 ADD PUSH1 0x0 SWAP1 SLOAD SWAP1 PUSH2 0x100 EXP SWAP1 DIV PUSH20 0xFFFFFFFFFFFFFFFFFFFFFFFFFFFFFFFFFFFFFFFF AND PUSH20 0xFFFFFFFFFFFFFFFFFFFFFFFFFFFFFFFFFFFFFFFF AND DUP8 PUSH32 0xF99272E1D36CAE740970460B7B47C8A54E11634EEF2BD87A7EF96FC21C10185F DUP11 PUSH1 0x1 ADD PUSH1 0x0 SWAP1 SLOAD SWAP1 PUSH2 0x100 EXP SWAP1 DIV PUSH16 0xFFFFFFFFFFFFFFFFFFFFFFFFFFFFFFFF AND DUP12 PUSH1 0x0 ADD PUSH1 0x0 SWAP1 SLOAD SWAP1 PUSH2 0x100 EXP SWAP1 DIV PUSH5 0xFFFFFFFFFF AND DUP11 DUP7 DUP15 PUSH1 0x3 ADD PUSH1 0x0 SWAP1 SLOAD SWAP1 PUSH2 0x100 EXP SWAP1 DIV PUSH20 0xFFFFFFFFFFFFFFFFFFFFFFFFFFFFFFFFFFFFFFFF AND PUSH1 0x40 MLOAD PUSH2 0x2BB1 SWAP6 SWAP5 SWAP4 SWAP3 SWAP2 SWAP1 PUSH2 0x462D JUMP JUMPDEST PUSH1 0x40 MLOAD DUP1 SWAP2 SUB SWAP1 LOG3 DUP8 PUSH1 0x0 ADD PUSH1 0x0 SWAP1 SLOAD SWAP1 PUSH2 0x100 EXP SWAP1 DIV PUSH5 0xFFFFFFFFFF AND DUP7 DUP3 DUP3 PUSH5 0xFFFFFFFFFF AND SWAP3 POP SWAP5 POP SWAP5 POP SWAP5 POP POP POP SWAP4 POP SWAP4 POP SWAP4 SWAP1 POP JUMP JUMPDEST PUSH1 0x0 DUP1 PUSH1 0x0 SWAP1 SLOAD SWAP1 PUSH2 0x100 EXP SWAP1 DIV PUSH20 0xFFFFFFFFFFFFFFFFFFFFFFFFFFFFFFFFFFFFFFFF AND SWAP1 POP DUP2 PUSH1 0x0 DUP1 PUSH2 0x100 EXP DUP2 SLOAD DUP2 PUSH20 0xFFFFFFFFFFFFFFFFFFFFFFFFFFFFFFFFFFFFFFFF MUL NOT AND SWAP1 DUP4 PUSH20 0xFFFFFFFFFFFFFFFFFFFFFFFFFFFFFFFFFFFFFFFF AND MUL OR SWAP1 SSTORE POP DUP2 PUSH20 0xFFFFFFFFFFFFFFFFFFFFFFFFFFFFFFFFFFFFFFFF AND DUP2 PUSH20 0xFFFFFFFFFFFFFFFFFFFFFFFFFFFFFFFFFFFFFFFF AND PUSH32 0x8BE0079C531659141344CD1FD0A4F28419497F9722A3DAAFE3B4186F6B6457E0 PUSH1 0x40 MLOAD PUSH1 0x40 MLOAD DUP1 SWAP2 SUB SWAP1 LOG3 POP POP JUMP JUMPDEST PUSH1 0x0 DUP1 PUSH2 0x2CBD DUP6 DUP5 PUSH2 0x2CE1 JUMP JUMPDEST SWAP1 POP PUSH1 0x64 DUP5 DUP3 PUSH2 0x2CCD SWAP2 SWAP1 PUSH2 0x3C23 JUMP JUMPDEST PUSH2 0x2CD7 SWAP2 SWAP1 PUSH2 0x3BF2 JUMP JUMPDEST SWAP2 POP POP SWAP4 SWAP3 POP POP POP JUMP JUMPDEST PUSH1 0x0 PUSH2 0x2710 PUSH1 0x4 PUSH1 0x0 DUP5 PUSH20 0xFFFFFFFFFFFFFFFFFFFFFFFFFFFFFFFFFFFFFFFF AND PUSH20 0xFFFFFFFFFFFFFFFFFFFFFFFFFFFFFFFFFFFFFFFF AND DUP2 MSTORE PUSH1 0x20 ADD SWAP1 DUP2 MSTORE PUSH1 0x20 ADD PUSH1 0x0 KECCAK256 PUSH1 0x1 ADD SLOAD PUSH2 0x2710 PUSH2 0x2D36 SWAP2 SWAP1 PUSH2 0x3B8A JUMP JUMPDEST DUP5 PUSH2 0x2D41 SWAP2 SWAP1 PUSH2 0x3C23 JUMP JUMPDEST PUSH2 0x2D4B SWAP2 SWAP1 PUSH2 0x3BF2 JUMP JUMPDEST SWAP1 POP SWAP3 SWAP2 POP POP JUMP JUMPDEST PUSH1 0x0 CALLER SWAP1 POP SWAP1 JUMP JUMPDEST PUSH1 0x40 MLOAD DUP1 PUSH2 0x100 ADD PUSH1 0x40 MSTORE DUP1 PUSH1 0x0 PUSH5 0xFFFFFFFFFF AND DUP2 MSTORE PUSH1 0x20 ADD PUSH1 0x0 PUSH5 0xFFFFFFFFFF AND DUP2 MSTORE PUSH1 0x20 ADD PUSH1 0x0 PUSH22 0xFFFFFFFFFFFFFFFFFFFFFFFFFFFFFFFFFFFFFFFFFFFF AND DUP2 MSTORE PUSH1 0x20 ADD PUSH1 0x0 PUSH16 0xFFFFFFFFFFFFFFFFFFFFFFFFFFFFFFFF AND DUP2 MSTORE PUSH1 0x20 ADD PUSH1 0x0 PUSH16 0xFFFFFFFFFFFFFFFFFFFFFFFFFFFFFFFF AND DUP2 MSTORE PUSH1 0x20 ADD PUSH1 0x0 PUSH20 0xFFFFFFFFFFFFFFFFFFFFFFFFFFFFFFFFFFFFFFFF AND DUP2 MSTORE PUSH1 0x20 ADD PUSH1 0x0 PUSH20 0xFFFFFFFFFFFFFFFFFFFFFFFFFFFFFFFFFFFFFFFF AND DUP2 MSTORE PUSH1 0x20 ADD PUSH1 0x0 ISZERO ISZERO DUP2 MSTORE POP SWAP1 JUMP JUMPDEST PUSH1 0x0 PUSH1 0x40 MLOAD SWAP1 POP SWAP1 JUMP JUMPDEST PUSH1 0x0 DUP1 REVERT JUMPDEST PUSH1 0x0 DUP1 REVERT JUMPDEST PUSH1 0x0 DUP2 SWAP1 POP SWAP2 SWAP1 POP JUMP JUMPDEST PUSH2 0x2E3F DUP2 PUSH2 0x2E2C JUMP JUMPDEST DUP2 EQ PUSH2 0x2E4A JUMPI PUSH1 0x0 DUP1 REVERT JUMPDEST POP JUMP JUMPDEST PUSH1 0x0 DUP2 CALLDATALOAD SWAP1 POP PUSH2 0x2E5C DUP2 PUSH2 0x2E36 JUMP JUMPDEST SWAP3 SWAP2 POP POP JUMP JUMPDEST PUSH1 0x0 PUSH1 0x20 DUP3 DUP5 SUB SLT ISZERO PUSH2 0x2E78 JUMPI PUSH2 0x2E77 PUSH2 0x2E22 JUMP JUMPDEST JUMPDEST PUSH1 0x0 PUSH2 0x2E86 DUP5 DUP3 DUP6 ADD PUSH2 0x2E4D JUMP JUMPDEST SWAP2 POP POP SWAP3 SWAP2 POP POP JUMP JUMPDEST PUSH2 0x2E98 DUP2 PUSH2 0x2E2C JUMP JUMPDEST DUP3 MSTORE POP POP JUMP JUMPDEST PUSH1 0x0 PUSH1 0x20 DUP3 ADD SWAP1 POP PUSH2 0x2EB3 PUSH1 0x0 DUP4 ADD DUP5 PUSH2 0x2E8F JUMP JUMPDEST SWAP3 SWAP2 POP POP JUMP JUMPDEST PUSH1 0x0 DUP1 PUSH1 0x40 DUP4 DUP6 SUB SLT ISZERO PUSH2 0x2ED0 JUMPI PUSH2 0x2ECF PUSH2 0x2E22 JUMP JUMPDEST JUMPDEST PUSH1 0x0 PUSH2 0x2EDE DUP6 DUP3 DUP7 ADD PUSH2 0x2E4D JUMP JUMPDEST SWAP3 POP POP PUSH1 0x20 PUSH2 0x2EEF DUP6 DUP3 DUP7 ADD PUSH2 0x2E4D JUMP JUMPDEST SWAP2 POP POP SWAP3 POP SWAP3 SWAP1 POP JUMP JUMPDEST PUSH1 0x0 PUSH1 0x60 DUP3 ADD SWAP1 POP PUSH2 0x2F0E PUSH1 0x0 DUP4 ADD DUP7 PUSH2 0x2E8F JUMP JUMPDEST PUSH2 0x2F1B PUSH1 0x20 DUP4 ADD DUP6 PUSH2 0x2E8F JUMP JUMPDEST PUSH2 0x2F28 PUSH1 0x40 DUP4 ADD DUP5 PUSH2 0x2E8F JUMP JUMPDEST SWAP5 SWAP4 POP POP POP POP JUMP JUMPDEST PUSH1 0x0 PUSH20 0xFFFFFFFFFFFFFFFFFFFFFFFFFFFFFFFFFFFFFFFF DUP3 AND SWAP1 POP SWAP2 SWAP1 POP JUMP JUMPDEST PUSH1 0x0 PUSH2 0x2F5B DUP3 PUSH2 0x2F30 JUMP JUMPDEST SWAP1 POP SWAP2 SWAP1 POP JUMP JUMPDEST PUSH2 0x2F6B DUP2 PUSH2 0x2F50 JUMP JUMPDEST DUP2 EQ PUSH2 0x2F76 JUMPI PUSH1 0x0 DUP1 REVERT JUMPDEST POP JUMP JUMPDEST PUSH1 0x0 DUP2 CALLDATALOAD SWAP1 POP PUSH2 0x2F88 DUP2 PUSH2 0x2F62 JUMP JUMPDEST SWAP3 SWAP2 POP POP JUMP JUMPDEST PUSH1 0x0 DUP1 PUSH1 0x40 DUP4 DUP6 SUB SLT ISZERO PUSH2 0x2FA5 JUMPI PUSH2 0x2FA4 PUSH2 0x2E22 JUMP JUMPDEST JUMPDEST PUSH1 0x0 PUSH2 0x2FB3 DUP6 DUP3 DUP7 ADD PUSH2 0x2F79 JUMP JUMPDEST SWAP3 POP POP PUSH1 0x20 PUSH2 0x2FC4 DUP6 DUP3 DUP7 ADD PUSH2 0x2E4D JUMP JUMPDEST SWAP2 POP POP SWAP3 POP SWAP3 SWAP1 POP JUMP JUMPDEST PUSH1 0x0 DUP2 SWAP1 POP SWAP2 SWAP1 POP JUMP JUMPDEST PUSH1 0x0 PUSH2 0x2FF3 PUSH2 0x2FEE PUSH2 0x2FE9 DUP5 PUSH2 0x2F30 JUMP JUMPDEST PUSH2 0x2FCE JUMP JUMPDEST PUSH2 0x2F30 JUMP JUMPDEST SWAP1 POP SWAP2 SWAP1 POP JUMP JUMPDEST PUSH1 0x0 PUSH2 0x3005 DUP3 PUSH2 0x2FD8 JUMP JUMPDEST SWAP1 POP SWAP2 SWAP1 POP JUMP JUMPDEST PUSH1 0x0 PUSH2 0x3017 DUP3 PUSH2 0x2FFA JUMP JUMPDEST SWAP1 POP SWAP2 SWAP1 POP JUMP JUMPDEST PUSH2 0x3027 DUP2 PUSH2 0x300C JUMP JUMPDEST DUP3 MSTORE POP POP JUMP JUMPDEST PUSH1 0x0 PUSH1 0x20 DUP3 ADD SWAP1 POP PUSH2 0x3042 PUSH1 0x0 DUP4 ADD DUP5 PUSH2 0x301E JUMP JUMPDEST SWAP3 SWAP2 POP POP JUMP JUMPDEST PUSH1 0x0 PUSH5 0xFFFFFFFFFF DUP3 AND SWAP1 POP SWAP2 SWAP1 POP JUMP JUMPDEST PUSH2 0x3062 DUP2 PUSH2 0x3048 JUMP JUMPDEST DUP3 MSTORE POP POP JUMP JUMPDEST PUSH1 0x0 PUSH22 0xFFFFFFFFFFFFFFFFFFFFFFFFFFFFFFFFFFFFFFFFFFFF DUP3 AND SWAP1 POP SWAP2 SWAP1 POP JUMP JUMPDEST PUSH2 0x3093 DUP2 PUSH2 0x3068 JUMP JUMPDEST DUP3 MSTORE POP POP JUMP JUMPDEST PUSH1 0x0 PUSH16 0xFFFFFFFFFFFFFFFFFFFFFFFFFFFFFFFF DUP3 AND SWAP1 POP SWAP2 SWAP1 POP JUMP JUMPDEST PUSH2 0x30BE DUP2 PUSH2 0x3099 JUMP JUMPDEST DUP3 MSTORE POP POP JUMP JUMPDEST PUSH2 0x30CD DUP2 PUSH2 0x2F50 JUMP JUMPDEST DUP3 MSTORE POP POP JUMP JUMPDEST PUSH1 0x0 DUP2 ISZERO ISZERO SWAP1 POP SWAP2 SWAP1 POP JUMP JUMPDEST PUSH2 0x30E8 DUP2 PUSH2 0x30D3 JUMP JUMPDEST DUP3 MSTORE POP POP JUMP JUMPDEST PUSH1 0x0 PUSH2 0x100 DUP3 ADD SWAP1 POP PUSH2 0x3104 PUSH1 0x0 DUP4 ADD DUP12 PUSH2 0x3059 JUMP JUMPDEST PUSH2 0x3111 PUSH1 0x20 DUP4 ADD DUP11 PUSH2 0x3059 JUMP JUMPDEST PUSH2 0x311E PUSH1 0x40 DUP4 ADD DUP10 PUSH2 0x308A JUMP JUMPDEST PUSH2 0x312B PUSH1 0x60 DUP4 ADD DUP9 PUSH2 0x30B5 JUMP JUMPDEST PUSH2 0x3138 PUSH1 0x80 DUP4 ADD DUP8 PUSH2 0x30B5 JUMP JUMPDEST PUSH2 0x3145 PUSH1 0xA0 DUP4 ADD DUP7 PUSH2 0x30C4 JUMP JUMPDEST PUSH2 0x3152 PUSH1 0xC0 DUP4 ADD DUP6 PUSH2 0x30C4 JUMP JUMPDEST PUSH2 0x315F PUSH1 0xE0 DUP4 ADD DUP5 PUSH2 0x30DF JUMP JUMPDEST SWAP10 SWAP9 POP POP POP POP POP POP POP POP POP JUMP JUMPDEST PUSH1 0x0 PUSH1 0x20 DUP3 DUP5 SUB SLT ISZERO PUSH2 0x3182 JUMPI PUSH2 0x3181 PUSH2 0x2E22 JUMP JUMPDEST JUMPDEST PUSH1 0x0 PUSH2 0x3190 DUP5 DUP3 DUP6 ADD PUSH2 0x2F79 JUMP JUMPDEST SWAP2 POP POP SWAP3 SWAP2 POP POP JUMP JUMPDEST PUSH1 0x0 PUSH4 0xFFFFFFFF DUP3 AND SWAP1 POP SWAP2 SWAP1 POP JUMP JUMPDEST PUSH2 0x31B2 DUP2 PUSH2 0x3199 JUMP JUMPDEST DUP3 MSTORE POP POP JUMP JUMPDEST PUSH1 0x0 PUSH1 0x60 DUP3 ADD SWAP1 POP PUSH2 0x31CD PUSH1 0x0 DUP4 ADD DUP7 PUSH2 0x31A9 JUMP JUMPDEST PUSH2 0x31DA PUSH1 0x20 DUP4 ADD DUP6 PUSH2 0x2E8F JUMP JUMPDEST PUSH2 0x31E7 PUSH1 0x40 DUP4 ADD DUP5 PUSH2 0x2E8F JUMP JUMPDEST SWAP5 SWAP4 POP POP POP POP JUMP JUMPDEST PUSH1 0x0 PUSH1 0x40 DUP3 ADD SWAP1 POP PUSH2 0x3204 PUSH1 0x0 DUP4 ADD DUP6 PUSH2 0x2E8F JUMP JUMPDEST PUSH2 0x3211 PUSH1 0x20 DUP4 ADD DUP5 PUSH2 0x30DF JUMP JUMPDEST SWAP4 SWAP3 POP POP POP JUMP JUMPDEST PUSH1 0x0 DUP2 SWAP1 POP SWAP2 SWAP1 POP JUMP JUMPDEST PUSH2 0x322B DUP2 PUSH2 0x3218 JUMP JUMPDEST DUP2 EQ PUSH2 0x3236 JUMPI PUSH1 0x0 DUP1 REVERT JUMPDEST POP JUMP JUMPDEST PUSH1 0x0 DUP2 CALLDATALOAD SWAP1 POP PUSH2 0x3248 DUP2 PUSH2 0x3222 JUMP JUMPDEST SWAP3 SWAP2 POP POP JUMP JUMPDEST PUSH1 0x0 DUP1 PUSH1 0x40 DUP4 DUP6 SUB SLT ISZERO PUSH2 0x3265 JUMPI PUSH2 0x3264 PUSH2 0x2E22 JUMP JUMPDEST JUMPDEST PUSH1 0x0 PUSH2 0x3273 DUP6 DUP3 DUP7 ADD PUSH2 0x3239 JUMP JUMPDEST SWAP3 POP POP PUSH1 0x20 PUSH2 0x3284 DUP6 DUP3 DUP7 ADD PUSH2 0x2E4D JUMP JUMPDEST SWAP2 POP POP SWAP3 POP SWAP3 SWAP1 POP JUMP JUMPDEST PUSH1 0x0 PUSH1 0x20 DUP3 ADD SWAP1 POP PUSH2 0x32A3 PUSH1 0x0 DUP4 ADD DUP5 PUSH2 0x30DF JUMP JUMPDEST SWAP3 SWAP2 POP POP JUMP JUMPDEST PUSH1 0x0 PUSH1 0x20 DUP3 ADD SWAP1 POP PUSH2 0x32BE PUSH1 0x0 DUP4 ADD DUP5 PUSH2 0x30C4 JUMP JUMPDEST SWAP3 SWAP2 POP POP JUMP JUMPDEST PUSH1 0x0 DUP1 REVERT JUMPDEST PUSH1 0x0 PUSH1 0x1F NOT PUSH1 0x1F DUP4 ADD AND SWAP1 POP SWAP2 SWAP1 POP JUMP JUMPDEST PUSH32 0x4E487B7100000000000000000000000000000000000000000000000000000000 PUSH1 0x0 MSTORE PUSH1 0x41 PUSH1 0x4 MSTORE PUSH1 0x24 PUSH1 0x0 REVERT JUMPDEST PUSH2 0x3312 DUP3 PUSH2 0x32C9 JUMP JUMPDEST DUP2 ADD DUP2 DUP2 LT PUSH8 0xFFFFFFFFFFFFFFFF DUP3 GT OR ISZERO PUSH2 0x3331 JUMPI PUSH2 0x3330 PUSH2 0x32DA JUMP JUMPDEST JUMPDEST DUP1 PUSH1 0x40 MSTORE POP POP POP JUMP JUMPDEST PUSH1 0x0 PUSH2 0x3344 PUSH2 0x2E18 JUMP JUMPDEST SWAP1 POP PUSH2 0x3350 DUP3 DUP3 PUSH2 0x3309 JUMP JUMPDEST SWAP2 SWAP1 POP JUMP JUMPDEST PUSH1 0x0 PUSH1 0x40 DUP3 DUP5 SUB SLT ISZERO PUSH2 0x336B JUMPI PUSH2 0x336A PUSH2 0x32C4 JUMP JUMPDEST JUMPDEST PUSH2 0x3375 PUSH1 0x40 PUSH2 0x333A JUMP JUMPDEST SWAP1 POP PUSH1 0x0 PUSH2 0x3385 DUP5 DUP3 DUP6 ADD PUSH2 0x2F79 JUMP JUMPDEST PUSH1 0x0 DUP4 ADD MSTORE POP PUSH1 0x20 PUSH2 0x3399 DUP5 DUP3 DUP6 ADD PUSH2 0x2E4D JUMP JUMPDEST PUSH1 0x20 DUP4 ADD MSTORE POP SWAP3 SWAP2 POP POP JUMP JUMPDEST PUSH1 0x0 PUSH1 0x80 DUP3 DUP5 SUB SLT ISZERO PUSH2 0x33BB JUMPI PUSH2 0x33BA PUSH2 0x32C4 JUMP JUMPDEST JUMPDEST PUSH2 0x33C5 PUSH1 0x60 PUSH2 0x333A JUMP JUMPDEST SWAP1 POP PUSH1 0x0 PUSH2 0x33D5 DUP5 DUP3 DUP6 ADD PUSH2 0x3355 JUMP JUMPDEST PUSH1 0x0 DUP4 ADD MSTORE POP PUSH1 0x40 PUSH2 0x33E9 DUP5 DUP3 DUP6 ADD PUSH2 0x2E4D JUMP JUMPDEST PUSH1 0x20 DUP4 ADD MSTORE POP PUSH1 0x60 PUSH2 0x33FD DUP5 DUP3 DUP6 ADD PUSH2 0x2E4D JUMP JUMPDEST PUSH1 0x40 DUP4 ADD MSTORE POP SWAP3 SWAP2 POP POP JUMP JUMPDEST PUSH1 0x0 DUP1 REVERT JUMPDEST PUSH1 0x0 PUSH1 0x40 DUP3 DUP5 SUB SLT ISZERO PUSH2 0x3424 JUMPI PUSH2 0x3423 PUSH2 0x3409 JUMP JUMPDEST JUMPDEST DUP2 SWAP1 POP SWAP3 SWAP2 POP POP JUMP JUMPDEST PUSH1 0x0 DUP1 REVERT JUMPDEST PUSH1 0x0 DUP1 REVERT JUMPDEST PUSH1 0x0 DUP1 REVERT JUMPDEST PUSH1 0x0 DUP1 DUP4 PUSH1 0x1F DUP5 ADD SLT PUSH2 0x3452 JUMPI PUSH2 0x3451 PUSH2 0x342D JUMP JUMPDEST JUMPDEST DUP3 CALLDATALOAD SWAP1 POP PUSH8 0xFFFFFFFFFFFFFFFF DUP2 GT ISZERO PUSH2 0x346F JUMPI PUSH2 0x346E PUSH2 0x3432 JUMP JUMPDEST JUMPDEST PUSH1 0x20 DUP4 ADD SWAP2 POP DUP4 PUSH1 0x1 DUP3 MUL DUP4 ADD GT ISZERO PUSH2 0x348B JUMPI PUSH2 0x348A PUSH2 0x3437 JUMP JUMPDEST JUMPDEST SWAP3 POP SWAP3 SWAP1 POP JUMP JUMPDEST PUSH1 0x0 DUP1 PUSH1 0x0 DUP1 PUSH1 0x0 PUSH2 0x100 DUP7 DUP9 SUB SLT ISZERO PUSH2 0x34AF JUMPI PUSH2 0x34AE PUSH2 0x2E22 JUMP JUMPDEST JUMPDEST PUSH1 0x0 PUSH2 0x34BD DUP9 DUP3 DUP10 ADD PUSH2 0x2E4D JUMP JUMPDEST SWAP6 POP POP PUSH1 0x20 PUSH2 0x34CE DUP9 DUP3 DUP10 ADD PUSH2 0x33A5 JUMP JUMPDEST SWAP5 POP POP PUSH1 0xA0 PUSH2 0x34DF DUP9 DUP3 DUP10 ADD PUSH2 0x340E JUMP JUMPDEST SWAP4 POP POP PUSH1 0xE0 DUP7 ADD CALLDATALOAD PUSH8 0xFFFFFFFFFFFFFFFF DUP2 GT ISZERO PUSH2 0x3500 JUMPI PUSH2 0x34FF PUSH2 0x2E27 JUMP JUMPDEST JUMPDEST PUSH2 0x350C DUP9 DUP3 DUP10 ADD PUSH2 0x343C JUMP JUMPDEST SWAP3 POP SWAP3 POP POP SWAP3 SWAP6 POP SWAP3 SWAP6 SWAP1 SWAP4 POP JUMP JUMPDEST PUSH2 0x3524 DUP2 PUSH2 0x3099 JUMP JUMPDEST DUP2 EQ PUSH2 0x352F JUMPI PUSH1 0x0 DUP1 REVERT JUMPDEST POP JUMP JUMPDEST PUSH1 0x0 DUP2 CALLDATALOAD SWAP1 POP PUSH2 0x3541 DUP2 PUSH2 0x351B JUMP JUMPDEST SWAP3 SWAP2 POP POP JUMP JUMPDEST PUSH1 0x0 DUP1 PUSH1 0x40 DUP4 DUP6 SUB SLT ISZERO PUSH2 0x355E JUMPI PUSH2 0x355D PUSH2 0x2E22 JUMP JUMPDEST JUMPDEST PUSH1 0x0 PUSH2 0x356C DUP6 DUP3 DUP7 ADD PUSH2 0x2F79 JUMP JUMPDEST SWAP3 POP POP PUSH1 0x20 PUSH2 0x357D DUP6 DUP3 DUP7 ADD PUSH2 0x3532 JUMP JUMPDEST SWAP2 POP POP SWAP3 POP SWAP3 SWAP1 POP JUMP JUMPDEST PUSH1 0x0 DUP1 PUSH1 0x0 PUSH1 0x60 DUP5 DUP7 SUB SLT ISZERO PUSH2 0x35A0 JUMPI PUSH2 0x359F PUSH2 0x2E22 JUMP JUMPDEST JUMPDEST PUSH1 0x0 PUSH2 0x35AE DUP7 DUP3 DUP8 ADD PUSH2 0x2F79 JUMP JUMPDEST SWAP4 POP POP PUSH1 0x20 PUSH2 0x35BF DUP7 DUP3 DUP8 ADD PUSH2 0x2E4D JUMP JUMPDEST SWAP3 POP POP PUSH1 0x40 PUSH2 0x35D0 DUP7 DUP3 DUP8 ADD PUSH2 0x2F79 JUMP JUMPDEST SWAP2 POP POP SWAP3 POP SWAP3 POP SWAP3 JUMP JUMPDEST PUSH1 0x0 PUSH8 0xFFFFFFFFFFFFFFFF DUP3 GT ISZERO PUSH2 0x35F5 JUMPI PUSH2 0x35F4 PUSH2 0x32DA JUMP JUMPDEST JUMPDEST PUSH1 0x20 DUP3 MUL SWAP1 POP PUSH1 0x20 DUP2 ADD SWAP1 POP SWAP2 SWAP1 POP JUMP JUMPDEST PUSH1 0x0 PUSH2 0x3619 PUSH2 0x3614 DUP5 PUSH2 0x35DA JUMP JUMPDEST PUSH2 0x333A JUMP JUMPDEST SWAP1 POP DUP1 DUP4 DUP3 MSTORE PUSH1 0x20 DUP3 ADD SWAP1 POP PUSH1 0x20 DUP5 MUL DUP4 ADD DUP6 DUP2 GT ISZERO PUSH2 0x363C JUMPI PUSH2 0x363B PUSH2 0x3437 JUMP JUMPDEST JUMPDEST DUP4 JUMPDEST DUP2 DUP2 LT ISZERO PUSH2 0x3665 JUMPI DUP1 PUSH2 0x3651 DUP9 DUP3 PUSH2 0x2E4D JUMP JUMPDEST DUP5 MSTORE PUSH1 0x20 DUP5 ADD SWAP4 POP POP PUSH1 0x20 DUP2 ADD SWAP1 POP PUSH2 0x363E JUMP JUMPDEST POP POP POP SWAP4 SWAP3 POP POP POP JUMP JUMPDEST PUSH1 0x0 DUP3 PUSH1 0x1F DUP4 ADD SLT PUSH2 0x3684 JUMPI PUSH2 0x3683 PUSH2 0x342D JUMP JUMPDEST JUMPDEST DUP2 CALLDATALOAD PUSH2 0x3694 DUP5 DUP3 PUSH1 0x20 DUP7 ADD PUSH2 0x3606 JUMP JUMPDEST SWAP2 POP POP SWAP3 SWAP2 POP POP JUMP JUMPDEST PUSH2 0x36A6 DUP2 PUSH2 0x30D3 JUMP JUMPDEST DUP2 EQ PUSH2 0x36B1 JUMPI PUSH1 0x0 DUP1 REVERT JUMPDEST POP JUMP JUMPDEST PUSH1 0x0 DUP2 CALLDATALOAD SWAP1 POP PUSH2 0x36C3 DUP2 PUSH2 0x369D JUMP JUMPDEST SWAP3 SWAP2 POP POP JUMP JUMPDEST PUSH1 0x0 DUP1 PUSH1 0x40 DUP4 DUP6 SUB SLT ISZERO PUSH2 0x36E0 JUMPI PUSH2 0x36DF PUSH2 0x2E22 JUMP JUMPDEST JUMPDEST PUSH1 0x0 DUP4 ADD CALLDATALOAD PUSH8 0xFFFFFFFFFFFFFFFF DUP2 GT ISZERO PUSH2 0x36FE JUMPI PUSH2 0x36FD PUSH2 0x2E27 JUMP JUMPDEST JUMPDEST PUSH2 0x370A DUP6 DUP3 DUP7 ADD PUSH2 0x366F JUMP JUMPDEST SWAP3 POP POP PUSH1 0x20 PUSH2 0x371B DUP6 DUP3 DUP7 ADD PUSH2 0x36B4 JUMP JUMPDEST SWAP2 POP POP SWAP3 POP SWAP3 SWAP1 POP JUMP JUMPDEST PUSH1 0x0 DUP2 MLOAD SWAP1 POP SWAP2 SWAP1 POP JUMP JUMPDEST PUSH1 0x0 DUP3 DUP3 MSTORE PUSH1 0x20 DUP3 ADD SWAP1 POP SWAP3 SWAP2 POP POP JUMP JUMPDEST PUSH1 0x0 DUP2 SWAP1 POP PUSH1 0x20 DUP3 ADD SWAP1 POP SWAP2 SWAP1 POP JUMP JUMPDEST PUSH2 0x375A DUP2 PUSH2 0x3048 JUMP JUMPDEST DUP3 MSTORE POP POP JUMP JUMPDEST PUSH2 0x3769 DUP2 PUSH2 0x3068 JUMP JUMPDEST DUP3 MSTORE POP POP JUMP JUMPDEST PUSH2 0x3778 DUP2 PUSH2 0x3099 JUMP JUMPDEST DUP3 MSTORE POP POP JUMP JUMPDEST PUSH2 0x3787 DUP2 PUSH2 0x2F50 JUMP JUMPDEST DUP3 MSTORE POP POP JUMP JUMPDEST PUSH2 0x3796 DUP2 PUSH2 0x30D3 JUMP JUMPDEST DUP3 MSTORE POP POP JUMP JUMPDEST PUSH2 0x100 DUP3 ADD PUSH1 0x0 DUP3 ADD MLOAD PUSH2 0x37B3 PUSH1 0x0 DUP6 ADD DUP3 PUSH2 0x3751 JUMP JUMPDEST POP PUSH1 0x20 DUP3 ADD MLOAD PUSH2 0x37C6 PUSH1 0x20 DUP6 ADD DUP3 PUSH2 0x3751 JUMP JUMPDEST POP PUSH1 0x40 DUP3 ADD MLOAD PUSH2 0x37D9 PUSH1 0x40 DUP6 ADD DUP3 PUSH2 0x3760 JUMP JUMPDEST POP PUSH1 0x60 DUP3 ADD MLOAD PUSH2 0x37EC PUSH1 0x60 DUP6 ADD DUP3 PUSH2 0x376F JUMP JUMPDEST POP PUSH1 0x80 DUP3 ADD MLOAD PUSH2 0x37FF PUSH1 0x80 DUP6 ADD DUP3 PUSH2 0x376F JUMP JUMPDEST POP PUSH1 0xA0 DUP3 ADD MLOAD PUSH2 0x3812 PUSH1 0xA0 DUP6 ADD DUP3 PUSH2 0x377E JUMP JUMPDEST POP PUSH1 0xC0 DUP3 ADD MLOAD PUSH2 0x3825 PUSH1 0xC0 DUP6 ADD DUP3 PUSH2 0x377E JUMP JUMPDEST POP PUSH1 0xE0 DUP3 ADD MLOAD PUSH2 0x3838 PUSH1 0xE0 DUP6 ADD DUP3 PUSH2 0x378D JUMP JUMPDEST POP POP POP POP JUMP JUMPDEST PUSH1 0x0 PUSH2 0x384A DUP4 DUP4 PUSH2 0x379C JUMP JUMPDEST PUSH2 0x100 DUP4 ADD SWAP1 POP SWAP3 SWAP2 POP POP JUMP JUMPDEST PUSH1 0x0 PUSH1 0x20 DUP3 ADD SWAP1 POP SWAP2 SWAP1 POP JUMP JUMPDEST PUSH1 0x0 PUSH2 0x386F DUP3 PUSH2 0x3725 JUMP JUMPDEST PUSH2 0x3879 DUP2 DUP6 PUSH2 0x3730 JUMP JUMPDEST SWAP4 POP PUSH2 0x3884 DUP4 PUSH2 0x3741 JUMP JUMPDEST DUP1 PUSH1 0x0 JUMPDEST DUP4 DUP2 LT ISZERO PUSH2 0x38B5 JUMPI DUP2 MLOAD PUSH2 0x389C DUP9 DUP3 PUSH2 0x383E JUMP JUMPDEST SWAP8 POP PUSH2 0x38A7 DUP4 PUSH2 0x3857 JUMP JUMPDEST SWAP3 POP POP PUSH1 0x1 DUP2 ADD SWAP1 POP PUSH2 0x3888 JUMP JUMPDEST POP DUP6 SWAP4 POP POP POP POP SWAP3 SWAP2 POP POP JUMP JUMPDEST PUSH1 0x0 PUSH1 0x20 DUP3 ADD SWAP1 POP DUP2 DUP2 SUB PUSH1 0x0 DUP4 ADD MSTORE PUSH2 0x38DC DUP2 DUP5 PUSH2 0x3864 JUMP JUMPDEST SWAP1 POP SWAP3 SWAP2 POP POP JUMP JUMPDEST PUSH1 0x0 PUSH1 0x60 DUP3 ADD SWAP1 POP PUSH2 0x38F9 PUSH1 0x0 DUP4 ADD DUP7 PUSH2 0x30B5 JUMP JUMPDEST PUSH2 0x3906 PUSH1 0x20 DUP4 ADD DUP6 PUSH2 0x30B5 JUMP JUMPDEST PUSH2 0x3913 PUSH1 0x40 DUP4 ADD DUP5 PUSH2 0x2E8F JUMP JUMPDEST SWAP5 SWAP4 POP POP POP POP JUMP JUMPDEST PUSH1 0x0 DUP2 MLOAD SWAP1 POP SWAP2 SWAP1 POP JUMP JUMPDEST PUSH1 0x0 DUP3 DUP3 MSTORE PUSH1 0x20 DUP3 ADD SWAP1 POP SWAP3 SWAP2 POP POP JUMP JUMPDEST PUSH1 0x0 DUP2 SWAP1 POP PUSH1 0x20 DUP3 ADD SWAP1 POP SWAP2 SWAP1 POP JUMP JUMPDEST PUSH2 0x3950 DUP2 PUSH2 0x2E2C JUMP JUMPDEST DUP3 MSTORE POP POP JUMP JUMPDEST PUSH1 0x0 PUSH2 0x3962 DUP4 DUP4 PUSH2 0x3947 JUMP JUMPDEST PUSH1 0x20 DUP4 ADD SWAP1 POP SWAP3 SWAP2 POP POP JUMP JUMPDEST PUSH1 0x0 PUSH1 0x20 DUP3 ADD SWAP1 POP SWAP2 SWAP1 POP JUMP JUMPDEST PUSH1 0x0 PUSH2 0x3986 DUP3 PUSH2 0x391B JUMP JUMPDEST PUSH2 0x3990 DUP2 DUP6 PUSH2 0x3926 JUMP JUMPDEST SWAP4 POP PUSH2 0x399B DUP4 PUSH2 0x3937 JUMP JUMPDEST DUP1 PUSH1 0x0 JUMPDEST DUP4 DUP2 LT ISZERO PUSH2 0x39CC JUMPI DUP2 MLOAD PUSH2 0x39B3 DUP9 DUP3 PUSH2 0x3956 JUMP JUMPDEST SWAP8 POP PUSH2 0x39BE DUP4 PUSH2 0x396E JUMP JUMPDEST SWAP3 POP POP PUSH1 0x1 DUP2 ADD SWAP1 POP PUSH2 0x399F JUMP JUMPDEST POP DUP6 SWAP4 POP POP POP POP SWAP3 SWAP2 POP POP JUMP JUMPDEST PUSH1 0x0 PUSH1 0x20 DUP3 ADD SWAP1 POP DUP2 DUP2 SUB PUSH1 0x0 DUP4 ADD MSTORE PUSH2 0x39F3 DUP2 DUP5 PUSH2 0x397B JUMP JUMPDEST SWAP1 POP SWAP3 SWAP2 POP POP JUMP JUMPDEST PUSH1 0x0 DUP3 DUP3 MSTORE PUSH1 0x20 DUP3 ADD SWAP1 POP SWAP3 SWAP2 POP POP JUMP JUMPDEST PUSH32 0x43616C6C6572206973206E6F7420617574686F72697A65640000000000000000 PUSH1 0x0 DUP3 ADD MSTORE POP JUMP JUMPDEST PUSH1 0x0 PUSH2 0x3A42 PUSH1 0x18 DUP4 PUSH2 0x39FB JUMP JUMPDEST SWAP2 POP PUSH2 0x3A4D DUP3 PUSH2 0x3A0C JUMP JUMPDEST PUSH1 0x20 DUP3 ADD SWAP1 POP SWAP2 SWAP1 POP JUMP JUMPDEST PUSH1 0x0 PUSH1 0x20 DUP3 ADD SWAP1 POP DUP2 DUP2 SUB PUSH1 0x0 DUP4 ADD MSTORE PUSH2 0x3A71 DUP2 PUSH2 0x3A35 JUMP JUMPDEST SWAP1 POP SWAP2 SWAP1 POP JUMP JUMPDEST PUSH32 0x4E487B7100000000000000000000000000000000000000000000000000000000 PUSH1 0x0 MSTORE PUSH1 0x32 PUSH1 0x4 MSTORE PUSH1 0x24 PUSH1 0x0 REVERT JUMPDEST PUSH2 0x3AB0 DUP2 PUSH2 0x3218 JUMP JUMPDEST DUP3 MSTORE POP POP JUMP JUMPDEST PUSH1 0x0 PUSH1 0x80 DUP3 ADD SWAP1 POP PUSH2 0x3ACB PUSH1 0x0 DUP4 ADD DUP8 PUSH2 0x2E8F JUMP JUMPDEST PUSH2 0x3AD8 PUSH1 0x20 DUP4 ADD DUP7 PUSH2 0x2E8F JUMP JUMPDEST PUSH2 0x3AE5 PUSH1 0x40 DUP4 ADD DUP6 PUSH2 0x2E8F JUMP JUMPDEST PUSH2 0x3AF2 PUSH1 0x60 DUP4 ADD DUP5 PUSH2 0x3AA7 JUMP JUMPDEST SWAP6 SWAP5 POP POP POP POP POP JUMP JUMPDEST PUSH32 0x4E487B7100000000000000000000000000000000000000000000000000000000 PUSH1 0x0 MSTORE PUSH1 0x12 PUSH1 0x4 MSTORE PUSH1 0x24 PUSH1 0x0 REVERT JUMPDEST PUSH1 0x0 PUSH2 0x3B35 DUP3 PUSH2 0x2E2C JUMP JUMPDEST SWAP2 POP PUSH2 0x3B40 DUP4 PUSH2 0x2E2C JUMP JUMPDEST SWAP3 POP DUP3 PUSH2 0x3B50 JUMPI PUSH2 0x3B4F PUSH2 0x3AFB JUMP JUMPDEST JUMPDEST DUP3 DUP3 MOD SWAP1 POP SWAP3 SWAP2 POP POP JUMP JUMPDEST PUSH32 0x4E487B7100000000000000000000000000000000000000000000000000000000 PUSH1 0x0 MSTORE PUSH1 0x11 PUSH1 0x4 MSTORE PUSH1 0x24 PUSH1 0x0 REVERT JUMPDEST PUSH1 0x0 PUSH2 0x3B95 DUP3 PUSH2 0x2E2C JUMP JUMPDEST SWAP2 POP PUSH2 0x3BA0 DUP4 PUSH2 0x2E2C JUMP JUMPDEST SWAP3 POP DUP3 DUP3 SUB SWAP1 POP DUP2 DUP2 GT ISZERO PUSH2 0x3BB8 JUMPI PUSH2 0x3BB7 PUSH2 0x3B5B JUMP JUMPDEST JUMPDEST SWAP3 SWAP2 POP POP JUMP JUMPDEST PUSH1 0x0 PUSH2 0x3BC9 DUP3 PUSH2 0x2E2C JUMP JUMPDEST SWAP2 POP PUSH2 0x3BD4 DUP4 PUSH2 0x2E2C JUMP JUMPDEST SWAP3 POP DUP3 DUP3 ADD SWAP1 POP DUP1 DUP3 GT ISZERO PUSH2 0x3BEC JUMPI PUSH2 0x3BEB PUSH2 0x3B5B JUMP JUMPDEST JUMPDEST SWAP3 SWAP2 POP POP JUMP JUMPDEST PUSH1 0x0 PUSH2 0x3BFD DUP3 PUSH2 0x2E2C JUMP JUMPDEST SWAP2 POP PUSH2 0x3C08 DUP4 PUSH2 0x2E2C JUMP JUMPDEST SWAP3 POP DUP3 PUSH2 0x3C18 JUMPI PUSH2 0x3C17 PUSH2 0x3AFB JUMP JUMPDEST JUMPDEST DUP3 DUP3 DIV SWAP1 POP SWAP3 SWAP2 POP POP JUMP JUMPDEST PUSH1 0x0 PUSH2 0x3C2E DUP3 PUSH2 0x2E2C JUMP JUMPDEST SWAP2 POP PUSH2 0x3C39 DUP4 PUSH2 0x2E2C JUMP JUMPDEST SWAP3 POP DUP3 DUP3 MUL PUSH2 0x3C47 DUP2 PUSH2 0x2E2C JUMP JUMPDEST SWAP2 POP DUP3 DUP3 DIV DUP5 EQ DUP4 ISZERO OR PUSH2 0x3C5E JUMPI PUSH2 0x3C5D PUSH2 0x3B5B JUMP JUMPDEST JUMPDEST POP SWAP3 SWAP2 POP POP JUMP JUMPDEST PUSH1 0x0 PUSH2 0x3C70 DUP3 PUSH2 0x2E2C JUMP JUMPDEST SWAP2 POP PUSH32 0xFFFFFFFFFFFFFFFFFFFFFFFFFFFFFFFFFFFFFFFFFFFFFFFFFFFFFFFFFFFFFFFF DUP3 SUB PUSH2 0x3CA2 JUMPI PUSH2 0x3CA1 PUSH2 0x3B5B JUMP JUMPDEST JUMPDEST PUSH1 0x1 DUP3 ADD SWAP1 POP SWAP2 SWAP1 POP JUMP JUMPDEST PUSH32 0x4265747320696E2070656E64696E670000000000000000000000000000000000 PUSH1 0x0 DUP3 ADD MSTORE POP JUMP JUMPDEST PUSH1 0x0 PUSH2 0x3CE3 PUSH1 0xF DUP4 PUSH2 0x39FB JUMP JUMPDEST SWAP2 POP PUSH2 0x3CEE DUP3 PUSH2 0x3CAD JUMP JUMPDEST PUSH1 0x20 DUP3 ADD SWAP1 POP SWAP2 SWAP1 POP JUMP JUMPDEST PUSH1 0x0 PUSH1 0x20 DUP3 ADD SWAP1 POP DUP2 DUP2 SUB PUSH1 0x0 DUP4 ADD MSTORE PUSH2 0x3D12 DUP2 PUSH2 0x3CD6 JUMP JUMPDEST SWAP1 POP SWAP2 SWAP1 POP JUMP JUMPDEST PUSH1 0x0 PUSH1 0x60 DUP3 ADD SWAP1 POP PUSH2 0x3D2E PUSH1 0x0 DUP4 ADD DUP7 PUSH2 0x2E8F JUMP JUMPDEST PUSH2 0x3D3B PUSH1 0x20 DUP4 ADD DUP6 PUSH2 0x2E8F JUMP JUMPDEST PUSH2 0x3D48 PUSH1 0x40 DUP4 ADD DUP5 PUSH2 0x3AA7 JUMP JUMPDEST SWAP5 SWAP4 POP POP POP POP JUMP JUMPDEST PUSH32 0x47616D65206973206E6F74206C69766500000000000000000000000000000000 PUSH1 0x0 DUP3 ADD MSTORE POP JUMP JUMPDEST PUSH1 0x0 PUSH2 0x3D86 PUSH1 0x10 DUP4 PUSH2 0x39FB JUMP JUMPDEST SWAP2 POP PUSH2 0x3D91 DUP3 PUSH2 0x3D50 JUMP JUMPDEST PUSH1 0x20 DUP3 ADD SWAP1 POP SWAP2 SWAP1 POP JUMP JUMPDEST PUSH1 0x0 PUSH1 0x20 DUP3 ADD SWAP1 POP DUP2 DUP2 SUB PUSH1 0x0 DUP4 ADD MSTORE PUSH2 0x3DB5 DUP2 PUSH2 0x3D79 JUMP JUMPDEST SWAP1 POP SWAP2 SWAP1 POP JUMP JUMPDEST PUSH32 0x426574206D61736B206E6F7420696E2072616E67650000000000000000000000 PUSH1 0x0 DUP3 ADD MSTORE POP JUMP JUMPDEST PUSH1 0x0 PUSH2 0x3DF2 PUSH1 0x15 DUP4 PUSH2 0x39FB JUMP JUMPDEST SWAP2 POP PUSH2 0x3DFD DUP3 PUSH2 0x3DBC JUMP JUMPDEST PUSH1 0x20 DUP3 ADD SWAP1 POP SWAP2 SWAP1 POP JUMP JUMPDEST PUSH1 0x0 PUSH1 0x20 DUP3 ADD SWAP1 POP DUP2 DUP2 SUB PUSH1 0x0 DUP4 ADD MSTORE PUSH2 0x3E21 DUP2 PUSH2 0x3DE5 JUMP JUMPDEST SWAP1 POP SWAP2 SWAP1 POP JUMP JUMPDEST PUSH32 0x546F6B656E20616464726573732063616E6E6F74206265203000000000000000 PUSH1 0x0 DUP3 ADD MSTORE POP JUMP JUMPDEST PUSH1 0x0 PUSH2 0x3E5E PUSH1 0x19 DUP4 PUSH2 0x39FB JUMP JUMPDEST SWAP2 POP PUSH2 0x3E69 DUP3 PUSH2 0x3E28 JUMP JUMPDEST PUSH1 0x20 DUP3 ADD SWAP1 POP SWAP2 SWAP1 POP JUMP JUMPDEST PUSH1 0x0 PUSH1 0x20 DUP3 ADD SWAP1 POP DUP2 DUP2 SUB PUSH1 0x0 DUP4 ADD MSTORE PUSH2 0x3E8D DUP2 PUSH2 0x3E51 JUMP JUMPDEST SWAP1 POP SWAP2 SWAP1 POP JUMP JUMPDEST PUSH32 0x42657420616D6F756E74206E6F742077697468696E2072616E67650000000000 PUSH1 0x0 DUP3 ADD MSTORE POP JUMP JUMPDEST PUSH1 0x0 PUSH2 0x3ECA PUSH1 0x1B DUP4 PUSH2 0x39FB JUMP JUMPDEST SWAP2 POP PUSH2 0x3ED5 DUP3 PUSH2 0x3E94 JUMP JUMPDEST PUSH1 0x20 DUP3 ADD SWAP1 POP SWAP2 SWAP1 POP JUMP JUMPDEST PUSH1 0x0 PUSH1 0x20 DUP3 ADD SWAP1 POP DUP2 DUP2 SUB PUSH1 0x0 DUP4 ADD MSTORE PUSH2 0x3EF9 DUP2 PUSH2 0x3EBD JUMP JUMPDEST SWAP1 POP SWAP2 SWAP1 POP JUMP JUMPDEST PUSH32 0x596F75206861766520612070656E64696E672062657400000000000000000000 PUSH1 0x0 DUP3 ADD MSTORE POP JUMP JUMPDEST PUSH1 0x0 PUSH2 0x3F36 PUSH1 0x16 DUP4 PUSH2 0x39FB JUMP JUMPDEST SWAP2 POP PUSH2 0x3F41 DUP3 PUSH2 0x3F00 JUMP JUMPDEST PUSH1 0x20 DUP3 ADD SWAP1 POP SWAP2 SWAP1 POP JUMP JUMPDEST PUSH1 0x0 PUSH1 0x20 DUP3 ADD SWAP1 POP DUP2 DUP2 SUB PUSH1 0x0 DUP4 ADD MSTORE PUSH2 0x3F65 DUP2 PUSH2 0x3F29 JUMP JUMPDEST SWAP1 POP SWAP2 SWAP1 POP JUMP JUMPDEST PUSH1 0x40 DUP3 ADD PUSH1 0x0 DUP3 ADD MLOAD PUSH2 0x3F82 PUSH1 0x0 DUP6 ADD DUP3 PUSH2 0x377E JUMP JUMPDEST POP PUSH1 0x20 DUP3 ADD MLOAD PUSH2 0x3F95 PUSH1 0x20 DUP6 ADD DUP3 PUSH2 0x3947 JUMP JUMPDEST POP POP POP POP JUMP JUMPDEST PUSH1 0x80 DUP3 ADD PUSH1 0x0 DUP3 ADD MLOAD PUSH2 0x3FB1 PUSH1 0x0 DUP6 ADD DUP3 PUSH2 0x3F6C JUMP JUMPDEST POP PUSH1 0x20 DUP3 ADD MLOAD PUSH2 0x3FC4 PUSH1 0x40 DUP6 ADD DUP3 PUSH2 0x3947 JUMP JUMPDEST POP PUSH1 0x40 DUP3 ADD MLOAD PUSH2 0x3FD7 PUSH1 0x60 DUP6 ADD DUP3 PUSH2 0x3947 JUMP JUMPDEST POP POP POP POP JUMP JUMPDEST PUSH1 0x0 PUSH2 0x3FEC PUSH1 0x20 DUP5 ADD DUP5 PUSH2 0x2F79 JUMP JUMPDEST SWAP1 POP SWAP3 SWAP2 POP POP JUMP JUMPDEST PUSH1 0x0 PUSH2 0x4003 PUSH1 0x20 DUP5 ADD DUP5 PUSH2 0x2E4D JUMP JUMPDEST SWAP1 POP SWAP3 SWAP2 POP POP JUMP JUMPDEST PUSH1 0x40 DUP3 ADD PUSH2 0x401C PUSH1 0x0 DUP4 ADD DUP4 PUSH2 0x3FDD JUMP JUMPDEST PUSH2 0x4029 PUSH1 0x0 DUP6 ADD DUP3 PUSH2 0x377E JUMP JUMPDEST POP PUSH2 0x4037 PUSH1 0x20 DUP4 ADD DUP4 PUSH2 0x3FF4 JUMP JUMPDEST PUSH2 0x4044 PUSH1 0x20 DUP6 ADD DUP3 PUSH2 0x3947 JUMP JUMPDEST POP POP POP POP JUMP JUMPDEST PUSH1 0x0 DUP3 DUP3 MSTORE PUSH1 0x20 DUP3 ADD SWAP1 POP SWAP3 SWAP2 POP POP JUMP JUMPDEST DUP3 DUP2 DUP4 CALLDATACOPY PUSH1 0x0 DUP4 DUP4 ADD MSTORE POP POP POP JUMP JUMPDEST PUSH1 0x0 PUSH2 0x4076 DUP4 DUP6 PUSH2 0x404A JUMP JUMPDEST SWAP4 POP PUSH2 0x4083 DUP4 DUP6 DUP5 PUSH2 0x405B JUMP JUMPDEST PUSH2 0x408C DUP4 PUSH2 0x32C9 JUMP JUMPDEST DUP5 ADD SWAP1 POP SWAP4 SWAP3 POP POP POP JUMP JUMPDEST PUSH1 0x0 PUSH2 0x100 DUP3 ADD SWAP1 POP PUSH2 0x40AD PUSH1 0x0 DUP4 ADD DUP9 PUSH2 0x3F9B JUMP JUMPDEST PUSH2 0x40BA PUSH1 0x80 DUP4 ADD DUP8 PUSH2 0x400B JUMP JUMPDEST PUSH2 0x40C7 PUSH1 0xC0 DUP4 ADD DUP7 PUSH2 0x30C4 JUMP JUMPDEST DUP2 DUP2 SUB PUSH1 0xE0 DUP4 ADD MSTORE PUSH2 0x40DA DUP2 DUP5 DUP7 PUSH2 0x406A JUMP JUMPDEST SWAP1 POP SWAP7 SWAP6 POP POP POP POP POP POP JUMP JUMPDEST PUSH1 0x0 PUSH2 0x40F1 DUP3 PUSH2 0x3199 JUMP JUMPDEST SWAP2 POP PUSH4 0xFFFFFFFF DUP3 SUB PUSH2 0x4107 JUMPI PUSH2 0x4106 PUSH2 0x3B5B JUMP JUMPDEST JUMPDEST PUSH1 0x1 DUP3 ADD SWAP1 POP SWAP2 SWAP1 POP JUMP JUMPDEST PUSH1 0x0 PUSH1 0x60 DUP3 ADD SWAP1 POP PUSH2 0x4127 PUSH1 0x0 DUP4 ADD DUP7 PUSH2 0x2E8F JUMP JUMPDEST PUSH2 0x4134 PUSH1 0x20 DUP4 ADD DUP6 PUSH2 0x2E8F JUMP JUMPDEST PUSH2 0x4141 PUSH1 0x40 DUP4 ADD DUP5 PUSH2 0x30C4 JUMP JUMPDEST SWAP5 SWAP4 POP POP POP POP JUMP JUMPDEST PUSH32 0x4D617820616D6F756E74206D7573742062652067726561746572207468616E20 PUSH1 0x0 DUP3 ADD MSTORE PUSH32 0x6D696E20616D6F756E7400000000000000000000000000000000000000000000 PUSH1 0x20 DUP3 ADD MSTORE POP JUMP JUMPDEST PUSH1 0x0 PUSH2 0x41A5 PUSH1 0x2A DUP4 PUSH2 0x39FB JUMP JUMPDEST SWAP2 POP PUSH2 0x41B0 DUP3 PUSH2 0x4149 JUMP JUMPDEST PUSH1 0x40 DUP3 ADD SWAP1 POP SWAP2 SWAP1 POP JUMP JUMPDEST PUSH1 0x0 PUSH1 0x20 DUP3 ADD SWAP1 POP DUP2 DUP2 SUB PUSH1 0x0 DUP4 ADD MSTORE PUSH2 0x41D4 DUP2 PUSH2 0x4198 JUMP JUMPDEST SWAP1 POP SWAP2 SWAP1 POP JUMP JUMPDEST PUSH32 0x4D696E20616D6F756E74206D757374206265206C657373207468616E206D6178 PUSH1 0x0 DUP3 ADD MSTORE PUSH32 0x20616D6F756E7400000000000000000000000000000000000000000000000000 PUSH1 0x20 DUP3 ADD MSTORE POP JUMP JUMPDEST PUSH1 0x0 PUSH2 0x4237 PUSH1 0x27 DUP4 PUSH2 0x39FB JUMP JUMPDEST SWAP2 POP PUSH2 0x4242 DUP3 PUSH2 0x41DB JUMP JUMPDEST PUSH1 0x40 DUP3 ADD SWAP1 POP SWAP2 SWAP1 POP JUMP JUMPDEST PUSH1 0x0 PUSH1 0x20 DUP3 ADD SWAP1 POP DUP2 DUP2 SUB PUSH1 0x0 DUP4 ADD MSTORE PUSH2 0x4266 DUP2 PUSH2 0x422A JUMP JUMPDEST SWAP1 POP SWAP2 SWAP1 POP JUMP JUMPDEST PUSH1 0x0 DUP2 MLOAD SWAP1 POP PUSH2 0x427C DUP2 PUSH2 0x2E36 JUMP JUMPDEST SWAP3 SWAP2 POP POP JUMP JUMPDEST PUSH1 0x0 PUSH1 0x20 DUP3 DUP5 SUB SLT ISZERO PUSH2 0x4298 JUMPI PUSH2 0x4297 PUSH2 0x2E22 JUMP JUMPDEST JUMPDEST PUSH1 0x0 PUSH2 0x42A6 DUP5 DUP3 DUP6 ADD PUSH2 0x426D JUMP JUMPDEST SWAP2 POP POP SWAP3 SWAP2 POP POP JUMP JUMPDEST PUSH32 0x5769746864726177616C2065786365656473206C696D69740000000000000000 PUSH1 0x0 DUP3 ADD MSTORE POP JUMP JUMPDEST PUSH1 0x0 PUSH2 0x42E5 PUSH1 0x18 DUP4 PUSH2 0x39FB JUMP JUMPDEST SWAP2 POP PUSH2 0x42F0 DUP3 PUSH2 0x42AF JUMP JUMPDEST PUSH1 0x20 DUP3 ADD SWAP1 POP SWAP2 SWAP1 POP JUMP JUMPDEST PUSH1 0x0 PUSH1 0x20 DUP3 ADD SWAP1 POP DUP2 DUP2 SUB PUSH1 0x0 DUP4 ADD MSTORE PUSH2 0x4314 DUP2 PUSH2 0x42D8 JUMP JUMPDEST SWAP1 POP SWAP2 SWAP1 POP JUMP JUMPDEST PUSH1 0x0 PUSH1 0x40 DUP3 ADD SWAP1 POP PUSH2 0x4330 PUSH1 0x0 DUP4 ADD DUP6 PUSH2 0x30C4 JUMP JUMPDEST PUSH2 0x433D PUSH1 0x20 DUP4 ADD DUP5 PUSH2 0x2E8F JUMP JUMPDEST SWAP4 SWAP3 POP POP POP JUMP JUMPDEST PUSH1 0x0 DUP2 MLOAD SWAP1 POP PUSH2 0x4353 DUP2 PUSH2 0x369D JUMP JUMPDEST SWAP3 SWAP2 POP POP JUMP JUMPDEST PUSH1 0x0 PUSH1 0x20 DUP3 DUP5 SUB SLT ISZERO PUSH2 0x436F JUMPI PUSH2 0x436E PUSH2 0x2E22 JUMP JUMPDEST JUMPDEST PUSH1 0x0 PUSH2 0x437D DUP5 DUP3 DUP6 ADD PUSH2 0x4344 JUMP JUMPDEST SWAP2 POP POP SWAP3 SWAP2 POP POP JUMP JUMPDEST PUSH32 0x42657420646F6573206E6F742065786973740000000000000000000000000000 PUSH1 0x0 DUP3 ADD MSTORE POP JUMP JUMPDEST PUSH1 0x0 PUSH2 0x43BC PUSH1 0x12 DUP4 PUSH2 0x39FB JUMP JUMPDEST SWAP2 POP PUSH2 0x43C7 DUP3 PUSH2 0x4386 JUMP JUMPDEST PUSH1 0x20 DUP3 ADD SWAP1 POP SWAP2 SWAP1 POP JUMP JUMPDEST PUSH1 0x0 PUSH1 0x20 DUP3 ADD SWAP1 POP DUP2 DUP2 SUB PUSH1 0x0 DUP4 ADD MSTORE PUSH2 0x43EB DUP2 PUSH2 0x43AF JUMP JUMPDEST SWAP1 POP SWAP2 SWAP1 POP JUMP JUMPDEST PUSH32 0x42657420697320736574746C656420616C726561647900000000000000000000 PUSH1 0x0 DUP3 ADD MSTORE POP JUMP JUMPDEST PUSH1 0x0 PUSH2 0x4428 PUSH1 0x16 DUP4 PUSH2 0x39FB JUMP JUMPDEST SWAP2 POP PUSH2 0x4433 DUP3 PUSH2 0x43F2 JUMP JUMPDEST PUSH1 0x20 DUP3 ADD SWAP1 POP SWAP2 SWAP1 POP JUMP JUMPDEST PUSH1 0x0 PUSH1 0x20 DUP3 ADD SWAP1 POP DUP2 DUP2 SUB PUSH1 0x0 DUP4 ADD MSTORE PUSH2 0x4457 DUP2 PUSH2 0x441B JUMP JUMPDEST SWAP1 POP SWAP2 SWAP1 POP JUMP JUMPDEST PUSH1 0x0 PUSH2 0x4469 DUP3 PUSH2 0x3068 JUMP JUMPDEST SWAP2 POP PUSH2 0x4474 DUP4 PUSH2 0x3068 JUMP JUMPDEST SWAP3 POP DUP3 DUP3 ADD SWAP1 POP PUSH22 0xFFFFFFFFFFFFFFFFFFFFFFFFFFFFFFFFFFFFFFFFFFFF DUP2 GT ISZERO PUSH2 0x44A2 JUMPI PUSH2 0x44A1 PUSH2 0x3B5B JUMP JUMPDEST JUMPDEST SWAP3 SWAP2 POP POP JUMP JUMPDEST PUSH32 0x57616974206265666F72652072657175657374696E6720726566756E64000000 PUSH1 0x0 DUP3 ADD MSTORE POP JUMP JUMPDEST PUSH1 0x0 PUSH2 0x44DE PUSH1 0x1D DUP4 PUSH2 0x39FB JUMP JUMPDEST SWAP2 POP PUSH2 0x44E9 DUP3 PUSH2 0x44A8 JUMP JUMPDEST PUSH1 0x20 DUP3 ADD SWAP1 POP SWAP2 SWAP1 POP JUMP JUMPDEST PUSH1 0x0 PUSH1 0x20 DUP3 ADD SWAP1 POP DUP2 DUP2 SUB PUSH1 0x0 DUP4 ADD MSTORE PUSH2 0x450D DUP2 PUSH2 0x44D1 JUMP JUMPDEST SWAP1 POP SWAP2 SWAP1 POP JUMP JUMPDEST PUSH1 0x0 PUSH1 0x40 DUP3 ADD SWAP1 POP PUSH2 0x4529 PUSH1 0x0 DUP4 ADD DUP6 PUSH2 0x2E8F JUMP JUMPDEST PUSH2 0x4536 PUSH1 0x20 DUP4 ADD DUP5 PUSH2 0x30C4 JUMP JUMPDEST SWAP4 SWAP3 POP POP POP JUMP JUMPDEST PUSH1 0x0 PUSH2 0x4558 PUSH2 0x4553 PUSH2 0x454E DUP5 PUSH2 0x3099 JUMP JUMPDEST PUSH2 0x2FCE JUMP JUMPDEST PUSH2 0x2E2C JUMP JUMPDEST SWAP1 POP SWAP2 SWAP1 POP JUMP JUMPDEST PUSH2 0x4568 DUP2 PUSH2 0x453D JUMP JUMPDEST DUP3 MSTORE POP POP JUMP JUMPDEST PUSH1 0x0 PUSH2 0x4589 PUSH2 0x4584 PUSH2 0x457F DUP5 PUSH2 0x3048 JUMP JUMPDEST PUSH2 0x2FCE JUMP JUMPDEST PUSH2 0x2E2C JUMP JUMPDEST SWAP1 POP SWAP2 SWAP1 POP JUMP JUMPDEST PUSH2 0x4599 DUP2 PUSH2 0x456E JUMP JUMPDEST DUP3 MSTORE POP POP JUMP JUMPDEST PUSH1 0x0 DUP2 SWAP1 POP SWAP2 SWAP1 POP JUMP JUMPDEST PUSH1 0x0 PUSH2 0x45C4 PUSH2 0x45BF PUSH2 0x45BA DUP5 PUSH2 0x459F JUMP JUMPDEST PUSH2 0x2FCE JUMP JUMPDEST PUSH2 0x2E2C JUMP JUMPDEST SWAP1 POP SWAP2 SWAP1 POP JUMP JUMPDEST PUSH2 0x45D4 DUP2 PUSH2 0x45A9 JUMP JUMPDEST DUP3 MSTORE POP POP JUMP JUMPDEST PUSH1 0x0 PUSH1 0xA0 DUP3 ADD SWAP1 POP PUSH2 0x45EF PUSH1 0x0 DUP4 ADD DUP9 PUSH2 0x455F JUMP JUMPDEST PUSH2 0x45FC PUSH1 0x20 DUP4 ADD DUP8 PUSH2 0x4590 JUMP JUMPDEST PUSH2 0x4609 PUSH1 0x40 DUP4 ADD DUP7 PUSH2 0x45CB JUMP JUMPDEST PUSH2 0x4616 PUSH1 0x60 DUP4 ADD DUP6 PUSH2 0x45CB JUMP JUMPDEST PUSH2 0x4623 PUSH1 0x80 DUP4 ADD DUP5 PUSH2 0x30C4 JUMP JUMPDEST SWAP7 SWAP6 POP POP POP POP POP POP JUMP JUMPDEST PUSH1 0x0 PUSH1 0xA0 DUP3 ADD SWAP1 POP PUSH2 0x4642 PUSH1 0x0 DUP4 ADD DUP9 PUSH2 0x455F JUMP JUMPDEST PUSH2 0x464F PUSH1 0x20 DUP4 ADD DUP8 PUSH2 0x4590 JUMP JUMPDEST PUSH2 0x465C PUSH1 0x40 DUP4 ADD DUP7 PUSH2 0x2E8F JUMP JUMPDEST PUSH2 0x4669 PUSH1 0x60 DUP4 ADD DUP6 PUSH2 0x2E8F JUMP JUMPDEST PUSH2 0x4676 PUSH1 0x80 DUP4 ADD DUP5 PUSH2 0x30C4 JUMP JUMPDEST SWAP7 SWAP6 POP POP POP POP POP POP JUMP INVALID LOG2 PUSH5 0x6970667358 0x22 SLT KECCAK256 PUSH22 0x360A53F00F334DEF296CBEA1E49AE0DEEAB0B438E354 0xD9 0xC4 PUSH24 0xC4D11BF741D064736F6C634300081C003300000000000000 "
        },
        "methodIdentifiers": {
          "_settleBet(uint256,uint256)": "02679576",
          "betMap(bytes32,uint256)": "621999be",
          "bets(uint256)": "22af00fa",
          "betsLength()": "bbd2e01e",
          "callers(address)": "7bbf4a3f",
          "explosionRate()": "81c8ec1b",
          "gameIsLive()": "d414d0c2",
          "getAverangeMultiplier()": "efcb3b21",
          "getPlayerBets(address)": "eaf07c8c",
          "getPlayerInfo(address)": "59328401",
          "getSeveralBets(uint256[],bool)": "c09338a8",
          "maxMultiplier()": "0187aea0",
          "minMultiplier()": "a24e0d87",
          "owner()": "8da5cb5b",
          "pendingIdsPerPlayer(address)": "57261398",
          "permit2()": "12261ee7",
          "placeBet(uint256,((address,uint256),uint256,uint256),(address,uint256),bytes)": "9f2428fe",
          "playFree(uint256)": "5708e09f",
          "playerInfo(address)": "4b114691",
          "refundBet(uint256)": "e1fdb4b4",
          "renounceOwnership()": "715018a6",
          "setExplosionRate(uint256)": "b7dc5752",
          "setHouseEdgeBP(address,uint256)": "09076344",
          "setMaxBetAmount(address,uint128)": "a1477227",
          "setMaxMultiplier(uint256)": "01526a43",
          "setMinBetAmount(address,uint128)": "a7af380c",
          "setMinMultiplier(uint256)": "9fd751c7",
          "supportedTokenInfo(address)": "e7138143",
          "toggleGameIsLive()": "a045a6fc",
          "transferOwnership(address)": "f2fde38b",
          "withdrawCustomTokenFunds(address,uint256,address)": "b14c8009"
        }
      }
    }
  }
}